{
  "data": {
    "bytecode": {
      "linkReferences": {},
      "object": "6101406040526001600360006101000a81548173ffffffffffffffffffffffffffffffffffffffff021916908373ffffffffffffffffffffffffffffffffffffffff1602179055503480156200005457600080fd5b50604051620050f8380380620050f883398181016040528101906200007a919062000620565b6040518060400160405280600681526020017f4d61726b657400000000000000000000000000000000000000000000000000008152506040518060400160405280600381526020017f312e30000000000000000000000000000000000000000000000000000000000081525060008280519060200120905060008280519060200120905060007f8b73c3c69bb8fe3d512ecc4cf759cc79239f7b179b0ffacaa9a75d522b39400f90508260e081815250508161010081815250504660a081815250506200014f8184846200020160201b60201c565b608081815250503073ffffffffffffffffffffffffffffffffffffffff1660c08173ffffffffffffffffffffffffffffffffffffffff1660601b815250508061012081815250505050505050620001bb620001af6200023d60201b60201c565b6200024560201b60201c565b620001d18888888888886200030960201b60201c565b620001e281620004a760201b60201c565b620001f382620004fb60201b60201c565b505050505050505062000863565b600083838346306040516020016200021e95949392919062000743565b6040516020818303038152906040528051906020012090509392505050565b600033905090565b60008060009054906101000a900473ffffffffffffffffffffffffffffffffffffffff169050816000806101000a81548173ffffffffffffffffffffffffffffffffffffffff021916908373ffffffffffffffffffffffffffffffffffffffff1602179055508173ffffffffffffffffffffffffffffffffffffffff168173ffffffffffffffffffffffffffffffffffffffff167f8be0079c531659141344cd1fd0a4f28419497f9722a3daafe3b4186f6b6457e060405160405180910390a35050565b620003196200054f60201b60201c565b85600460006101000a81548173ffffffffffffffffffffffffffffffffffffffff021916908373ffffffffffffffffffffffffffffffffffffffff16021790555084600560006101000a81548173ffffffffffffffffffffffffffffffffffffffff021916908373ffffffffffffffffffffffffffffffffffffffff16021790555083600660006101000a81548173ffffffffffffffffffffffffffffffffffffffff021916908373ffffffffffffffffffffffffffffffffffffffff16021790555082600760006101000a81548173ffffffffffffffffffffffffffffffffffffffff021916908373ffffffffffffffffffffffffffffffffffffffff16021790555081600860006101000a81548173ffffffffffffffffffffffffffffffffffffffff021916908373ffffffffffffffffffffffffffffffffffffffff16021790555080600960006101000a81548173ffffffffffffffffffffffffffffffffffffffff021916908373ffffffffffffffffffffffffffffffffffffffff160217905550505050505050565b620004b76200054f60201b60201c565b80600a60006101000a81548173ffffffffffffffffffffffffffffffffffffffff021916908373ffffffffffffffffffffffffffffffffffffffff16021790555050565b6200050b6200054f60201b60201c565b80600160006101000a81548173ffffffffffffffffffffffffffffffffffffffff021916908373ffffffffffffffffffffffffffffffffffffffff16021790555050565b6200055f6200023d60201b60201c565b73ffffffffffffffffffffffffffffffffffffffff1662000585620005e060201b60201c565b73ffffffffffffffffffffffffffffffffffffffff1614620005de576040517f08c379a0000000000000000000000000000000000000000000000000000000008152600401620005d590620007a0565b60405180910390fd5b565b60008060009054906101000a900473ffffffffffffffffffffffffffffffffffffffff16905090565b6000815190506200061a8162000849565b92915050565b600080600080600080600080610100898b0312156200064457620006436200081b565b5b6000620006548b828c0162000609565b9850506020620006678b828c0162000609565b97505060406200067a8b828c0162000609565b96505060606200068d8b828c0162000609565b9550506080620006a08b828c0162000609565b94505060a0620006b38b828c0162000609565b93505060c0620006c68b828c0162000609565b92505060e0620006d98b828c0162000609565b9150509295985092959890939650565b620006f481620007d3565b82525050565b6200070581620007e7565b82525050565b60006200071a602083620007c2565b9150620007278262000820565b602082019050919050565b6200073d8162000811565b82525050565b600060a0820190506200075a6000830188620006fa565b620007696020830187620006fa565b620007786040830186620006fa565b62000787606083018562000732565b620007966080830184620006e9565b9695505050505050565b60006020820190508181036000830152620007bb816200070b565b9050919050565b600082825260208201905092915050565b6000620007e082620007f1565b9050919050565b6000819050919050565b600073ffffffffffffffffffffffffffffffffffffffff82169050919050565b6000819050919050565b600080fd5b7f4f776e61626c653a2063616c6c6572206973206e6f7420746865206f776e6572600082015250565b6200085481620007d3565b81146200086057600080fd5b50565b60805160a05160c05160601c60e0516101005161012051614842620008b66000396000612ddc01526000612e1e01526000612dfd01526000612d3201526000612d8801526000612db101526148426000f3fe608060405234801561001057600080fd5b50600436106101fa5760003560e01c80637ecebe001161011a578063bde0db7e116100ad578063d49194891161007c578063d491948914610545578063d6f4b14014610563578063dd4b999214610593578063f2fde38b146105b1578063f95436ea146105cd576101fa565b8063bde0db7e146104d1578063bf6165ff146104ef578063c8a4d0231461050b578063c9f63d3914610529576101fa565b806395cd376f116100e957806395cd376f1461045b5780639e8344f614610479578063a01612c414610495578063a868708a146104b3576101fa565b80637ecebe00146103d157806389c56862146104015780638da5cb5b1461041f578063928c9caf1461043d576101fa565b806322b543401161019257806366d003ac1161016157806366d003ac1461036f5780636d0b06b41461038d5780636fc0f5d7146103a9578063715018a6146103c7576101fa565b806322b54340146102fb5780633408e470146103195780633bbed4a0146103375780634c10e8be14610353576101fa565b80630e089ee4116101ce5780630e089ee414610275578063150b7a021461029357806315137045146102c35780631bfa0340146102df576101fa565b8062de1218146101ff5780630682bdbc1461021d5780630930907b1461023b5780630b08d74c14610259575b600080fd5b6102076105eb565b6040516102149190613cd4565b60405180910390f35b61022561060f565b6040516102329190613ba6565b60405180910390f35b610243610635565b6040516102509190613ba6565b60405180910390f35b610273600480360381019061026e91906135ca565b61065b565b005b61027d610a35565b60405161028a9190613f34565b60405180910390f35b6102ad60048036038101906102a8919061336b565b610a5b565b6040516102ba9190613f19565b60405180910390f35b6102dd60048036038101906102d891906132b1565b610a6f565b005b6102f960048036038101906102f4919061350c565b610abb565b005b610303610e91565b6040516103109190613cd4565b60405180910390f35b610321610eb5565b60405161032e919061410c565b60405180910390f35b610351600480360381019061034c91906132b1565b610ebd565b005b61036d600480360381019061036891906132de565b610f09565b005b61037761109f565b6040516103849190613ba6565b60405180910390f35b6103a760048036038101906103a291906133ee565b6110c5565b005b6103b161163a565b6040516103be9190613f4f565b60405180910390f35b6103cf611660565b005b6103eb60048036038101906103e691906132b1565b611674565b6040516103f8919061410c565b60405180910390f35b61040961168c565b6040516104169190613cd4565b60405180910390f35b6104276116b0565b6040516104349190613ba6565b60405180910390f35b6104456116d9565b6040516104529190613cd4565b60405180910390f35b6104636116fd565b6040516104709190613f4f565b60405180910390f35b610493600480360381019061048e91906135ca565b611723565b005b61049d611afd565b6040516104aa9190613cd4565b60405180910390f35b6104bb611b21565b6040516104c89190613f34565b60405180910390f35b6104d9611b47565b6040516104e69190613f34565b60405180910390f35b6105096004803603810190610504919061350c565b611b6d565b005b610513611f43565b6040516105209190613f34565b60405180910390f35b610543600480360381019061053e91906133ee565b611f69565b005b61054d6124de565b60405161055a9190613cd4565b60405180910390f35b61057d60048036038101906105789190613680565b612502565b60405161058a9190613cb9565b60405180910390f35b61059b612a7b565b6040516105a89190613cd4565b60405180910390f35b6105cb60048036038101906105c691906132b1565b612a9f565b005b6105d5612b23565b6040516105e29190613ba6565b60405180910390f35b7fa87b9a23492251565bd9872d4d438e80ab14b4140b0127f7359a0a7089c0772881565b600a60009054906101000a900473ffffffffffffffffffffffffffffffffffffffff1681565b600360009054906101000a900473ffffffffffffffffffffffffffffffffffffffff1681565b3373ffffffffffffffffffffffffffffffffffffffff168873ffffffffffffffffffffffffffffffffffffffff16146106c9576040517f08c379a00000000000000000000000000000000000000000000000000000000081526004016106c09061404c565b60405180910390fd5b42851161070b576040517f08c379a000000000000000000000000000000000000000000000000000000000815260040161070290613fac565b60405180910390fd5b600b60008973ffffffffffffffffffffffffffffffffffffffff1673ffffffffffffffffffffffffffffffffffffffff16815260200190815260200160002054841461078c576040517f08c379a00000000000000000000000000000000000000000000000000000000081526004016107839061402c565b60405180910390fd5b600086116107cf576040517f08c379a00000000000000000000000000000000000000000000000000000000081526004016107c690613fec565b60405180910390fd5b600061082a7ff6b84ba38c7b897280d3e80968defda8152e43f5858ebc8d36282ef41a59f39b8a8a8a8a8a60405160200161080f96959493929190613db1565b60405160208183030381529060405280519060200120612b49565b90506000600182868686604051600081526020016040526040516108519493929190613ed4565b6020604051602081039080840390855afa158015610873573d6000803e3d6000fd5b505050602060405103519050600a60009054906101000a900473ffffffffffffffffffffffffffffffffffffffff1673ffffffffffffffffffffffffffffffffffffffff168173ffffffffffffffffffffffffffffffffffffffff161461090f576040517f08c379a0000000000000000000000000000000000000000000000000000000008152600401610906906140ac565b60405180910390fd5b600b60008b73ffffffffffffffffffffffffffffffffffffffff1673ffffffffffffffffffffffffffffffffffffffff168152602001908152602001600020600081548092919061095f90614408565b91905055506109d58a600360009054906101000a900473ffffffffffffffffffffffffffffffffffffffff168a600760009054906101000a900473ffffffffffffffffffffffffffffffffffffffff1673ffffffffffffffffffffffffffffffffffffffff16612b63909392919063ffffffff16565b8973ffffffffffffffffffffffffffffffffffffffff167ff96905660dc8af0e95a71e646a50286792baa8d0845e1310938965d866a745c88a8a8a8a604051610a219493929190614127565b60405180910390a250505050505050505050565b600660009054906101000a900473ffffffffffffffffffffffffffffffffffffffff1681565b600063150b7a0260e01b9050949350505050565b610a77612bec565b80600a60006101000a81548173ffffffffffffffffffffffffffffffffffffffff021916908373ffffffffffffffffffffffffffffffffffffffff16021790555050565b3373ffffffffffffffffffffffffffffffffffffffff168773ffffffffffffffffffffffffffffffffffffffff1614610b29576040517f08c379a0000000000000000000000000000000000000000000000000000000008152600401610b209061404c565b60405180910390fd5b428511610b6b576040517f08c379a0000000000000000000000000000000000000000000000000000000008152600401610b6290613fac565b60405180910390fd5b600b60008873ffffffffffffffffffffffffffffffffffffffff1673ffffffffffffffffffffffffffffffffffffffff168152602001908152602001600020548414610bec576040517f08c379a0000000000000000000000000000000000000000000000000000000008152600401610be39061402c565b60405180910390fd5b6000610c6b7f820de84ef4dd0fcb267c9a03bfd44b5522028847287f17b0ce7304bb18d2590a8989604051602001610c249190613b41565b604051602081830303815290604052805190602001208989604051602001610c50959493929190613d5e565b60405160208183030381529060405280519060200120612b49565b9050600060018286868660405160008152602001604052604051610c929493929190613ed4565b6020604051602081039080840390855afa158015610cb4573d6000803e3d6000fd5b505050602060405103519050600a60009054906101000a900473ffffffffffffffffffffffffffffffffffffffff1673ffffffffffffffffffffffffffffffffffffffff168173ffffffffffffffffffffffffffffffffffffffff1614610d50576040517f08c379a0000000000000000000000000000000000000000000000000000000008152600401610d47906140ac565b60405180910390fd5b600b60008a73ffffffffffffffffffffffffffffffffffffffff1673ffffffffffffffffffffffffffffffffffffffff1681526020019081526020016000206000815480929190610da090614408565b9190505550600960009054906101000a900473ffffffffffffffffffffffffffffffffffffffff1673ffffffffffffffffffffffffffffffffffffffff166375ceb3418a8a6040518363ffffffff1660e01b8152600401610e02929190613bf8565b600060405180830381600087803b158015610e1c57600080fd5b505af1158015610e30573d6000803e3d6000fd5b505050508873ffffffffffffffffffffffffffffffffffffffff167fb2c556ce6ab27f3451dfd9d31a68f11ff5ae5074618dcd257def419a837458de898989604051610e7e93929190613c7b565b60405180910390a2505050505050505050565b7ff6b84ba38c7b897280d3e80968defda8152e43f5858ebc8d36282ef41a59f39b81565b600046905090565b610ec5612bec565b80600160006101000a81548173ffffffffffffffffffffffffffffffffffffffff021916908373ffffffffffffffffffffffffffffffffffffffff16021790555050565b610f11612bec565b85600460006101000a81548173ffffffffffffffffffffffffffffffffffffffff021916908373ffffffffffffffffffffffffffffffffffffffff16021790555084600560006101000a81548173ffffffffffffffffffffffffffffffffffffffff021916908373ffffffffffffffffffffffffffffffffffffffff16021790555083600660006101000a81548173ffffffffffffffffffffffffffffffffffffffff021916908373ffffffffffffffffffffffffffffffffffffffff16021790555082600760006101000a81548173ffffffffffffffffffffffffffffffffffffffff021916908373ffffffffffffffffffffffffffffffffffffffff16021790555081600860006101000a81548173ffffffffffffffffffffffffffffffffffffffff021916908373ffffffffffffffffffffffffffffffffffffffff16021790555080600960006101000a81548173ffffffffffffffffffffffffffffffffffffffff021916908373ffffffffffffffffffffffffffffffffffffffff160217905550505050505050565b600160009054906101000a900473ffffffffffffffffffffffffffffffffffffffff1681565b3373ffffffffffffffffffffffffffffffffffffffff168973ffffffffffffffffffffffffffffffffffffffff1614611133576040517f08c379a000000000000000000000000000000000000000000000000000000000815260040161112a9061404c565b60405180910390fd5b428511611175576040517f08c379a000000000000000000000000000000000000000000000000000000000815260040161116c90613fac565b60405180910390fd5b600b60008a73ffffffffffffffffffffffffffffffffffffffff1673ffffffffffffffffffffffffffffffffffffffff1681526020019081526020016000205484146111f6576040517f08c379a00000000000000000000000000000000000000000000000000000000081526004016111ed9061402c565b60405180910390fd5b60006112c57f7f0b8700f280bfd271a852dbaa85c59283c543b8df75250cb1c58e86112beec58b8b60405160200161122e9190613b41565b604051602081830303815290604052805190602001208b6040516020016112559190613b41565b604051602081830303815290604052805190602001208b60405160200161127c9190613b41565b604051602081830303815290604052805190602001208b8b6040516020016112aa9796959493929190613cef565b60405160208183030381529060405280519060200120612b49565b90506000600182868686604051600081526020016040526040516112ec9493929190613ed4565b6020604051602081039080840390855afa15801561130e573d6000803e3d6000fd5b505050602060405103519050600a60009054906101000a900473ffffffffffffffffffffffffffffffffffffffff1673ffffffffffffffffffffffffffffffffffffffff168173ffffffffffffffffffffffffffffffffffffffff16146113aa576040517f08c379a00000000000000000000000000000000000000000000000000000000081526004016113a1906140ac565b60405180910390fd5b600b60008c73ffffffffffffffffffffffffffffffffffffffff1673ffffffffffffffffffffffffffffffffffffffff16815260200190815260200160002060008154809291906113fa90614408565b919050555060005b8a518110156114eb57600860009054906101000a900473ffffffffffffffffffffffffffffffffffffffff1673ffffffffffffffffffffffffffffffffffffffff166342842e0e8d600360009054906101000a900473ffffffffffffffffffffffffffffffffffffffff168e85815181106114805761147f61448a565b5b60200260200101516040518463ffffffff1660e01b81526004016114a693929190613bc1565b600060405180830381600087803b1580156114c057600080fd5b505af11580156114d4573d6000803e3d6000fd5b5050505080806114e390614408565b915050611402565b5060005b88518110156115d857600960009054906101000a900473ffffffffffffffffffffffffffffffffffffffff1673ffffffffffffffffffffffffffffffffffffffff166342842e0e8d600360009054906101000a900473ffffffffffffffffffffffffffffffffffffffff168c858151811061156d5761156c61448a565b5b60200260200101516040518463ffffffff1660e01b815260040161159393929190613bc1565b600060405180830381600087803b1580156115ad57600080fd5b505af11580156115c1573d6000803e3d6000fd5b5050505080806115d090614408565b9150506114ef565b508a73ffffffffffffffffffffffffffffffffffffffff167f0464a6bb5ba2372122a6bac43d1178a9bd3ce040a9cd61813ade454e5f7896e38b8b8a8a6040516116259493929190613c28565b60405180910390a25050505050505050505050565b600860009054906101000a900473ffffffffffffffffffffffffffffffffffffffff1681565b611668612bec565b6116726000612c6a565b565b600b6020528060005260406000206000915090505481565b7f7f0b8700f280bfd271a852dbaa85c59283c543b8df75250cb1c58e86112beec581565b60008060009054906101000a900473ffffffffffffffffffffffffffffffffffffffff16905090565b7f21f991f23360408693509e441f4916f3116208c02dc9e339300abbcfb2e6660281565b600960009054906101000a900473ffffffffffffffffffffffffffffffffffffffff1681565b3373ffffffffffffffffffffffffffffffffffffffff168873ffffffffffffffffffffffffffffffffffffffff1614611791576040517f08c379a00000000000000000000000000000000000000000000000000000000081526004016117889061404c565b60405180910390fd5b4285116117d3576040517f08c379a00000000000000000000000000000000000000000000000000000000081526004016117ca90613fac565b60405180910390fd5b600b60008973ffffffffffffffffffffffffffffffffffffffff1673ffffffffffffffffffffffffffffffffffffffff168152602001908152602001600020548414611854576040517f08c379a000000000000000000000000000000000000000000000000000000000815260040161184b9061402c565b60405180910390fd5b60008611611897576040517f08c379a000000000000000000000000000000000000000000000000000000000815260040161188e90613fec565b60405180910390fd5b60006118f27f21f991f23360408693509e441f4916f3116208c02dc9e339300abbcfb2e666028a8a8a8a8a6040516020016118d796959493929190613db1565b60405160208183030381529060405280519060200120612b49565b90506000600182868686604051600081526020016040526040516119199493929190613ed4565b6020604051602081039080840390855afa15801561193b573d6000803e3d6000fd5b505050602060405103519050600a60009054906101000a900473ffffffffffffffffffffffffffffffffffffffff1673ffffffffffffffffffffffffffffffffffffffff168173ffffffffffffffffffffffffffffffffffffffff16146119d7576040517f08c379a00000000000000000000000000000000000000000000000000000000081526004016119ce906140ac565b60405180910390fd5b600b60008b73ffffffffffffffffffffffffffffffffffffffff1673ffffffffffffffffffffffffffffffffffffffff1681526020019081526020016000206000815480929190611a2790614408565b9190505550611a9d8a600360009054906101000a900473ffffffffffffffffffffffffffffffffffffffff168a600760009054906101000a900473ffffffffffffffffffffffffffffffffffffffff1673ffffffffffffffffffffffffffffffffffffffff16612b63909392919063ffffffff16565b8973ffffffffffffffffffffffffffffffffffffffff167f2ff317b065ed2d67fe4f80e31d1e4a76ad49bb61e6e8286aa84312f8916fe6218a8a8a8a604051611ae99493929190614127565b60405180910390a250505050505050505050565b7f820de84ef4dd0fcb267c9a03bfd44b5522028847287f17b0ce7304bb18d2590a81565b600460009054906101000a900473ffffffffffffffffffffffffffffffffffffffff1681565b600560009054906101000a900473ffffffffffffffffffffffffffffffffffffffff1681565b3373ffffffffffffffffffffffffffffffffffffffff168773ffffffffffffffffffffffffffffffffffffffff1614611bdb576040517f08c379a0000000000000000000000000000000000000000000000000000000008152600401611bd29061404c565b60405180910390fd5b428511611c1d576040517f08c379a0000000000000000000000000000000000000000000000000000000008152600401611c1490613fac565b60405180910390fd5b600b60008873ffffffffffffffffffffffffffffffffffffffff1673ffffffffffffffffffffffffffffffffffffffff168152602001908152602001600020548414611c9e576040517f08c379a0000000000000000000000000000000000000000000000000000000008152600401611c959061402c565b60405180910390fd5b6000611d1d7fa87b9a23492251565bd9872d4d438e80ab14b4140b0127f7359a0a7089c077288989604051602001611cd69190613b41565b604051602081830303815290604052805190602001208989604051602001611d02959493929190613d5e565b60405160208183030381529060405280519060200120612b49565b9050600060018286868660405160008152602001604052604051611d449493929190613ed4565b6020604051602081039080840390855afa158015611d66573d6000803e3d6000fd5b505050602060405103519050600a60009054906101000a900473ffffffffffffffffffffffffffffffffffffffff1673ffffffffffffffffffffffffffffffffffffffff168173ffffffffffffffffffffffffffffffffffffffff1614611e02576040517f08c379a0000000000000000000000000000000000000000000000000000000008152600401611df9906140ac565b60405180910390fd5b600b60008a73ffffffffffffffffffffffffffffffffffffffff1673ffffffffffffffffffffffffffffffffffffffff1681526020019081526020016000206000815480929190611e5290614408565b9190505550600860009054906101000a900473ffffffffffffffffffffffffffffffffffffffff1673ffffffffffffffffffffffffffffffffffffffff166375ceb3418a8a6040518363ffffffff1660e01b8152600401611eb4929190613bf8565b600060405180830381600087803b158015611ece57600080fd5b505af1158015611ee2573d6000803e3d6000fd5b505050508873ffffffffffffffffffffffffffffffffffffffff167f12d369b066a1be6ec6447849b03491e6cd0aab69530788f354e1397705c3a79a898989604051611f3093929190613c7b565b60405180910390a2505050505050505050565b600760009054906101000a900473ffffffffffffffffffffffffffffffffffffffff1681565b3373ffffffffffffffffffffffffffffffffffffffff168973ffffffffffffffffffffffffffffffffffffffff1614611fd7576040517f08c379a0000000000000000000000000000000000000000000000000000000008152600401611fce9061404c565b60405180910390fd5b428511612019576040517f08c379a000000000000000000000000000000000000000000000000000000000815260040161201090613fac565b60405180910390fd5b600b60008a73ffffffffffffffffffffffffffffffffffffffff1673ffffffffffffffffffffffffffffffffffffffff16815260200190815260200160002054841461209a576040517f08c379a00000000000000000000000000000000000000000000000000000000081526004016120919061402c565b60405180910390fd5b60006121697fbe1e1c7f64bb0f829d9c28407669da5ed36dd43eff7437e8ab88053e635f03a58b8b6040516020016120d29190613b41565b604051602081830303815290604052805190602001208b6040516020016120f99190613b41565b604051602081830303815290604052805190602001208b6040516020016121209190613b41565b604051602081830303815290604052805190602001208b8b60405160200161214e9796959493929190613cef565b60405160208183030381529060405280519060200120612b49565b90506000600182868686604051600081526020016040526040516121909493929190613ed4565b6020604051602081039080840390855afa1580156121b2573d6000803e3d6000fd5b505050602060405103519050600a60009054906101000a900473ffffffffffffffffffffffffffffffffffffffff1673ffffffffffffffffffffffffffffffffffffffff168173ffffffffffffffffffffffffffffffffffffffff161461224e576040517f08c379a0000000000000000000000000000000000000000000000000000000008152600401612245906140ac565b60405180910390fd5b600b60008c73ffffffffffffffffffffffffffffffffffffffff1673ffffffffffffffffffffffffffffffffffffffff168152602001908152602001600020600081548092919061229e90614408565b919050555060005b8a5181101561238f57600860009054906101000a900473ffffffffffffffffffffffffffffffffffffffff1673ffffffffffffffffffffffffffffffffffffffff166342842e0e8d600360009054906101000a900473ffffffffffffffffffffffffffffffffffffffff168e85815181106123245761232361448a565b5b60200260200101516040518463ffffffff1660e01b815260040161234a93929190613bc1565b600060405180830381600087803b15801561236457600080fd5b505af1158015612378573d6000803e3d6000fd5b50505050808061238790614408565b9150506122a6565b5060005b885181101561247c57600960009054906101000a900473ffffffffffffffffffffffffffffffffffffffff1673ffffffffffffffffffffffffffffffffffffffff166342842e0e8d600360009054906101000a900473ffffffffffffffffffffffffffffffffffffffff168c85815181106124115761241061448a565b5b60200260200101516040518463ffffffff1660e01b815260040161243793929190613bc1565b600060405180830381600087803b15801561245157600080fd5b505af1158015612465573d6000803e3d6000fd5b50505050808061247490614408565b915050612393565b508a73ffffffffffffffffffffffffffffffffffffffff167fb15836b235dcb968246b85500cc1783f2d3164129c2f7e245b7d186e27979d458b8b8a8a6040516124c99493929190613c28565b60405180910390a25050505050505050505050565b7fb25204f76d43ee9f388205df62a602b1300ebf14848f8a5f1bc8500c4932015781565b60003373ffffffffffffffffffffffffffffffffffffffff168a73ffffffffffffffffffffffffffffffffffffffff1614612572576040517f08c379a00000000000000000000000000000000000000000000000000000000081526004016125699061404c565b60405180910390fd5b4287116125b4576040517f08c379a00000000000000000000000000000000000000000000000000000000081526004016125ab90613fac565b60405180910390fd5b600b60008b73ffffffffffffffffffffffffffffffffffffffff1673ffffffffffffffffffffffffffffffffffffffff168152602001908152602001600020548614612635576040517f08c379a000000000000000000000000000000000000000000000000000000000815260040161262c9061402c565b60405180910390fd5b60006126927fb25204f76d43ee9f388205df62a602b1300ebf14848f8a5f1bc8500c493201578c8c8c8c8c8c6040516020016126779796959493929190613e12565b60405160208183030381529060405280519060200120612b49565b90506000600182878787604051600081526020016040526040516126b99493929190613ed4565b6020604051602081039080840390855afa1580156126db573d6000803e3d6000fd5b505050602060405103519050600a60009054906101000a900473ffffffffffffffffffffffffffffffffffffffff1673ffffffffffffffffffffffffffffffffffffffff168173ffffffffffffffffffffffffffffffffffffffff1614612777576040517f08c379a000000000000000000000000000000000000000000000000000000000815260040161276e906140ac565b60405180910390fd5b600b60008d73ffffffffffffffffffffffffffffffffffffffff1673ffffffffffffffffffffffffffffffffffffffff16815260200190815260200160002060008154809291906127c790614408565b919050555060038760ff1614156128915760008b1161281b576040517f08c379a000000000000000000000000000000000000000000000000000000000815260040161281290613fec565b60405180910390fd5b61288c8c600360009054906101000a900473ffffffffffffffffffffffffffffffffffffffff168d600760009054906101000a900473ffffffffffffffffffffffffffffffffffffffff1673ffffffffffffffffffffffffffffffffffffffff16612b63909392919063ffffffff16565b612a12565b60068760ff161415612a115760008b10156128e1576040517f08c379a00000000000000000000000000000000000000000000000000000000081526004016128d89061408c565b60405180910390fd5b60008a11612924576040517f08c379a000000000000000000000000000000000000000000000000000000000815260040161291b90613f8c565b60405180910390fd5b60008b111561299f5761299e8c600360009054906101000a900473ffffffffffffffffffffffffffffffffffffffff168d600460009054906101000a900473ffffffffffffffffffffffffffffffffffffffff1673ffffffffffffffffffffffffffffffffffffffff16612b63909392919063ffffffff16565b5b612a108c600360009054906101000a900473ffffffffffffffffffffffffffffffffffffffff168c600660009054906101000a900473ffffffffffffffffffffffffffffffffffffffff1673ffffffffffffffffffffffffffffffffffffffff16612b63909392919063ffffffff16565b5b5b8b73ffffffffffffffffffffffffffffffffffffffff167fbc2263f98de26546e651b33764c2f8166048039e90aad0a35bafde8d6b81bea58c8c8c8c8c604051612a6095949392919061416c565b60405180910390a26001925050509998505050505050505050565b7fbe1e1c7f64bb0f829d9c28407669da5ed36dd43eff7437e8ab88053e635f03a581565b612aa7612bec565b600073ffffffffffffffffffffffffffffffffffffffff168173ffffffffffffffffffffffffffffffffffffffff161415612b17576040517f08c379a0000000000000000000000000000000000000000000000000000000008152600401612b0e90613fcc565b60405180910390fd5b612b2081612c6a565b50565b600260009054906101000a900473ffffffffffffffffffffffffffffffffffffffff1681565b6000612b5c612b56612d2e565b83612e48565b9050919050565b612be6846323b872dd60e01b858585604051602401612b8493929190613bc1565b604051602081830303815290604052907bffffffffffffffffffffffffffffffffffffffffffffffffffffffff19166020820180517bffffffffffffffffffffffffffffffffffffffffffffffffffffffff8381831617835250505050612e7b565b50505050565b612bf4612f42565b73ffffffffffffffffffffffffffffffffffffffff16612c126116b0565b73ffffffffffffffffffffffffffffffffffffffff1614612c68576040517f08c379a0000000000000000000000000000000000000000000000000000000008152600401612c5f9061406c565b60405180910390fd5b565b60008060009054906101000a900473ffffffffffffffffffffffffffffffffffffffff169050816000806101000a81548173ffffffffffffffffffffffffffffffffffffffff021916908373ffffffffffffffffffffffffffffffffffffffff1602179055508173ffffffffffffffffffffffffffffffffffffffff168173ffffffffffffffffffffffffffffffffffffffff167f8be0079c531659141344cd1fd0a4f28419497f9722a3daafe3b4186f6b6457e060405160405180910390a35050565b60007f000000000000000000000000000000000000000000000000000000000000000073ffffffffffffffffffffffffffffffffffffffff163073ffffffffffffffffffffffffffffffffffffffff16148015612daa57507f000000000000000000000000000000000000000000000000000000000000000046145b15612dd7577f00000000000000000000000000000000000000000000000000000000000000009050612e45565b612e427f00000000000000000000000000000000000000000000000000000000000000007f00000000000000000000000000000000000000000000000000000000000000007f0000000000000000000000000000000000000000000000000000000000000000612f4a565b90505b90565b60008282604051602001612e5d929190613b6f565b60405160208183030381529060405280519060200120905092915050565b6000612edd826040518060400160405280602081526020017f5361666545524332303a206c6f772d6c6576656c2063616c6c206661696c65648152508573ffffffffffffffffffffffffffffffffffffffff16612f849092919063ffffffff16565b9050600081511115612f3d5780806020019051810190612efd919061374a565b612f3c576040517f08c379a0000000000000000000000000000000000000000000000000000000008152600401612f33906140ec565b60405180910390fd5b5b505050565b600033905090565b60008383834630604051602001612f65959493929190613e81565b6040516020818303038152906040528051906020012090509392505050565b6060612f938484600085612f9c565b90509392505050565b606082471015612fe1576040517f08c379a0000000000000000000000000000000000000000000000000000000008152600401612fd89061400c565b60405180910390fd5b612fea856130b0565b613029576040517f08c379a0000000000000000000000000000000000000000000000000000000008152600401613020906140cc565b60405180910390fd5b6000808673ffffffffffffffffffffffffffffffffffffffff1685876040516130529190613b58565b60006040518083038185875af1925050503d806000811461308f576040519150601f19603f3d011682016040523d82523d6000602084013e613094565b606091505b50915091506130a48282866130d3565b92505050949350505050565b6000808273ffffffffffffffffffffffffffffffffffffffff163b119050919050565b606083156130e357829050613133565b6000835111156130f65782518084602001fd5b816040517f08c379a000000000000000000000000000000000000000000000000000000000815260040161312a9190613f6a565b60405180910390fd5b9392505050565b600061314d613148846141e4565b6141bf565b905080838252602082019050828560208602820111156131705761316f6144ed565b5b60005b858110156131a057816131868882613287565b845260208401935060208301925050600181019050613173565b5050509392505050565b60006131bd6131b884614210565b6141bf565b9050828152602081018484840111156131d9576131d86144f2565b5b6131e4848285614395565b509392505050565b6000813590506131fb81614799565b92915050565b600082601f830112613216576132156144e8565b5b813561322684826020860161313a565b91505092915050565b60008151905061323e816147b0565b92915050565b600081359050613253816147c7565b92915050565b600082601f83011261326e5761326d6144e8565b5b813561327e8482602086016131aa565b91505092915050565b600081359050613296816147de565b92915050565b6000813590506132ab816147f5565b92915050565b6000602082840312156132c7576132c66144fc565b5b60006132d5848285016131ec565b91505092915050565b60008060008060008060c087890312156132fb576132fa6144fc565b5b600061330989828a016131ec565b965050602061331a89828a016131ec565b955050604061332b89828a016131ec565b945050606061333c89828a016131ec565b935050608061334d89828a016131ec565b92505060a061335e89828a016131ec565b9150509295509295509295565b60008060008060808587031215613385576133846144fc565b5b6000613393878288016131ec565b94505060206133a4878288016131ec565b93505060406133b587828801613287565b925050606085013567ffffffffffffffff8111156133d6576133d56144f7565b5b6133e287828801613259565b91505092959194509250565b60008060008060008060008060006101208a8c031215613411576134106144fc565b5b600061341f8c828d016131ec565b99505060208a013567ffffffffffffffff8111156134405761343f6144f7565b5b61344c8c828d01613201565b98505060408a013567ffffffffffffffff81111561346d5761346c6144f7565b5b6134798c828d01613201565b97505060608a013567ffffffffffffffff81111561349a576134996144f7565b5b6134a68c828d01613201565b96505060806134b78c828d01613287565b95505060a06134c88c828d01613287565b94505060c06134d98c828d0161329c565b93505060e06134ea8c828d01613244565b9250506101006134fc8c828d01613244565b9150509295985092959850929598565b600080600080600080600060e0888a03121561352b5761352a6144fc565b5b60006135398a828b016131ec565b975050602088013567ffffffffffffffff81111561355a576135596144f7565b5b6135668a828b01613201565b96505060406135778a828b01613287565b95505060606135888a828b01613287565b94505060806135998a828b0161329c565b93505060a06135aa8a828b01613244565b92505060c06135bb8a828b01613244565b91505092959891949750929550565b600080600080600080600080610100898b0312156135eb576135ea6144fc565b5b60006135f98b828c016131ec565b985050602061360a8b828c01613287565b975050604061361b8b828c01613287565b965050606061362c8b828c01613287565b955050608061363d8b828c01613287565b94505060a061364e8b828c0161329c565b93505060c061365f8b828c01613244565b92505060e06136708b828c01613244565b9150509295985092959890939650565b60008060008060008060008060006101208a8c0312156136a3576136a26144fc565b5b60006136b18c828d016131ec565b99505060206136c28c828d01613287565b98505060406136d38c828d01613287565b97505060606136e48c828d01613287565b96505060806136f58c828d01613287565b95505060a06137068c828d0161329c565b94505060c06137178c828d0161329c565b93505060e06137288c828d01613244565b92505061010061373a8c828d01613244565b9150509295985092959850929598565b6000602082840312156137605761375f6144fc565b5b600061376e8482850161322f565b91505092915050565b60006137838383613b05565b60208301905092915050565b600061379b8383613b23565b60208301905092915050565b6137b0816142c2565b82525050565b60006137c182614251565b6137cb818561427f565b93506137d683614241565b8060005b838110156138075781516137ee8882613777565b97506137f983614272565b9250506001810190506137da565b5085935050505092915050565b600061381f82614251565b6138298185614290565b935061383483614241565b8060005b8381101561386557815161384c888261378f565b975061385783614272565b925050600181019050613838565b5085935050505092915050565b61387b816142d4565b82525050565b61388a816142e0565b82525050565b6138a161389c826142e0565b614451565b82525050565b6138b0816142ea565b82525050565b60006138c18261425c565b6138cb818561429b565b93506138db8185602086016143a4565b80840191505092915050565b6138f08161434d565b82525050565b6138ff8161435f565b82525050565b600061391082614267565b61391a81856142a6565b935061392a8185602086016143a4565b61393381614501565b840191505092915050565b600061394b6010836142a6565b915061395682614512565b602082019050919050565b600061396e600d836142a6565b91506139798261453b565b602082019050919050565b60006139916026836142a6565b915061399c82614564565b604082019050919050565b60006139b46010836142a6565b91506139bf826145b3565b602082019050919050565b60006139d76002836142b7565b91506139e2826145dc565b600282019050919050565b60006139fa6026836142a6565b9150613a0582614605565b604082019050919050565b6000613a1d6010836142a6565b9150613a2882614654565b602082019050919050565b6000613a40600a836142a6565b9150613a4b8261467d565b602082019050919050565b6000613a636020836142a6565b9150613a6e826146a6565b602082019050919050565b6000613a866010836142a6565b9150613a91826146cf565b602082019050919050565b6000613aa9600b836142a6565b9150613ab4826146f8565b602082019050919050565b6000613acc601d836142a6565b9150613ad782614721565b602082019050919050565b6000613aef602a836142a6565b9150613afa8261474a565b604082019050919050565b613b0e81614336565b82525050565b613b1d81614336565b82525050565b613b2c81614336565b82525050565b613b3b81614340565b82525050565b6000613b4d8284613814565b915081905092915050565b6000613b6482846138b6565b915081905092915050565b6000613b7a826139ca565b9150613b868285613890565b602082019150613b968284613890565b6020820191508190509392505050565b6000602082019050613bbb60008301846137a7565b92915050565b6000606082019050613bd660008301866137a7565b613be360208301856137a7565b613bf06040830184613b14565b949350505050565b6000604082019050613c0d60008301856137a7565b8181036020830152613c1f81846137b6565b90509392505050565b60006080820190508181036000830152613c4281876137b6565b90508181036020830152613c5681866137b6565b9050613c656040830185613b14565b613c726060830184613b14565b95945050505050565b60006060820190508181036000830152613c9581866137b6565b9050613ca46020830185613b14565b613cb16040830184613b14565b949350505050565b6000602082019050613cce6000830184613872565b92915050565b6000602082019050613ce96000830184613881565b92915050565b600060e082019050613d04600083018a613881565b613d1160208301896137a7565b613d1e6040830188613881565b613d2b6060830187613881565b613d386080830186613881565b613d4560a0830185613b14565b613d5260c0830184613b14565b98975050505050505050565b600060a082019050613d736000830188613881565b613d8060208301876137a7565b613d8d6040830186613881565b613d9a6060830185613b14565b613da76080830184613b14565b9695505050505050565b600060c082019050613dc66000830189613881565b613dd360208301886137a7565b613de06040830187613b14565b613ded6060830186613b14565b613dfa6080830185613b14565b613e0760a0830184613b14565b979650505050505050565b600060e082019050613e27600083018a613881565b613e3460208301896137a7565b613e416040830188613b14565b613e4e6060830187613b14565b613e5b6080830186613b14565b613e6860a0830185613b14565b613e7560c0830184613b32565b98975050505050505050565b600060a082019050613e966000830188613881565b613ea36020830187613881565b613eb06040830186613881565b613ebd6060830185613b14565b613eca60808301846137a7565b9695505050505050565b6000608082019050613ee96000830187613881565b613ef66020830186613b32565b613f036040830185613881565b613f106060830184613881565b95945050505050565b6000602082019050613f2e60008301846138a7565b92915050565b6000602082019050613f4960008301846138e7565b92915050565b6000602082019050613f6460008301846138f6565b92915050565b60006020820190508181036000830152613f848184613905565b905092915050565b60006020820190508181036000830152613fa58161393e565b9050919050565b60006020820190508181036000830152613fc581613961565b9050919050565b60006020820190508181036000830152613fe581613984565b9050919050565b60006020820190508181036000830152614005816139a7565b9050919050565b60006020820190508181036000830152614025816139ed565b9050919050565b6000602082019050818103600083015261404581613a10565b9050919050565b6000602082019050818103600083015261406581613a33565b9050919050565b6000602082019050818103600083015261408581613a56565b9050919050565b600060208201905081810360008301526140a581613a79565b9050919050565b600060208201905081810360008301526140c581613a9c565b9050919050565b600060208201905081810360008301526140e581613abf565b9050919050565b6000602082019050818103600083015261410581613ae2565b9050919050565b60006020820190506141216000830184613b14565b92915050565b600060808201905061413c6000830187613b14565b6141496020830186613b14565b6141566040830185613b14565b6141636060830184613b14565b95945050505050565b600060a0820190506141816000830188613b14565b61418e6020830187613b14565b61419b6040830186613b14565b6141a86060830185613b14565b6141b56080830184613b32565b9695505050505050565b60006141c96141da565b90506141d582826143d7565b919050565b6000604051905090565b600067ffffffffffffffff8211156141ff576141fe6144b9565b5b602082029050602081019050919050565b600067ffffffffffffffff82111561422b5761422a6144b9565b5b61423482614501565b9050602081019050919050565b6000819050602082019050919050565b600081519050919050565b600081519050919050565b600081519050919050565b6000602082019050919050565b600082825260208201905092915050565b600081905092915050565b600081905092915050565b600082825260208201905092915050565b600081905092915050565b60006142cd82614316565b9050919050565b60008115159050919050565b6000819050919050565b60007fffffffff0000000000000000000000000000000000000000000000000000000082169050919050565b600073ffffffffffffffffffffffffffffffffffffffff82169050919050565b6000819050919050565b600060ff82169050919050565b600061435882614371565b9050919050565b600061436a82614371565b9050919050565b600061437c82614383565b9050919050565b600061438e82614316565b9050919050565b82818337600083830152505050565b60005b838110156143c25780820151818401526020810190506143a7565b838111156143d1576000848401525b50505050565b6143e082614501565b810181811067ffffffffffffffff821117156143ff576143fe6144b9565b5b80604052505050565b600061441382614336565b91507fffffffffffffffffffffffffffffffffffffffffffffffffffffffffffffffff8214156144465761444561445b565b5b600182019050919050565b6000819050919050565b7f4e487b7100000000000000000000000000000000000000000000000000000000600052601160045260246000fd5b7f4e487b7100000000000000000000000000000000000000000000000000000000600052603260045260246000fd5b7f4e487b7100000000000000000000000000000000000000000000000000000000600052604160045260246000fd5b600080fd5b600080fd5b600080fd5b600080fd5b600080fd5b6000601f19601f8301169050919050565b7f53435020616d6f756e74206572726f7200000000000000000000000000000000600082015250565b7f74696d6520657870697265642100000000000000000000000000000000000000600082015250565b7f4f776e61626c653a206e6577206f776e657220697320746865207a65726f206160008201527f6464726573730000000000000000000000000000000000000000000000000000602082015250565b7f4d4b5920616d6f756e74206572726f7200000000000000000000000000000000600082015250565b7f1901000000000000000000000000000000000000000000000000000000000000600082015250565b7f416464726573733a20696e73756666696369656e742062616c616e636520666f60008201527f722063616c6c0000000000000000000000000000000000000000000000000000602082015250565b7f75736572206e6f6e6365206572726f7200000000000000000000000000000000600082015250565b7f75736572206572726f7200000000000000000000000000000000000000000000600082015250565b7f4f776e61626c653a2063616c6c6572206973206e6f7420746865206f776e6572600082015250565b7f48424b20616d6f756e74206572726f7200000000000000000000000000000000600082015250565b7f7369676e206572726f7221000000000000000000000000000000000000000000600082015250565b7f416464726573733a2063616c6c20746f206e6f6e2d636f6e7472616374000000600082015250565b7f5361666545524332303a204552433230206f7065726174696f6e20646964206e60008201527f6f74207375636365656400000000000000000000000000000000000000000000602082015250565b6147a2816142c2565b81146147ad57600080fd5b50565b6147b9816142d4565b81146147c457600080fd5b50565b6147d0816142e0565b81146147db57600080fd5b50565b6147e781614336565b81146147f257600080fd5b50565b6147fe81614340565b811461480957600080fd5b5056fea26469706673582212200859c9d51258638b9ab294c687fe482971d32250249f468add391da43cfad25a64736f6c63430008070033",
      "opcodes": "PUSH2 0x140 PUSH1 0x40 MSTORE PUSH1 0x1 PUSH1 0x3 PUSH1 0x0 PUSH2 0x100 EXP DUP2 SLOAD DUP2 PUSH20 0xFFFFFFFFFFFFFFFFFFFFFFFFFFFFFFFFFFFFFFFF MUL NOT AND SWAP1 DUP4 PUSH20 0xFFFFFFFFFFFFFFFFFFFFFFFFFFFFFFFFFFFFFFFF AND MUL OR SWAP1 SSTORE POP CALLVALUE DUP1 ISZERO PUSH3 0x54 JUMPI PUSH1 0x0 DUP1 REVERT JUMPDEST POP PUSH1 0x40 MLOAD PUSH3 0x50F8 CODESIZE SUB DUP1 PUSH3 0x50F8 DUP4 CODECOPY DUP2 DUP2 ADD PUSH1 0x40 MSTORE DUP2 ADD SWAP1 PUSH3 0x7A SWAP2 SWAP1 PUSH3 0x620 JUMP JUMPDEST PUSH1 0x40 MLOAD DUP1 PUSH1 0x40 ADD PUSH1 0x40 MSTORE DUP1 PUSH1 0x6 DUP2 MSTORE PUSH1 0x20 ADD PUSH32 0x4D61726B65740000000000000000000000000000000000000000000000000000 DUP2 MSTORE POP PUSH1 0x40 MLOAD DUP1 PUSH1 0x40 ADD PUSH1 0x40 MSTORE DUP1 PUSH1 0x3 DUP2 MSTORE PUSH1 0x20 ADD PUSH32 0x312E300000000000000000000000000000000000000000000000000000000000 DUP2 MSTORE POP PUSH1 0x0 DUP3 DUP1 MLOAD SWAP1 PUSH1 0x20 ADD KECCAK256 SWAP1 POP PUSH1 0x0 DUP3 DUP1 MLOAD SWAP1 PUSH1 0x20 ADD KECCAK256 SWAP1 POP PUSH1 0x0 PUSH32 0x8B73C3C69BB8FE3D512ECC4CF759CC79239F7B179B0FFACAA9A75D522B39400F SWAP1 POP DUP3 PUSH1 0xE0 DUP2 DUP2 MSTORE POP POP DUP2 PUSH2 0x100 DUP2 DUP2 MSTORE POP POP CHAINID PUSH1 0xA0 DUP2 DUP2 MSTORE POP POP PUSH3 0x14F DUP2 DUP5 DUP5 PUSH3 0x201 PUSH1 0x20 SHL PUSH1 0x20 SHR JUMP JUMPDEST PUSH1 0x80 DUP2 DUP2 MSTORE POP POP ADDRESS PUSH20 0xFFFFFFFFFFFFFFFFFFFFFFFFFFFFFFFFFFFFFFFF AND PUSH1 0xC0 DUP2 PUSH20 0xFFFFFFFFFFFFFFFFFFFFFFFFFFFFFFFFFFFFFFFF AND PUSH1 0x60 SHL DUP2 MSTORE POP POP DUP1 PUSH2 0x120 DUP2 DUP2 MSTORE POP POP POP POP POP POP POP PUSH3 0x1BB PUSH3 0x1AF PUSH3 0x23D PUSH1 0x20 SHL PUSH1 0x20 SHR JUMP JUMPDEST PUSH3 0x245 PUSH1 0x20 SHL PUSH1 0x20 SHR JUMP JUMPDEST PUSH3 0x1D1 DUP9 DUP9 DUP9 DUP9 DUP9 DUP9 PUSH3 0x309 PUSH1 0x20 SHL PUSH1 0x20 SHR JUMP JUMPDEST PUSH3 0x1E2 DUP2 PUSH3 0x4A7 PUSH1 0x20 SHL PUSH1 0x20 SHR JUMP JUMPDEST PUSH3 0x1F3 DUP3 PUSH3 0x4FB PUSH1 0x20 SHL PUSH1 0x20 SHR JUMP JUMPDEST POP POP POP POP POP POP POP POP PUSH3 0x863 JUMP JUMPDEST PUSH1 0x0 DUP4 DUP4 DUP4 CHAINID ADDRESS PUSH1 0x40 MLOAD PUSH1 0x20 ADD PUSH3 0x21E SWAP6 SWAP5 SWAP4 SWAP3 SWAP2 SWAP1 PUSH3 0x743 JUMP JUMPDEST PUSH1 0x40 MLOAD PUSH1 0x20 DUP2 DUP4 SUB SUB DUP2 MSTORE SWAP1 PUSH1 0x40 MSTORE DUP1 MLOAD SWAP1 PUSH1 0x20 ADD KECCAK256 SWAP1 POP SWAP4 SWAP3 POP POP POP JUMP JUMPDEST PUSH1 0x0 CALLER SWAP1 POP SWAP1 JUMP JUMPDEST PUSH1 0x0 DUP1 PUSH1 0x0 SWAP1 SLOAD SWAP1 PUSH2 0x100 EXP SWAP1 DIV PUSH20 0xFFFFFFFFFFFFFFFFFFFFFFFFFFFFFFFFFFFFFFFF AND SWAP1 POP DUP2 PUSH1 0x0 DUP1 PUSH2 0x100 EXP DUP2 SLOAD DUP2 PUSH20 0xFFFFFFFFFFFFFFFFFFFFFFFFFFFFFFFFFFFFFFFF MUL NOT AND SWAP1 DUP4 PUSH20 0xFFFFFFFFFFFFFFFFFFFFFFFFFFFFFFFFFFFFFFFF AND MUL OR SWAP1 SSTORE POP DUP2 PUSH20 0xFFFFFFFFFFFFFFFFFFFFFFFFFFFFFFFFFFFFFFFF AND DUP2 PUSH20 0xFFFFFFFFFFFFFFFFFFFFFFFFFFFFFFFFFFFFFFFF AND PUSH32 0x8BE0079C531659141344CD1FD0A4F28419497F9722A3DAAFE3B4186F6B6457E0 PUSH1 0x40 MLOAD PUSH1 0x40 MLOAD DUP1 SWAP2 SUB SWAP1 LOG3 POP POP JUMP JUMPDEST PUSH3 0x319 PUSH3 0x54F PUSH1 0x20 SHL PUSH1 0x20 SHR JUMP JUMPDEST DUP6 PUSH1 0x4 PUSH1 0x0 PUSH2 0x100 EXP DUP2 SLOAD DUP2 PUSH20 0xFFFFFFFFFFFFFFFFFFFFFFFFFFFFFFFFFFFFFFFF MUL NOT AND SWAP1 DUP4 PUSH20 0xFFFFFFFFFFFFFFFFFFFFFFFFFFFFFFFFFFFFFFFF AND MUL OR SWAP1 SSTORE POP DUP5 PUSH1 0x5 PUSH1 0x0 PUSH2 0x100 EXP DUP2 SLOAD DUP2 PUSH20 0xFFFFFFFFFFFFFFFFFFFFFFFFFFFFFFFFFFFFFFFF MUL NOT AND SWAP1 DUP4 PUSH20 0xFFFFFFFFFFFFFFFFFFFFFFFFFFFFFFFFFFFFFFFF AND MUL OR SWAP1 SSTORE POP DUP4 PUSH1 0x6 PUSH1 0x0 PUSH2 0x100 EXP DUP2 SLOAD DUP2 PUSH20 0xFFFFFFFFFFFFFFFFFFFFFFFFFFFFFFFFFFFFFFFF MUL NOT AND SWAP1 DUP4 PUSH20 0xFFFFFFFFFFFFFFFFFFFFFFFFFFFFFFFFFFFFFFFF AND MUL OR SWAP1 SSTORE POP DUP3 PUSH1 0x7 PUSH1 0x0 PUSH2 0x100 EXP DUP2 SLOAD DUP2 PUSH20 0xFFFFFFFFFFFFFFFFFFFFFFFFFFFFFFFFFFFFFFFF MUL NOT AND SWAP1 DUP4 PUSH20 0xFFFFFFFFFFFFFFFFFFFFFFFFFFFFFFFFFFFFFFFF AND MUL OR SWAP1 SSTORE POP DUP2 PUSH1 0x8 PUSH1 0x0 PUSH2 0x100 EXP DUP2 SLOAD DUP2 PUSH20 0xFFFFFFFFFFFFFFFFFFFFFFFFFFFFFFFFFFFFFFFF MUL NOT AND SWAP1 DUP4 PUSH20 0xFFFFFFFFFFFFFFFFFFFFFFFFFFFFFFFFFFFFFFFF AND MUL OR SWAP1 SSTORE POP DUP1 PUSH1 0x9 PUSH1 0x0 PUSH2 0x100 EXP DUP2 SLOAD DUP2 PUSH20 0xFFFFFFFFFFFFFFFFFFFFFFFFFFFFFFFFFFFFFFFF MUL NOT AND SWAP1 DUP4 PUSH20 0xFFFFFFFFFFFFFFFFFFFFFFFFFFFFFFFFFFFFFFFF AND MUL OR SWAP1 SSTORE POP POP POP POP POP POP POP JUMP JUMPDEST PUSH3 0x4B7 PUSH3 0x54F PUSH1 0x20 SHL PUSH1 0x20 SHR JUMP JUMPDEST DUP1 PUSH1 0xA PUSH1 0x0 PUSH2 0x100 EXP DUP2 SLOAD DUP2 PUSH20 0xFFFFFFFFFFFFFFFFFFFFFFFFFFFFFFFFFFFFFFFF MUL NOT AND SWAP1 DUP4 PUSH20 0xFFFFFFFFFFFFFFFFFFFFFFFFFFFFFFFFFFFFFFFF AND MUL OR SWAP1 SSTORE POP POP JUMP JUMPDEST PUSH3 0x50B PUSH3 0x54F PUSH1 0x20 SHL PUSH1 0x20 SHR JUMP JUMPDEST DUP1 PUSH1 0x1 PUSH1 0x0 PUSH2 0x100 EXP DUP2 SLOAD DUP2 PUSH20 0xFFFFFFFFFFFFFFFFFFFFFFFFFFFFFFFFFFFFFFFF MUL NOT AND SWAP1 DUP4 PUSH20 0xFFFFFFFFFFFFFFFFFFFFFFFFFFFFFFFFFFFFFFFF AND MUL OR SWAP1 SSTORE POP POP JUMP JUMPDEST PUSH3 0x55F PUSH3 0x23D PUSH1 0x20 SHL PUSH1 0x20 SHR JUMP JUMPDEST PUSH20 0xFFFFFFFFFFFFFFFFFFFFFFFFFFFFFFFFFFFFFFFF AND PUSH3 0x585 PUSH3 0x5E0 PUSH1 0x20 SHL PUSH1 0x20 SHR JUMP JUMPDEST PUSH20 0xFFFFFFFFFFFFFFFFFFFFFFFFFFFFFFFFFFFFFFFF AND EQ PUSH3 0x5DE JUMPI PUSH1 0x40 MLOAD PUSH32 0x8C379A000000000000000000000000000000000000000000000000000000000 DUP2 MSTORE PUSH1 0x4 ADD PUSH3 0x5D5 SWAP1 PUSH3 0x7A0 JUMP JUMPDEST PUSH1 0x40 MLOAD DUP1 SWAP2 SUB SWAP1 REVERT JUMPDEST JUMP JUMPDEST PUSH1 0x0 DUP1 PUSH1 0x0 SWAP1 SLOAD SWAP1 PUSH2 0x100 EXP SWAP1 DIV PUSH20 0xFFFFFFFFFFFFFFFFFFFFFFFFFFFFFFFFFFFFFFFF AND SWAP1 POP SWAP1 JUMP JUMPDEST PUSH1 0x0 DUP2 MLOAD SWAP1 POP PUSH3 0x61A DUP2 PUSH3 0x849 JUMP JUMPDEST SWAP3 SWAP2 POP POP JUMP JUMPDEST PUSH1 0x0 DUP1 PUSH1 0x0 DUP1 PUSH1 0x0 DUP1 PUSH1 0x0 DUP1 PUSH2 0x100 DUP10 DUP12 SUB SLT ISZERO PUSH3 0x644 JUMPI PUSH3 0x643 PUSH3 0x81B JUMP JUMPDEST JUMPDEST PUSH1 0x0 PUSH3 0x654 DUP12 DUP3 DUP13 ADD PUSH3 0x609 JUMP JUMPDEST SWAP9 POP POP PUSH1 0x20 PUSH3 0x667 DUP12 DUP3 DUP13 ADD PUSH3 0x609 JUMP JUMPDEST SWAP8 POP POP PUSH1 0x40 PUSH3 0x67A DUP12 DUP3 DUP13 ADD PUSH3 0x609 JUMP JUMPDEST SWAP7 POP POP PUSH1 0x60 PUSH3 0x68D DUP12 DUP3 DUP13 ADD PUSH3 0x609 JUMP JUMPDEST SWAP6 POP POP PUSH1 0x80 PUSH3 0x6A0 DUP12 DUP3 DUP13 ADD PUSH3 0x609 JUMP JUMPDEST SWAP5 POP POP PUSH1 0xA0 PUSH3 0x6B3 DUP12 DUP3 DUP13 ADD PUSH3 0x609 JUMP JUMPDEST SWAP4 POP POP PUSH1 0xC0 PUSH3 0x6C6 DUP12 DUP3 DUP13 ADD PUSH3 0x609 JUMP JUMPDEST SWAP3 POP POP PUSH1 0xE0 PUSH3 0x6D9 DUP12 DUP3 DUP13 ADD PUSH3 0x609 JUMP JUMPDEST SWAP2 POP POP SWAP3 SWAP6 SWAP9 POP SWAP3 SWAP6 SWAP9 SWAP1 SWAP4 SWAP7 POP JUMP JUMPDEST PUSH3 0x6F4 DUP2 PUSH3 0x7D3 JUMP JUMPDEST DUP3 MSTORE POP POP JUMP JUMPDEST PUSH3 0x705 DUP2 PUSH3 0x7E7 JUMP JUMPDEST DUP3 MSTORE POP POP JUMP JUMPDEST PUSH1 0x0 PUSH3 0x71A PUSH1 0x20 DUP4 PUSH3 0x7C2 JUMP JUMPDEST SWAP2 POP PUSH3 0x727 DUP3 PUSH3 0x820 JUMP JUMPDEST PUSH1 0x20 DUP3 ADD SWAP1 POP SWAP2 SWAP1 POP JUMP JUMPDEST PUSH3 0x73D DUP2 PUSH3 0x811 JUMP JUMPDEST DUP3 MSTORE POP POP JUMP JUMPDEST PUSH1 0x0 PUSH1 0xA0 DUP3 ADD SWAP1 POP PUSH3 0x75A PUSH1 0x0 DUP4 ADD DUP9 PUSH3 0x6FA JUMP JUMPDEST PUSH3 0x769 PUSH1 0x20 DUP4 ADD DUP8 PUSH3 0x6FA JUMP JUMPDEST PUSH3 0x778 PUSH1 0x40 DUP4 ADD DUP7 PUSH3 0x6FA JUMP JUMPDEST PUSH3 0x787 PUSH1 0x60 DUP4 ADD DUP6 PUSH3 0x732 JUMP JUMPDEST PUSH3 0x796 PUSH1 0x80 DUP4 ADD DUP5 PUSH3 0x6E9 JUMP JUMPDEST SWAP7 SWAP6 POP POP POP POP POP POP JUMP JUMPDEST PUSH1 0x0 PUSH1 0x20 DUP3 ADD SWAP1 POP DUP2 DUP2 SUB PUSH1 0x0 DUP4 ADD MSTORE PUSH3 0x7BB DUP2 PUSH3 0x70B JUMP JUMPDEST SWAP1 POP SWAP2 SWAP1 POP JUMP JUMPDEST PUSH1 0x0 DUP3 DUP3 MSTORE PUSH1 0x20 DUP3 ADD SWAP1 POP SWAP3 SWAP2 POP POP JUMP JUMPDEST PUSH1 0x0 PUSH3 0x7E0 DUP3 PUSH3 0x7F1 JUMP JUMPDEST SWAP1 POP SWAP2 SWAP1 POP JUMP JUMPDEST PUSH1 0x0 DUP2 SWAP1 POP SWAP2 SWAP1 POP JUMP JUMPDEST PUSH1 0x0 PUSH20 0xFFFFFFFFFFFFFFFFFFFFFFFFFFFFFFFFFFFFFFFF DUP3 AND SWAP1 POP SWAP2 SWAP1 POP JUMP JUMPDEST PUSH1 0x0 DUP2 SWAP1 POP SWAP2 SWAP1 POP JUMP JUMPDEST PUSH1 0x0 DUP1 REVERT JUMPDEST PUSH32 0x4F776E61626C653A2063616C6C6572206973206E6F7420746865206F776E6572 PUSH1 0x0 DUP3 ADD MSTORE POP JUMP JUMPDEST PUSH3 0x854 DUP2 PUSH3 0x7D3 JUMP JUMPDEST DUP2 EQ PUSH3 0x860 JUMPI PUSH1 0x0 DUP1 REVERT JUMPDEST POP JUMP JUMPDEST PUSH1 0x80 MLOAD PUSH1 0xA0 MLOAD PUSH1 0xC0 MLOAD PUSH1 0x60 SHR PUSH1 0xE0 MLOAD PUSH2 0x100 MLOAD PUSH2 0x120 MLOAD PUSH2 0x4842 PUSH3 0x8B6 PUSH1 0x0 CODECOPY PUSH1 0x0 PUSH2 0x2DDC ADD MSTORE PUSH1 0x0 PUSH2 0x2E1E ADD MSTORE PUSH1 0x0 PUSH2 0x2DFD ADD MSTORE PUSH1 0x0 PUSH2 0x2D32 ADD MSTORE PUSH1 0x0 PUSH2 0x2D88 ADD MSTORE PUSH1 0x0 PUSH2 0x2DB1 ADD MSTORE PUSH2 0x4842 PUSH1 0x0 RETURN INVALID PUSH1 0x80 PUSH1 0x40 MSTORE CALLVALUE DUP1 ISZERO PUSH2 0x10 JUMPI PUSH1 0x0 DUP1 REVERT JUMPDEST POP PUSH1 0x4 CALLDATASIZE LT PUSH2 0x1FA JUMPI PUSH1 0x0 CALLDATALOAD PUSH1 0xE0 SHR DUP1 PUSH4 0x7ECEBE00 GT PUSH2 0x11A JUMPI DUP1 PUSH4 0xBDE0DB7E GT PUSH2 0xAD JUMPI DUP1 PUSH4 0xD4919489 GT PUSH2 0x7C JUMPI DUP1 PUSH4 0xD4919489 EQ PUSH2 0x545 JUMPI DUP1 PUSH4 0xD6F4B140 EQ PUSH2 0x563 JUMPI DUP1 PUSH4 0xDD4B9992 EQ PUSH2 0x593 JUMPI DUP1 PUSH4 0xF2FDE38B EQ PUSH2 0x5B1 JUMPI DUP1 PUSH4 0xF95436EA EQ PUSH2 0x5CD JUMPI PUSH2 0x1FA JUMP JUMPDEST DUP1 PUSH4 0xBDE0DB7E EQ PUSH2 0x4D1 JUMPI DUP1 PUSH4 0xBF6165FF EQ PUSH2 0x4EF JUMPI DUP1 PUSH4 0xC8A4D023 EQ PUSH2 0x50B JUMPI DUP1 PUSH4 0xC9F63D39 EQ PUSH2 0x529 JUMPI PUSH2 0x1FA JUMP JUMPDEST DUP1 PUSH4 0x95CD376F GT PUSH2 0xE9 JUMPI DUP1 PUSH4 0x95CD376F EQ PUSH2 0x45B JUMPI DUP1 PUSH4 0x9E8344F6 EQ PUSH2 0x479 JUMPI DUP1 PUSH4 0xA01612C4 EQ PUSH2 0x495 JUMPI DUP1 PUSH4 0xA868708A EQ PUSH2 0x4B3 JUMPI PUSH2 0x1FA JUMP JUMPDEST DUP1 PUSH4 0x7ECEBE00 EQ PUSH2 0x3D1 JUMPI DUP1 PUSH4 0x89C56862 EQ PUSH2 0x401 JUMPI DUP1 PUSH4 0x8DA5CB5B EQ PUSH2 0x41F JUMPI DUP1 PUSH4 0x928C9CAF EQ PUSH2 0x43D JUMPI PUSH2 0x1FA JUMP JUMPDEST DUP1 PUSH4 0x22B54340 GT PUSH2 0x192 JUMPI DUP1 PUSH4 0x66D003AC GT PUSH2 0x161 JUMPI DUP1 PUSH4 0x66D003AC EQ PUSH2 0x36F JUMPI DUP1 PUSH4 0x6D0B06B4 EQ PUSH2 0x38D JUMPI DUP1 PUSH4 0x6FC0F5D7 EQ PUSH2 0x3A9 JUMPI DUP1 PUSH4 0x715018A6 EQ PUSH2 0x3C7 JUMPI PUSH2 0x1FA JUMP JUMPDEST DUP1 PUSH4 0x22B54340 EQ PUSH2 0x2FB JUMPI DUP1 PUSH4 0x3408E470 EQ PUSH2 0x319 JUMPI DUP1 PUSH4 0x3BBED4A0 EQ PUSH2 0x337 JUMPI DUP1 PUSH4 0x4C10E8BE EQ PUSH2 0x353 JUMPI PUSH2 0x1FA JUMP JUMPDEST DUP1 PUSH4 0xE089EE4 GT PUSH2 0x1CE JUMPI DUP1 PUSH4 0xE089EE4 EQ PUSH2 0x275 JUMPI DUP1 PUSH4 0x150B7A02 EQ PUSH2 0x293 JUMPI DUP1 PUSH4 0x15137045 EQ PUSH2 0x2C3 JUMPI DUP1 PUSH4 0x1BFA0340 EQ PUSH2 0x2DF JUMPI PUSH2 0x1FA JUMP JUMPDEST DUP1 PUSH3 0xDE1218 EQ PUSH2 0x1FF JUMPI DUP1 PUSH4 0x682BDBC EQ PUSH2 0x21D JUMPI DUP1 PUSH4 0x930907B EQ PUSH2 0x23B JUMPI DUP1 PUSH4 0xB08D74C EQ PUSH2 0x259 JUMPI JUMPDEST PUSH1 0x0 DUP1 REVERT JUMPDEST PUSH2 0x207 PUSH2 0x5EB JUMP JUMPDEST PUSH1 0x40 MLOAD PUSH2 0x214 SWAP2 SWAP1 PUSH2 0x3CD4 JUMP JUMPDEST PUSH1 0x40 MLOAD DUP1 SWAP2 SUB SWAP1 RETURN JUMPDEST PUSH2 0x225 PUSH2 0x60F JUMP JUMPDEST PUSH1 0x40 MLOAD PUSH2 0x232 SWAP2 SWAP1 PUSH2 0x3BA6 JUMP JUMPDEST PUSH1 0x40 MLOAD DUP1 SWAP2 SUB SWAP1 RETURN JUMPDEST PUSH2 0x243 PUSH2 0x635 JUMP JUMPDEST PUSH1 0x40 MLOAD PUSH2 0x250 SWAP2 SWAP1 PUSH2 0x3BA6 JUMP JUMPDEST PUSH1 0x40 MLOAD DUP1 SWAP2 SUB SWAP1 RETURN JUMPDEST PUSH2 0x273 PUSH1 0x4 DUP1 CALLDATASIZE SUB DUP2 ADD SWAP1 PUSH2 0x26E SWAP2 SWAP1 PUSH2 0x35CA JUMP JUMPDEST PUSH2 0x65B JUMP JUMPDEST STOP JUMPDEST PUSH2 0x27D PUSH2 0xA35 JUMP JUMPDEST PUSH1 0x40 MLOAD PUSH2 0x28A SWAP2 SWAP1 PUSH2 0x3F34 JUMP JUMPDEST PUSH1 0x40 MLOAD DUP1 SWAP2 SUB SWAP1 RETURN JUMPDEST PUSH2 0x2AD PUSH1 0x4 DUP1 CALLDATASIZE SUB DUP2 ADD SWAP1 PUSH2 0x2A8 SWAP2 SWAP1 PUSH2 0x336B JUMP JUMPDEST PUSH2 0xA5B JUMP JUMPDEST PUSH1 0x40 MLOAD PUSH2 0x2BA SWAP2 SWAP1 PUSH2 0x3F19 JUMP JUMPDEST PUSH1 0x40 MLOAD DUP1 SWAP2 SUB SWAP1 RETURN JUMPDEST PUSH2 0x2DD PUSH1 0x4 DUP1 CALLDATASIZE SUB DUP2 ADD SWAP1 PUSH2 0x2D8 SWAP2 SWAP1 PUSH2 0x32B1 JUMP JUMPDEST PUSH2 0xA6F JUMP JUMPDEST STOP JUMPDEST PUSH2 0x2F9 PUSH1 0x4 DUP1 CALLDATASIZE SUB DUP2 ADD SWAP1 PUSH2 0x2F4 SWAP2 SWAP1 PUSH2 0x350C JUMP JUMPDEST PUSH2 0xABB JUMP JUMPDEST STOP JUMPDEST PUSH2 0x303 PUSH2 0xE91 JUMP JUMPDEST PUSH1 0x40 MLOAD PUSH2 0x310 SWAP2 SWAP1 PUSH2 0x3CD4 JUMP JUMPDEST PUSH1 0x40 MLOAD DUP1 SWAP2 SUB SWAP1 RETURN JUMPDEST PUSH2 0x321 PUSH2 0xEB5 JUMP JUMPDEST PUSH1 0x40 MLOAD PUSH2 0x32E SWAP2 SWAP1 PUSH2 0x410C JUMP JUMPDEST PUSH1 0x40 MLOAD DUP1 SWAP2 SUB SWAP1 RETURN JUMPDEST PUSH2 0x351 PUSH1 0x4 DUP1 CALLDATASIZE SUB DUP2 ADD SWAP1 PUSH2 0x34C SWAP2 SWAP1 PUSH2 0x32B1 JUMP JUMPDEST PUSH2 0xEBD JUMP JUMPDEST STOP JUMPDEST PUSH2 0x36D PUSH1 0x4 DUP1 CALLDATASIZE SUB DUP2 ADD SWAP1 PUSH2 0x368 SWAP2 SWAP1 PUSH2 0x32DE JUMP JUMPDEST PUSH2 0xF09 JUMP JUMPDEST STOP JUMPDEST PUSH2 0x377 PUSH2 0x109F JUMP JUMPDEST PUSH1 0x40 MLOAD PUSH2 0x384 SWAP2 SWAP1 PUSH2 0x3BA6 JUMP JUMPDEST PUSH1 0x40 MLOAD DUP1 SWAP2 SUB SWAP1 RETURN JUMPDEST PUSH2 0x3A7 PUSH1 0x4 DUP1 CALLDATASIZE SUB DUP2 ADD SWAP1 PUSH2 0x3A2 SWAP2 SWAP1 PUSH2 0x33EE JUMP JUMPDEST PUSH2 0x10C5 JUMP JUMPDEST STOP JUMPDEST PUSH2 0x3B1 PUSH2 0x163A JUMP JUMPDEST PUSH1 0x40 MLOAD PUSH2 0x3BE SWAP2 SWAP1 PUSH2 0x3F4F JUMP JUMPDEST PUSH1 0x40 MLOAD DUP1 SWAP2 SUB SWAP1 RETURN JUMPDEST PUSH2 0x3CF PUSH2 0x1660 JUMP JUMPDEST STOP JUMPDEST PUSH2 0x3EB PUSH1 0x4 DUP1 CALLDATASIZE SUB DUP2 ADD SWAP1 PUSH2 0x3E6 SWAP2 SWAP1 PUSH2 0x32B1 JUMP JUMPDEST PUSH2 0x1674 JUMP JUMPDEST PUSH1 0x40 MLOAD PUSH2 0x3F8 SWAP2 SWAP1 PUSH2 0x410C JUMP JUMPDEST PUSH1 0x40 MLOAD DUP1 SWAP2 SUB SWAP1 RETURN JUMPDEST PUSH2 0x409 PUSH2 0x168C JUMP JUMPDEST PUSH1 0x40 MLOAD PUSH2 0x416 SWAP2 SWAP1 PUSH2 0x3CD4 JUMP JUMPDEST PUSH1 0x40 MLOAD DUP1 SWAP2 SUB SWAP1 RETURN JUMPDEST PUSH2 0x427 PUSH2 0x16B0 JUMP JUMPDEST PUSH1 0x40 MLOAD PUSH2 0x434 SWAP2 SWAP1 PUSH2 0x3BA6 JUMP JUMPDEST PUSH1 0x40 MLOAD DUP1 SWAP2 SUB SWAP1 RETURN JUMPDEST PUSH2 0x445 PUSH2 0x16D9 JUMP JUMPDEST PUSH1 0x40 MLOAD PUSH2 0x452 SWAP2 SWAP1 PUSH2 0x3CD4 JUMP JUMPDEST PUSH1 0x40 MLOAD DUP1 SWAP2 SUB SWAP1 RETURN JUMPDEST PUSH2 0x463 PUSH2 0x16FD JUMP JUMPDEST PUSH1 0x40 MLOAD PUSH2 0x470 SWAP2 SWAP1 PUSH2 0x3F4F JUMP JUMPDEST PUSH1 0x40 MLOAD DUP1 SWAP2 SUB SWAP1 RETURN JUMPDEST PUSH2 0x493 PUSH1 0x4 DUP1 CALLDATASIZE SUB DUP2 ADD SWAP1 PUSH2 0x48E SWAP2 SWAP1 PUSH2 0x35CA JUMP JUMPDEST PUSH2 0x1723 JUMP JUMPDEST STOP JUMPDEST PUSH2 0x49D PUSH2 0x1AFD JUMP JUMPDEST PUSH1 0x40 MLOAD PUSH2 0x4AA SWAP2 SWAP1 PUSH2 0x3CD4 JUMP JUMPDEST PUSH1 0x40 MLOAD DUP1 SWAP2 SUB SWAP1 RETURN JUMPDEST PUSH2 0x4BB PUSH2 0x1B21 JUMP JUMPDEST PUSH1 0x40 MLOAD PUSH2 0x4C8 SWAP2 SWAP1 PUSH2 0x3F34 JUMP JUMPDEST PUSH1 0x40 MLOAD DUP1 SWAP2 SUB SWAP1 RETURN JUMPDEST PUSH2 0x4D9 PUSH2 0x1B47 JUMP JUMPDEST PUSH1 0x40 MLOAD PUSH2 0x4E6 SWAP2 SWAP1 PUSH2 0x3F34 JUMP JUMPDEST PUSH1 0x40 MLOAD DUP1 SWAP2 SUB SWAP1 RETURN JUMPDEST PUSH2 0x509 PUSH1 0x4 DUP1 CALLDATASIZE SUB DUP2 ADD SWAP1 PUSH2 0x504 SWAP2 SWAP1 PUSH2 0x350C JUMP JUMPDEST PUSH2 0x1B6D JUMP JUMPDEST STOP JUMPDEST PUSH2 0x513 PUSH2 0x1F43 JUMP JUMPDEST PUSH1 0x40 MLOAD PUSH2 0x520 SWAP2 SWAP1 PUSH2 0x3F34 JUMP JUMPDEST PUSH1 0x40 MLOAD DUP1 SWAP2 SUB SWAP1 RETURN JUMPDEST PUSH2 0x543 PUSH1 0x4 DUP1 CALLDATASIZE SUB DUP2 ADD SWAP1 PUSH2 0x53E SWAP2 SWAP1 PUSH2 0x33EE JUMP JUMPDEST PUSH2 0x1F69 JUMP JUMPDEST STOP JUMPDEST PUSH2 0x54D PUSH2 0x24DE JUMP JUMPDEST PUSH1 0x40 MLOAD PUSH2 0x55A SWAP2 SWAP1 PUSH2 0x3CD4 JUMP JUMPDEST PUSH1 0x40 MLOAD DUP1 SWAP2 SUB SWAP1 RETURN JUMPDEST PUSH2 0x57D PUSH1 0x4 DUP1 CALLDATASIZE SUB DUP2 ADD SWAP1 PUSH2 0x578 SWAP2 SWAP1 PUSH2 0x3680 JUMP JUMPDEST PUSH2 0x2502 JUMP JUMPDEST PUSH1 0x40 MLOAD PUSH2 0x58A SWAP2 SWAP1 PUSH2 0x3CB9 JUMP JUMPDEST PUSH1 0x40 MLOAD DUP1 SWAP2 SUB SWAP1 RETURN JUMPDEST PUSH2 0x59B PUSH2 0x2A7B JUMP JUMPDEST PUSH1 0x40 MLOAD PUSH2 0x5A8 SWAP2 SWAP1 PUSH2 0x3CD4 JUMP JUMPDEST PUSH1 0x40 MLOAD DUP1 SWAP2 SUB SWAP1 RETURN JUMPDEST PUSH2 0x5CB PUSH1 0x4 DUP1 CALLDATASIZE SUB DUP2 ADD SWAP1 PUSH2 0x5C6 SWAP2 SWAP1 PUSH2 0x32B1 JUMP JUMPDEST PUSH2 0x2A9F JUMP JUMPDEST STOP JUMPDEST PUSH2 0x5D5 PUSH2 0x2B23 JUMP JUMPDEST PUSH1 0x40 MLOAD PUSH2 0x5E2 SWAP2 SWAP1 PUSH2 0x3BA6 JUMP JUMPDEST PUSH1 0x40 MLOAD DUP1 SWAP2 SUB SWAP1 RETURN JUMPDEST PUSH32 0xA87B9A23492251565BD9872D4D438E80AB14B4140B0127F7359A0A7089C07728 DUP2 JUMP JUMPDEST PUSH1 0xA PUSH1 0x0 SWAP1 SLOAD SWAP1 PUSH2 0x100 EXP SWAP1 DIV PUSH20 0xFFFFFFFFFFFFFFFFFFFFFFFFFFFFFFFFFFFFFFFF AND DUP2 JUMP JUMPDEST PUSH1 0x3 PUSH1 0x0 SWAP1 SLOAD SWAP1 PUSH2 0x100 EXP SWAP1 DIV PUSH20 0xFFFFFFFFFFFFFFFFFFFFFFFFFFFFFFFFFFFFFFFF AND DUP2 JUMP JUMPDEST CALLER PUSH20 0xFFFFFFFFFFFFFFFFFFFFFFFFFFFFFFFFFFFFFFFF AND DUP9 PUSH20 0xFFFFFFFFFFFFFFFFFFFFFFFFFFFFFFFFFFFFFFFF AND EQ PUSH2 0x6C9 JUMPI PUSH1 0x40 MLOAD PUSH32 0x8C379A000000000000000000000000000000000000000000000000000000000 DUP2 MSTORE PUSH1 0x4 ADD PUSH2 0x6C0 SWAP1 PUSH2 0x404C JUMP JUMPDEST PUSH1 0x40 MLOAD DUP1 SWAP2 SUB SWAP1 REVERT JUMPDEST TIMESTAMP DUP6 GT PUSH2 0x70B JUMPI PUSH1 0x40 MLOAD PUSH32 0x8C379A000000000000000000000000000000000000000000000000000000000 DUP2 MSTORE PUSH1 0x4 ADD PUSH2 0x702 SWAP1 PUSH2 0x3FAC JUMP JUMPDEST PUSH1 0x40 MLOAD DUP1 SWAP2 SUB SWAP1 REVERT JUMPDEST PUSH1 0xB PUSH1 0x0 DUP10 PUSH20 0xFFFFFFFFFFFFFFFFFFFFFFFFFFFFFFFFFFFFFFFF AND PUSH20 0xFFFFFFFFFFFFFFFFFFFFFFFFFFFFFFFFFFFFFFFF AND DUP2 MSTORE PUSH1 0x20 ADD SWAP1 DUP2 MSTORE PUSH1 0x20 ADD PUSH1 0x0 KECCAK256 SLOAD DUP5 EQ PUSH2 0x78C JUMPI PUSH1 0x40 MLOAD PUSH32 0x8C379A000000000000000000000000000000000000000000000000000000000 DUP2 MSTORE PUSH1 0x4 ADD PUSH2 0x783 SWAP1 PUSH2 0x402C JUMP JUMPDEST PUSH1 0x40 MLOAD DUP1 SWAP2 SUB SWAP1 REVERT JUMPDEST PUSH1 0x0 DUP7 GT PUSH2 0x7CF JUMPI PUSH1 0x40 MLOAD PUSH32 0x8C379A000000000000000000000000000000000000000000000000000000000 DUP2 MSTORE PUSH1 0x4 ADD PUSH2 0x7C6 SWAP1 PUSH2 0x3FEC JUMP JUMPDEST PUSH1 0x40 MLOAD DUP1 SWAP2 SUB SWAP1 REVERT JUMPDEST PUSH1 0x0 PUSH2 0x82A PUSH32 0xF6B84BA38C7B897280D3E80968DEFDA8152E43F5858EBC8D36282EF41A59F39B DUP11 DUP11 DUP11 DUP11 DUP11 PUSH1 0x40 MLOAD PUSH1 0x20 ADD PUSH2 0x80F SWAP7 SWAP6 SWAP5 SWAP4 SWAP3 SWAP2 SWAP1 PUSH2 0x3DB1 JUMP JUMPDEST PUSH1 0x40 MLOAD PUSH1 0x20 DUP2 DUP4 SUB SUB DUP2 MSTORE SWAP1 PUSH1 0x40 MSTORE DUP1 MLOAD SWAP1 PUSH1 0x20 ADD KECCAK256 PUSH2 0x2B49 JUMP JUMPDEST SWAP1 POP PUSH1 0x0 PUSH1 0x1 DUP3 DUP7 DUP7 DUP7 PUSH1 0x40 MLOAD PUSH1 0x0 DUP2 MSTORE PUSH1 0x20 ADD PUSH1 0x40 MSTORE PUSH1 0x40 MLOAD PUSH2 0x851 SWAP5 SWAP4 SWAP3 SWAP2 SWAP1 PUSH2 0x3ED4 JUMP JUMPDEST PUSH1 0x20 PUSH1 0x40 MLOAD PUSH1 0x20 DUP2 SUB SWAP1 DUP1 DUP5 SUB SWAP1 DUP6 GAS STATICCALL ISZERO DUP1 ISZERO PUSH2 0x873 JUMPI RETURNDATASIZE PUSH1 0x0 DUP1 RETURNDATACOPY RETURNDATASIZE PUSH1 0x0 REVERT JUMPDEST POP POP POP PUSH1 0x20 PUSH1 0x40 MLOAD SUB MLOAD SWAP1 POP PUSH1 0xA PUSH1 0x0 SWAP1 SLOAD SWAP1 PUSH2 0x100 EXP SWAP1 DIV PUSH20 0xFFFFFFFFFFFFFFFFFFFFFFFFFFFFFFFFFFFFFFFF AND PUSH20 0xFFFFFFFFFFFFFFFFFFFFFFFFFFFFFFFFFFFFFFFF AND DUP2 PUSH20 0xFFFFFFFFFFFFFFFFFFFFFFFFFFFFFFFFFFFFFFFF AND EQ PUSH2 0x90F JUMPI PUSH1 0x40 MLOAD PUSH32 0x8C379A000000000000000000000000000000000000000000000000000000000 DUP2 MSTORE PUSH1 0x4 ADD PUSH2 0x906 SWAP1 PUSH2 0x40AC JUMP JUMPDEST PUSH1 0x40 MLOAD DUP1 SWAP2 SUB SWAP1 REVERT JUMPDEST PUSH1 0xB PUSH1 0x0 DUP12 PUSH20 0xFFFFFFFFFFFFFFFFFFFFFFFFFFFFFFFFFFFFFFFF AND PUSH20 0xFFFFFFFFFFFFFFFFFFFFFFFFFFFFFFFFFFFFFFFF AND DUP2 MSTORE PUSH1 0x20 ADD SWAP1 DUP2 MSTORE PUSH1 0x20 ADD PUSH1 0x0 KECCAK256 PUSH1 0x0 DUP2 SLOAD DUP1 SWAP3 SWAP2 SWAP1 PUSH2 0x95F SWAP1 PUSH2 0x4408 JUMP JUMPDEST SWAP2 SWAP1 POP SSTORE POP PUSH2 0x9D5 DUP11 PUSH1 0x3 PUSH1 0x0 SWAP1 SLOAD SWAP1 PUSH2 0x100 EXP SWAP1 DIV PUSH20 0xFFFFFFFFFFFFFFFFFFFFFFFFFFFFFFFFFFFFFFFF AND DUP11 PUSH1 0x7 PUSH1 0x0 SWAP1 SLOAD SWAP1 PUSH2 0x100 EXP SWAP1 DIV PUSH20 0xFFFFFFFFFFFFFFFFFFFFFFFFFFFFFFFFFFFFFFFF AND PUSH20 0xFFFFFFFFFFFFFFFFFFFFFFFFFFFFFFFFFFFFFFFF AND PUSH2 0x2B63 SWAP1 SWAP4 SWAP3 SWAP2 SWAP1 PUSH4 0xFFFFFFFF AND JUMP JUMPDEST DUP10 PUSH20 0xFFFFFFFFFFFFFFFFFFFFFFFFFFFFFFFFFFFFFFFF AND PUSH32 0xF96905660DC8AF0E95A71E646A50286792BAA8D0845E1310938965D866A745C8 DUP11 DUP11 DUP11 DUP11 PUSH1 0x40 MLOAD PUSH2 0xA21 SWAP5 SWAP4 SWAP3 SWAP2 SWAP1 PUSH2 0x4127 JUMP JUMPDEST PUSH1 0x40 MLOAD DUP1 SWAP2 SUB SWAP1 LOG2 POP POP POP POP POP POP POP POP POP POP JUMP JUMPDEST PUSH1 0x6 PUSH1 0x0 SWAP1 SLOAD SWAP1 PUSH2 0x100 EXP SWAP1 DIV PUSH20 0xFFFFFFFFFFFFFFFFFFFFFFFFFFFFFFFFFFFFFFFF AND DUP2 JUMP JUMPDEST PUSH1 0x0 PUSH4 0x150B7A02 PUSH1 0xE0 SHL SWAP1 POP SWAP5 SWAP4 POP POP POP POP JUMP JUMPDEST PUSH2 0xA77 PUSH2 0x2BEC JUMP JUMPDEST DUP1 PUSH1 0xA PUSH1 0x0 PUSH2 0x100 EXP DUP2 SLOAD DUP2 PUSH20 0xFFFFFFFFFFFFFFFFFFFFFFFFFFFFFFFFFFFFFFFF MUL NOT AND SWAP1 DUP4 PUSH20 0xFFFFFFFFFFFFFFFFFFFFFFFFFFFFFFFFFFFFFFFF AND MUL OR SWAP1 SSTORE POP POP JUMP JUMPDEST CALLER PUSH20 0xFFFFFFFFFFFFFFFFFFFFFFFFFFFFFFFFFFFFFFFF AND DUP8 PUSH20 0xFFFFFFFFFFFFFFFFFFFFFFFFFFFFFFFFFFFFFFFF AND EQ PUSH2 0xB29 JUMPI PUSH1 0x40 MLOAD PUSH32 0x8C379A000000000000000000000000000000000000000000000000000000000 DUP2 MSTORE PUSH1 0x4 ADD PUSH2 0xB20 SWAP1 PUSH2 0x404C JUMP JUMPDEST PUSH1 0x40 MLOAD DUP1 SWAP2 SUB SWAP1 REVERT JUMPDEST TIMESTAMP DUP6 GT PUSH2 0xB6B JUMPI PUSH1 0x40 MLOAD PUSH32 0x8C379A000000000000000000000000000000000000000000000000000000000 DUP2 MSTORE PUSH1 0x4 ADD PUSH2 0xB62 SWAP1 PUSH2 0x3FAC JUMP JUMPDEST PUSH1 0x40 MLOAD DUP1 SWAP2 SUB SWAP1 REVERT JUMPDEST PUSH1 0xB PUSH1 0x0 DUP9 PUSH20 0xFFFFFFFFFFFFFFFFFFFFFFFFFFFFFFFFFFFFFFFF AND PUSH20 0xFFFFFFFFFFFFFFFFFFFFFFFFFFFFFFFFFFFFFFFF AND DUP2 MSTORE PUSH1 0x20 ADD SWAP1 DUP2 MSTORE PUSH1 0x20 ADD PUSH1 0x0 KECCAK256 SLOAD DUP5 EQ PUSH2 0xBEC JUMPI PUSH1 0x40 MLOAD PUSH32 0x8C379A000000000000000000000000000000000000000000000000000000000 DUP2 MSTORE PUSH1 0x4 ADD PUSH2 0xBE3 SWAP1 PUSH2 0x402C JUMP JUMPDEST PUSH1 0x40 MLOAD DUP1 SWAP2 SUB SWAP1 REVERT JUMPDEST PUSH1 0x0 PUSH2 0xC6B PUSH32 0x820DE84EF4DD0FCB267C9A03BFD44B5522028847287F17B0CE7304BB18D2590A DUP10 DUP10 PUSH1 0x40 MLOAD PUSH1 0x20 ADD PUSH2 0xC24 SWAP2 SWAP1 PUSH2 0x3B41 JUMP JUMPDEST PUSH1 0x40 MLOAD PUSH1 0x20 DUP2 DUP4 SUB SUB DUP2 MSTORE SWAP1 PUSH1 0x40 MSTORE DUP1 MLOAD SWAP1 PUSH1 0x20 ADD KECCAK256 DUP10 DUP10 PUSH1 0x40 MLOAD PUSH1 0x20 ADD PUSH2 0xC50 SWAP6 SWAP5 SWAP4 SWAP3 SWAP2 SWAP1 PUSH2 0x3D5E JUMP JUMPDEST PUSH1 0x40 MLOAD PUSH1 0x20 DUP2 DUP4 SUB SUB DUP2 MSTORE SWAP1 PUSH1 0x40 MSTORE DUP1 MLOAD SWAP1 PUSH1 0x20 ADD KECCAK256 PUSH2 0x2B49 JUMP JUMPDEST SWAP1 POP PUSH1 0x0 PUSH1 0x1 DUP3 DUP7 DUP7 DUP7 PUSH1 0x40 MLOAD PUSH1 0x0 DUP2 MSTORE PUSH1 0x20 ADD PUSH1 0x40 MSTORE PUSH1 0x40 MLOAD PUSH2 0xC92 SWAP5 SWAP4 SWAP3 SWAP2 SWAP1 PUSH2 0x3ED4 JUMP JUMPDEST PUSH1 0x20 PUSH1 0x40 MLOAD PUSH1 0x20 DUP2 SUB SWAP1 DUP1 DUP5 SUB SWAP1 DUP6 GAS STATICCALL ISZERO DUP1 ISZERO PUSH2 0xCB4 JUMPI RETURNDATASIZE PUSH1 0x0 DUP1 RETURNDATACOPY RETURNDATASIZE PUSH1 0x0 REVERT JUMPDEST POP POP POP PUSH1 0x20 PUSH1 0x40 MLOAD SUB MLOAD SWAP1 POP PUSH1 0xA PUSH1 0x0 SWAP1 SLOAD SWAP1 PUSH2 0x100 EXP SWAP1 DIV PUSH20 0xFFFFFFFFFFFFFFFFFFFFFFFFFFFFFFFFFFFFFFFF AND PUSH20 0xFFFFFFFFFFFFFFFFFFFFFFFFFFFFFFFFFFFFFFFF AND DUP2 PUSH20 0xFFFFFFFFFFFFFFFFFFFFFFFFFFFFFFFFFFFFFFFF AND EQ PUSH2 0xD50 JUMPI PUSH1 0x40 MLOAD PUSH32 0x8C379A000000000000000000000000000000000000000000000000000000000 DUP2 MSTORE PUSH1 0x4 ADD PUSH2 0xD47 SWAP1 PUSH2 0x40AC JUMP JUMPDEST PUSH1 0x40 MLOAD DUP1 SWAP2 SUB SWAP1 REVERT JUMPDEST PUSH1 0xB PUSH1 0x0 DUP11 PUSH20 0xFFFFFFFFFFFFFFFFFFFFFFFFFFFFFFFFFFFFFFFF AND PUSH20 0xFFFFFFFFFFFFFFFFFFFFFFFFFFFFFFFFFFFFFFFF AND DUP2 MSTORE PUSH1 0x20 ADD SWAP1 DUP2 MSTORE PUSH1 0x20 ADD PUSH1 0x0 KECCAK256 PUSH1 0x0 DUP2 SLOAD DUP1 SWAP3 SWAP2 SWAP1 PUSH2 0xDA0 SWAP1 PUSH2 0x4408 JUMP JUMPDEST SWAP2 SWAP1 POP SSTORE POP PUSH1 0x9 PUSH1 0x0 SWAP1 SLOAD SWAP1 PUSH2 0x100 EXP SWAP1 DIV PUSH20 0xFFFFFFFFFFFFFFFFFFFFFFFFFFFFFFFFFFFFFFFF AND PUSH20 0xFFFFFFFFFFFFFFFFFFFFFFFFFFFFFFFFFFFFFFFF AND PUSH4 0x75CEB341 DUP11 DUP11 PUSH1 0x40 MLOAD DUP4 PUSH4 0xFFFFFFFF AND PUSH1 0xE0 SHL DUP2 MSTORE PUSH1 0x4 ADD PUSH2 0xE02 SWAP3 SWAP2 SWAP1 PUSH2 0x3BF8 JUMP JUMPDEST PUSH1 0x0 PUSH1 0x40 MLOAD DUP1 DUP4 SUB DUP2 PUSH1 0x0 DUP8 DUP1 EXTCODESIZE ISZERO DUP1 ISZERO PUSH2 0xE1C JUMPI PUSH1 0x0 DUP1 REVERT JUMPDEST POP GAS CALL ISZERO DUP1 ISZERO PUSH2 0xE30 JUMPI RETURNDATASIZE PUSH1 0x0 DUP1 RETURNDATACOPY RETURNDATASIZE PUSH1 0x0 REVERT JUMPDEST POP POP POP POP DUP9 PUSH20 0xFFFFFFFFFFFFFFFFFFFFFFFFFFFFFFFFFFFFFFFF AND PUSH32 0xB2C556CE6AB27F3451DFD9D31A68F11FF5AE5074618DCD257DEF419A837458DE DUP10 DUP10 DUP10 PUSH1 0x40 MLOAD PUSH2 0xE7E SWAP4 SWAP3 SWAP2 SWAP1 PUSH2 0x3C7B JUMP JUMPDEST PUSH1 0x40 MLOAD DUP1 SWAP2 SUB SWAP1 LOG2 POP POP POP POP POP POP POP POP POP JUMP JUMPDEST PUSH32 0xF6B84BA38C7B897280D3E80968DEFDA8152E43F5858EBC8D36282EF41A59F39B DUP2 JUMP JUMPDEST PUSH1 0x0 CHAINID SWAP1 POP SWAP1 JUMP JUMPDEST PUSH2 0xEC5 PUSH2 0x2BEC JUMP JUMPDEST DUP1 PUSH1 0x1 PUSH1 0x0 PUSH2 0x100 EXP DUP2 SLOAD DUP2 PUSH20 0xFFFFFFFFFFFFFFFFFFFFFFFFFFFFFFFFFFFFFFFF MUL NOT AND SWAP1 DUP4 PUSH20 0xFFFFFFFFFFFFFFFFFFFFFFFFFFFFFFFFFFFFFFFF AND MUL OR SWAP1 SSTORE POP POP JUMP JUMPDEST PUSH2 0xF11 PUSH2 0x2BEC JUMP JUMPDEST DUP6 PUSH1 0x4 PUSH1 0x0 PUSH2 0x100 EXP DUP2 SLOAD DUP2 PUSH20 0xFFFFFFFFFFFFFFFFFFFFFFFFFFFFFFFFFFFFFFFF MUL NOT AND SWAP1 DUP4 PUSH20 0xFFFFFFFFFFFFFFFFFFFFFFFFFFFFFFFFFFFFFFFF AND MUL OR SWAP1 SSTORE POP DUP5 PUSH1 0x5 PUSH1 0x0 PUSH2 0x100 EXP DUP2 SLOAD DUP2 PUSH20 0xFFFFFFFFFFFFFFFFFFFFFFFFFFFFFFFFFFFFFFFF MUL NOT AND SWAP1 DUP4 PUSH20 0xFFFFFFFFFFFFFFFFFFFFFFFFFFFFFFFFFFFFFFFF AND MUL OR SWAP1 SSTORE POP DUP4 PUSH1 0x6 PUSH1 0x0 PUSH2 0x100 EXP DUP2 SLOAD DUP2 PUSH20 0xFFFFFFFFFFFFFFFFFFFFFFFFFFFFFFFFFFFFFFFF MUL NOT AND SWAP1 DUP4 PUSH20 0xFFFFFFFFFFFFFFFFFFFFFFFFFFFFFFFFFFFFFFFF AND MUL OR SWAP1 SSTORE POP DUP3 PUSH1 0x7 PUSH1 0x0 PUSH2 0x100 EXP DUP2 SLOAD DUP2 PUSH20 0xFFFFFFFFFFFFFFFFFFFFFFFFFFFFFFFFFFFFFFFF MUL NOT AND SWAP1 DUP4 PUSH20 0xFFFFFFFFFFFFFFFFFFFFFFFFFFFFFFFFFFFFFFFF AND MUL OR SWAP1 SSTORE POP DUP2 PUSH1 0x8 PUSH1 0x0 PUSH2 0x100 EXP DUP2 SLOAD DUP2 PUSH20 0xFFFFFFFFFFFFFFFFFFFFFFFFFFFFFFFFFFFFFFFF MUL NOT AND SWAP1 DUP4 PUSH20 0xFFFFFFFFFFFFFFFFFFFFFFFFFFFFFFFFFFFFFFFF AND MUL OR SWAP1 SSTORE POP DUP1 PUSH1 0x9 PUSH1 0x0 PUSH2 0x100 EXP DUP2 SLOAD DUP2 PUSH20 0xFFFFFFFFFFFFFFFFFFFFFFFFFFFFFFFFFFFFFFFF MUL NOT AND SWAP1 DUP4 PUSH20 0xFFFFFFFFFFFFFFFFFFFFFFFFFFFFFFFFFFFFFFFF AND MUL OR SWAP1 SSTORE POP POP POP POP POP POP POP JUMP JUMPDEST PUSH1 0x1 PUSH1 0x0 SWAP1 SLOAD SWAP1 PUSH2 0x100 EXP SWAP1 DIV PUSH20 0xFFFFFFFFFFFFFFFFFFFFFFFFFFFFFFFFFFFFFFFF AND DUP2 JUMP JUMPDEST CALLER PUSH20 0xFFFFFFFFFFFFFFFFFFFFFFFFFFFFFFFFFFFFFFFF AND DUP10 PUSH20 0xFFFFFFFFFFFFFFFFFFFFFFFFFFFFFFFFFFFFFFFF AND EQ PUSH2 0x1133 JUMPI PUSH1 0x40 MLOAD PUSH32 0x8C379A000000000000000000000000000000000000000000000000000000000 DUP2 MSTORE PUSH1 0x4 ADD PUSH2 0x112A SWAP1 PUSH2 0x404C JUMP JUMPDEST PUSH1 0x40 MLOAD DUP1 SWAP2 SUB SWAP1 REVERT JUMPDEST TIMESTAMP DUP6 GT PUSH2 0x1175 JUMPI PUSH1 0x40 MLOAD PUSH32 0x8C379A000000000000000000000000000000000000000000000000000000000 DUP2 MSTORE PUSH1 0x4 ADD PUSH2 0x116C SWAP1 PUSH2 0x3FAC JUMP JUMPDEST PUSH1 0x40 MLOAD DUP1 SWAP2 SUB SWAP1 REVERT JUMPDEST PUSH1 0xB PUSH1 0x0 DUP11 PUSH20 0xFFFFFFFFFFFFFFFFFFFFFFFFFFFFFFFFFFFFFFFF AND PUSH20 0xFFFFFFFFFFFFFFFFFFFFFFFFFFFFFFFFFFFFFFFF AND DUP2 MSTORE PUSH1 0x20 ADD SWAP1 DUP2 MSTORE PUSH1 0x20 ADD PUSH1 0x0 KECCAK256 SLOAD DUP5 EQ PUSH2 0x11F6 JUMPI PUSH1 0x40 MLOAD PUSH32 0x8C379A000000000000000000000000000000000000000000000000000000000 DUP2 MSTORE PUSH1 0x4 ADD PUSH2 0x11ED SWAP1 PUSH2 0x402C JUMP JUMPDEST PUSH1 0x40 MLOAD DUP1 SWAP2 SUB SWAP1 REVERT JUMPDEST PUSH1 0x0 PUSH2 0x12C5 PUSH32 0x7F0B8700F280BFD271A852DBAA85C59283C543B8DF75250CB1C58E86112BEEC5 DUP12 DUP12 PUSH1 0x40 MLOAD PUSH1 0x20 ADD PUSH2 0x122E SWAP2 SWAP1 PUSH2 0x3B41 JUMP JUMPDEST PUSH1 0x40 MLOAD PUSH1 0x20 DUP2 DUP4 SUB SUB DUP2 MSTORE SWAP1 PUSH1 0x40 MSTORE DUP1 MLOAD SWAP1 PUSH1 0x20 ADD KECCAK256 DUP12 PUSH1 0x40 MLOAD PUSH1 0x20 ADD PUSH2 0x1255 SWAP2 SWAP1 PUSH2 0x3B41 JUMP JUMPDEST PUSH1 0x40 MLOAD PUSH1 0x20 DUP2 DUP4 SUB SUB DUP2 MSTORE SWAP1 PUSH1 0x40 MSTORE DUP1 MLOAD SWAP1 PUSH1 0x20 ADD KECCAK256 DUP12 PUSH1 0x40 MLOAD PUSH1 0x20 ADD PUSH2 0x127C SWAP2 SWAP1 PUSH2 0x3B41 JUMP JUMPDEST PUSH1 0x40 MLOAD PUSH1 0x20 DUP2 DUP4 SUB SUB DUP2 MSTORE SWAP1 PUSH1 0x40 MSTORE DUP1 MLOAD SWAP1 PUSH1 0x20 ADD KECCAK256 DUP12 DUP12 PUSH1 0x40 MLOAD PUSH1 0x20 ADD PUSH2 0x12AA SWAP8 SWAP7 SWAP6 SWAP5 SWAP4 SWAP3 SWAP2 SWAP1 PUSH2 0x3CEF JUMP JUMPDEST PUSH1 0x40 MLOAD PUSH1 0x20 DUP2 DUP4 SUB SUB DUP2 MSTORE SWAP1 PUSH1 0x40 MSTORE DUP1 MLOAD SWAP1 PUSH1 0x20 ADD KECCAK256 PUSH2 0x2B49 JUMP JUMPDEST SWAP1 POP PUSH1 0x0 PUSH1 0x1 DUP3 DUP7 DUP7 DUP7 PUSH1 0x40 MLOAD PUSH1 0x0 DUP2 MSTORE PUSH1 0x20 ADD PUSH1 0x40 MSTORE PUSH1 0x40 MLOAD PUSH2 0x12EC SWAP5 SWAP4 SWAP3 SWAP2 SWAP1 PUSH2 0x3ED4 JUMP JUMPDEST PUSH1 0x20 PUSH1 0x40 MLOAD PUSH1 0x20 DUP2 SUB SWAP1 DUP1 DUP5 SUB SWAP1 DUP6 GAS STATICCALL ISZERO DUP1 ISZERO PUSH2 0x130E JUMPI RETURNDATASIZE PUSH1 0x0 DUP1 RETURNDATACOPY RETURNDATASIZE PUSH1 0x0 REVERT JUMPDEST POP POP POP PUSH1 0x20 PUSH1 0x40 MLOAD SUB MLOAD SWAP1 POP PUSH1 0xA PUSH1 0x0 SWAP1 SLOAD SWAP1 PUSH2 0x100 EXP SWAP1 DIV PUSH20 0xFFFFFFFFFFFFFFFFFFFFFFFFFFFFFFFFFFFFFFFF AND PUSH20 0xFFFFFFFFFFFFFFFFFFFFFFFFFFFFFFFFFFFFFFFF AND DUP2 PUSH20 0xFFFFFFFFFFFFFFFFFFFFFFFFFFFFFFFFFFFFFFFF AND EQ PUSH2 0x13AA JUMPI PUSH1 0x40 MLOAD PUSH32 0x8C379A000000000000000000000000000000000000000000000000000000000 DUP2 MSTORE PUSH1 0x4 ADD PUSH2 0x13A1 SWAP1 PUSH2 0x40AC JUMP JUMPDEST PUSH1 0x40 MLOAD DUP1 SWAP2 SUB SWAP1 REVERT JUMPDEST PUSH1 0xB PUSH1 0x0 DUP13 PUSH20 0xFFFFFFFFFFFFFFFFFFFFFFFFFFFFFFFFFFFFFFFF AND PUSH20 0xFFFFFFFFFFFFFFFFFFFFFFFFFFFFFFFFFFFFFFFF AND DUP2 MSTORE PUSH1 0x20 ADD SWAP1 DUP2 MSTORE PUSH1 0x20 ADD PUSH1 0x0 KECCAK256 PUSH1 0x0 DUP2 SLOAD DUP1 SWAP3 SWAP2 SWAP1 PUSH2 0x13FA SWAP1 PUSH2 0x4408 JUMP JUMPDEST SWAP2 SWAP1 POP SSTORE POP PUSH1 0x0 JUMPDEST DUP11 MLOAD DUP2 LT ISZERO PUSH2 0x14EB JUMPI PUSH1 0x8 PUSH1 0x0 SWAP1 SLOAD SWAP1 PUSH2 0x100 EXP SWAP1 DIV PUSH20 0xFFFFFFFFFFFFFFFFFFFFFFFFFFFFFFFFFFFFFFFF AND PUSH20 0xFFFFFFFFFFFFFFFFFFFFFFFFFFFFFFFFFFFFFFFF AND PUSH4 0x42842E0E DUP14 PUSH1 0x3 PUSH1 0x0 SWAP1 SLOAD SWAP1 PUSH2 0x100 EXP SWAP1 DIV PUSH20 0xFFFFFFFFFFFFFFFFFFFFFFFFFFFFFFFFFFFFFFFF AND DUP15 DUP6 DUP2 MLOAD DUP2 LT PUSH2 0x1480 JUMPI PUSH2 0x147F PUSH2 0x448A JUMP JUMPDEST JUMPDEST PUSH1 0x20 MUL PUSH1 0x20 ADD ADD MLOAD PUSH1 0x40 MLOAD DUP5 PUSH4 0xFFFFFFFF AND PUSH1 0xE0 SHL DUP2 MSTORE PUSH1 0x4 ADD PUSH2 0x14A6 SWAP4 SWAP3 SWAP2 SWAP1 PUSH2 0x3BC1 JUMP JUMPDEST PUSH1 0x0 PUSH1 0x40 MLOAD DUP1 DUP4 SUB DUP2 PUSH1 0x0 DUP8 DUP1 EXTCODESIZE ISZERO DUP1 ISZERO PUSH2 0x14C0 JUMPI PUSH1 0x0 DUP1 REVERT JUMPDEST POP GAS CALL ISZERO DUP1 ISZERO PUSH2 0x14D4 JUMPI RETURNDATASIZE PUSH1 0x0 DUP1 RETURNDATACOPY RETURNDATASIZE PUSH1 0x0 REVERT JUMPDEST POP POP POP POP DUP1 DUP1 PUSH2 0x14E3 SWAP1 PUSH2 0x4408 JUMP JUMPDEST SWAP2 POP POP PUSH2 0x1402 JUMP JUMPDEST POP PUSH1 0x0 JUMPDEST DUP9 MLOAD DUP2 LT ISZERO PUSH2 0x15D8 JUMPI PUSH1 0x9 PUSH1 0x0 SWAP1 SLOAD SWAP1 PUSH2 0x100 EXP SWAP1 DIV PUSH20 0xFFFFFFFFFFFFFFFFFFFFFFFFFFFFFFFFFFFFFFFF AND PUSH20 0xFFFFFFFFFFFFFFFFFFFFFFFFFFFFFFFFFFFFFFFF AND PUSH4 0x42842E0E DUP14 PUSH1 0x3 PUSH1 0x0 SWAP1 SLOAD SWAP1 PUSH2 0x100 EXP SWAP1 DIV PUSH20 0xFFFFFFFFFFFFFFFFFFFFFFFFFFFFFFFFFFFFFFFF AND DUP13 DUP6 DUP2 MLOAD DUP2 LT PUSH2 0x156D JUMPI PUSH2 0x156C PUSH2 0x448A JUMP JUMPDEST JUMPDEST PUSH1 0x20 MUL PUSH1 0x20 ADD ADD MLOAD PUSH1 0x40 MLOAD DUP5 PUSH4 0xFFFFFFFF AND PUSH1 0xE0 SHL DUP2 MSTORE PUSH1 0x4 ADD PUSH2 0x1593 SWAP4 SWAP3 SWAP2 SWAP1 PUSH2 0x3BC1 JUMP JUMPDEST PUSH1 0x0 PUSH1 0x40 MLOAD DUP1 DUP4 SUB DUP2 PUSH1 0x0 DUP8 DUP1 EXTCODESIZE ISZERO DUP1 ISZERO PUSH2 0x15AD JUMPI PUSH1 0x0 DUP1 REVERT JUMPDEST POP GAS CALL ISZERO DUP1 ISZERO PUSH2 0x15C1 JUMPI RETURNDATASIZE PUSH1 0x0 DUP1 RETURNDATACOPY RETURNDATASIZE PUSH1 0x0 REVERT JUMPDEST POP POP POP POP DUP1 DUP1 PUSH2 0x15D0 SWAP1 PUSH2 0x4408 JUMP JUMPDEST SWAP2 POP POP PUSH2 0x14EF JUMP JUMPDEST POP DUP11 PUSH20 0xFFFFFFFFFFFFFFFFFFFFFFFFFFFFFFFFFFFFFFFF AND PUSH32 0x464A6BB5BA2372122A6BAC43D1178A9BD3CE040A9CD61813ADE454E5F7896E3 DUP12 DUP12 DUP11 DUP11 PUSH1 0x40 MLOAD PUSH2 0x1625 SWAP5 SWAP4 SWAP3 SWAP2 SWAP1 PUSH2 0x3C28 JUMP JUMPDEST PUSH1 0x40 MLOAD DUP1 SWAP2 SUB SWAP1 LOG2 POP POP POP POP POP POP POP POP POP POP POP JUMP JUMPDEST PUSH1 0x8 PUSH1 0x0 SWAP1 SLOAD SWAP1 PUSH2 0x100 EXP SWAP1 DIV PUSH20 0xFFFFFFFFFFFFFFFFFFFFFFFFFFFFFFFFFFFFFFFF AND DUP2 JUMP JUMPDEST PUSH2 0x1668 PUSH2 0x2BEC JUMP JUMPDEST PUSH2 0x1672 PUSH1 0x0 PUSH2 0x2C6A JUMP JUMPDEST JUMP JUMPDEST PUSH1 0xB PUSH1 0x20 MSTORE DUP1 PUSH1 0x0 MSTORE PUSH1 0x40 PUSH1 0x0 KECCAK256 PUSH1 0x0 SWAP2 POP SWAP1 POP SLOAD DUP2 JUMP JUMPDEST PUSH32 0x7F0B8700F280BFD271A852DBAA85C59283C543B8DF75250CB1C58E86112BEEC5 DUP2 JUMP JUMPDEST PUSH1 0x0 DUP1 PUSH1 0x0 SWAP1 SLOAD SWAP1 PUSH2 0x100 EXP SWAP1 DIV PUSH20 0xFFFFFFFFFFFFFFFFFFFFFFFFFFFFFFFFFFFFFFFF AND SWAP1 POP SWAP1 JUMP JUMPDEST PUSH32 0x21F991F23360408693509E441F4916F3116208C02DC9E339300ABBCFB2E66602 DUP2 JUMP JUMPDEST PUSH1 0x9 PUSH1 0x0 SWAP1 SLOAD SWAP1 PUSH2 0x100 EXP SWAP1 DIV PUSH20 0xFFFFFFFFFFFFFFFFFFFFFFFFFFFFFFFFFFFFFFFF AND DUP2 JUMP JUMPDEST CALLER PUSH20 0xFFFFFFFFFFFFFFFFFFFFFFFFFFFFFFFFFFFFFFFF AND DUP9 PUSH20 0xFFFFFFFFFFFFFFFFFFFFFFFFFFFFFFFFFFFFFFFF AND EQ PUSH2 0x1791 JUMPI PUSH1 0x40 MLOAD PUSH32 0x8C379A000000000000000000000000000000000000000000000000000000000 DUP2 MSTORE PUSH1 0x4 ADD PUSH2 0x1788 SWAP1 PUSH2 0x404C JUMP JUMPDEST PUSH1 0x40 MLOAD DUP1 SWAP2 SUB SWAP1 REVERT JUMPDEST TIMESTAMP DUP6 GT PUSH2 0x17D3 JUMPI PUSH1 0x40 MLOAD PUSH32 0x8C379A000000000000000000000000000000000000000000000000000000000 DUP2 MSTORE PUSH1 0x4 ADD PUSH2 0x17CA SWAP1 PUSH2 0x3FAC JUMP JUMPDEST PUSH1 0x40 MLOAD DUP1 SWAP2 SUB SWAP1 REVERT JUMPDEST PUSH1 0xB PUSH1 0x0 DUP10 PUSH20 0xFFFFFFFFFFFFFFFFFFFFFFFFFFFFFFFFFFFFFFFF AND PUSH20 0xFFFFFFFFFFFFFFFFFFFFFFFFFFFFFFFFFFFFFFFF AND DUP2 MSTORE PUSH1 0x20 ADD SWAP1 DUP2 MSTORE PUSH1 0x20 ADD PUSH1 0x0 KECCAK256 SLOAD DUP5 EQ PUSH2 0x1854 JUMPI PUSH1 0x40 MLOAD PUSH32 0x8C379A000000000000000000000000000000000000000000000000000000000 DUP2 MSTORE PUSH1 0x4 ADD PUSH2 0x184B SWAP1 PUSH2 0x402C JUMP JUMPDEST PUSH1 0x40 MLOAD DUP1 SWAP2 SUB SWAP1 REVERT JUMPDEST PUSH1 0x0 DUP7 GT PUSH2 0x1897 JUMPI PUSH1 0x40 MLOAD PUSH32 0x8C379A000000000000000000000000000000000000000000000000000000000 DUP2 MSTORE PUSH1 0x4 ADD PUSH2 0x188E SWAP1 PUSH2 0x3FEC JUMP JUMPDEST PUSH1 0x40 MLOAD DUP1 SWAP2 SUB SWAP1 REVERT JUMPDEST PUSH1 0x0 PUSH2 0x18F2 PUSH32 0x21F991F23360408693509E441F4916F3116208C02DC9E339300ABBCFB2E66602 DUP11 DUP11 DUP11 DUP11 DUP11 PUSH1 0x40 MLOAD PUSH1 0x20 ADD PUSH2 0x18D7 SWAP7 SWAP6 SWAP5 SWAP4 SWAP3 SWAP2 SWAP1 PUSH2 0x3DB1 JUMP JUMPDEST PUSH1 0x40 MLOAD PUSH1 0x20 DUP2 DUP4 SUB SUB DUP2 MSTORE SWAP1 PUSH1 0x40 MSTORE DUP1 MLOAD SWAP1 PUSH1 0x20 ADD KECCAK256 PUSH2 0x2B49 JUMP JUMPDEST SWAP1 POP PUSH1 0x0 PUSH1 0x1 DUP3 DUP7 DUP7 DUP7 PUSH1 0x40 MLOAD PUSH1 0x0 DUP2 MSTORE PUSH1 0x20 ADD PUSH1 0x40 MSTORE PUSH1 0x40 MLOAD PUSH2 0x1919 SWAP5 SWAP4 SWAP3 SWAP2 SWAP1 PUSH2 0x3ED4 JUMP JUMPDEST PUSH1 0x20 PUSH1 0x40 MLOAD PUSH1 0x20 DUP2 SUB SWAP1 DUP1 DUP5 SUB SWAP1 DUP6 GAS STATICCALL ISZERO DUP1 ISZERO PUSH2 0x193B JUMPI RETURNDATASIZE PUSH1 0x0 DUP1 RETURNDATACOPY RETURNDATASIZE PUSH1 0x0 REVERT JUMPDEST POP POP POP PUSH1 0x20 PUSH1 0x40 MLOAD SUB MLOAD SWAP1 POP PUSH1 0xA PUSH1 0x0 SWAP1 SLOAD SWAP1 PUSH2 0x100 EXP SWAP1 DIV PUSH20 0xFFFFFFFFFFFFFFFFFFFFFFFFFFFFFFFFFFFFFFFF AND PUSH20 0xFFFFFFFFFFFFFFFFFFFFFFFFFFFFFFFFFFFFFFFF AND DUP2 PUSH20 0xFFFFFFFFFFFFFFFFFFFFFFFFFFFFFFFFFFFFFFFF AND EQ PUSH2 0x19D7 JUMPI PUSH1 0x40 MLOAD PUSH32 0x8C379A000000000000000000000000000000000000000000000000000000000 DUP2 MSTORE PUSH1 0x4 ADD PUSH2 0x19CE SWAP1 PUSH2 0x40AC JUMP JUMPDEST PUSH1 0x40 MLOAD DUP1 SWAP2 SUB SWAP1 REVERT JUMPDEST PUSH1 0xB PUSH1 0x0 DUP12 PUSH20 0xFFFFFFFFFFFFFFFFFFFFFFFFFFFFFFFFFFFFFFFF AND PUSH20 0xFFFFFFFFFFFFFFFFFFFFFFFFFFFFFFFFFFFFFFFF AND DUP2 MSTORE PUSH1 0x20 ADD SWAP1 DUP2 MSTORE PUSH1 0x20 ADD PUSH1 0x0 KECCAK256 PUSH1 0x0 DUP2 SLOAD DUP1 SWAP3 SWAP2 SWAP1 PUSH2 0x1A27 SWAP1 PUSH2 0x4408 JUMP JUMPDEST SWAP2 SWAP1 POP SSTORE POP PUSH2 0x1A9D DUP11 PUSH1 0x3 PUSH1 0x0 SWAP1 SLOAD SWAP1 PUSH2 0x100 EXP SWAP1 DIV PUSH20 0xFFFFFFFFFFFFFFFFFFFFFFFFFFFFFFFFFFFFFFFF AND DUP11 PUSH1 0x7 PUSH1 0x0 SWAP1 SLOAD SWAP1 PUSH2 0x100 EXP SWAP1 DIV PUSH20 0xFFFFFFFFFFFFFFFFFFFFFFFFFFFFFFFFFFFFFFFF AND PUSH20 0xFFFFFFFFFFFFFFFFFFFFFFFFFFFFFFFFFFFFFFFF AND PUSH2 0x2B63 SWAP1 SWAP4 SWAP3 SWAP2 SWAP1 PUSH4 0xFFFFFFFF AND JUMP JUMPDEST DUP10 PUSH20 0xFFFFFFFFFFFFFFFFFFFFFFFFFFFFFFFFFFFFFFFF AND PUSH32 0x2FF317B065ED2D67FE4F80E31D1E4A76AD49BB61E6E8286AA84312F8916FE621 DUP11 DUP11 DUP11 DUP11 PUSH1 0x40 MLOAD PUSH2 0x1AE9 SWAP5 SWAP4 SWAP3 SWAP2 SWAP1 PUSH2 0x4127 JUMP JUMPDEST PUSH1 0x40 MLOAD DUP1 SWAP2 SUB SWAP1 LOG2 POP POP POP POP POP POP POP POP POP POP JUMP JUMPDEST PUSH32 0x820DE84EF4DD0FCB267C9A03BFD44B5522028847287F17B0CE7304BB18D2590A DUP2 JUMP JUMPDEST PUSH1 0x4 PUSH1 0x0 SWAP1 SLOAD SWAP1 PUSH2 0x100 EXP SWAP1 DIV PUSH20 0xFFFFFFFFFFFFFFFFFFFFFFFFFFFFFFFFFFFFFFFF AND DUP2 JUMP JUMPDEST PUSH1 0x5 PUSH1 0x0 SWAP1 SLOAD SWAP1 PUSH2 0x100 EXP SWAP1 DIV PUSH20 0xFFFFFFFFFFFFFFFFFFFFFFFFFFFFFFFFFFFFFFFF AND DUP2 JUMP JUMPDEST CALLER PUSH20 0xFFFFFFFFFFFFFFFFFFFFFFFFFFFFFFFFFFFFFFFF AND DUP8 PUSH20 0xFFFFFFFFFFFFFFFFFFFFFFFFFFFFFFFFFFFFFFFF AND EQ PUSH2 0x1BDB JUMPI PUSH1 0x40 MLOAD PUSH32 0x8C379A000000000000000000000000000000000000000000000000000000000 DUP2 MSTORE PUSH1 0x4 ADD PUSH2 0x1BD2 SWAP1 PUSH2 0x404C JUMP JUMPDEST PUSH1 0x40 MLOAD DUP1 SWAP2 SUB SWAP1 REVERT JUMPDEST TIMESTAMP DUP6 GT PUSH2 0x1C1D JUMPI PUSH1 0x40 MLOAD PUSH32 0x8C379A000000000000000000000000000000000000000000000000000000000 DUP2 MSTORE PUSH1 0x4 ADD PUSH2 0x1C14 SWAP1 PUSH2 0x3FAC JUMP JUMPDEST PUSH1 0x40 MLOAD DUP1 SWAP2 SUB SWAP1 REVERT JUMPDEST PUSH1 0xB PUSH1 0x0 DUP9 PUSH20 0xFFFFFFFFFFFFFFFFFFFFFFFFFFFFFFFFFFFFFFFF AND PUSH20 0xFFFFFFFFFFFFFFFFFFFFFFFFFFFFFFFFFFFFFFFF AND DUP2 MSTORE PUSH1 0x20 ADD SWAP1 DUP2 MSTORE PUSH1 0x20 ADD PUSH1 0x0 KECCAK256 SLOAD DUP5 EQ PUSH2 0x1C9E JUMPI PUSH1 0x40 MLOAD PUSH32 0x8C379A000000000000000000000000000000000000000000000000000000000 DUP2 MSTORE PUSH1 0x4 ADD PUSH2 0x1C95 SWAP1 PUSH2 0x402C JUMP JUMPDEST PUSH1 0x40 MLOAD DUP1 SWAP2 SUB SWAP1 REVERT JUMPDEST PUSH1 0x0 PUSH2 0x1D1D PUSH32 0xA87B9A23492251565BD9872D4D438E80AB14B4140B0127F7359A0A7089C07728 DUP10 DUP10 PUSH1 0x40 MLOAD PUSH1 0x20 ADD PUSH2 0x1CD6 SWAP2 SWAP1 PUSH2 0x3B41 JUMP JUMPDEST PUSH1 0x40 MLOAD PUSH1 0x20 DUP2 DUP4 SUB SUB DUP2 MSTORE SWAP1 PUSH1 0x40 MSTORE DUP1 MLOAD SWAP1 PUSH1 0x20 ADD KECCAK256 DUP10 DUP10 PUSH1 0x40 MLOAD PUSH1 0x20 ADD PUSH2 0x1D02 SWAP6 SWAP5 SWAP4 SWAP3 SWAP2 SWAP1 PUSH2 0x3D5E JUMP JUMPDEST PUSH1 0x40 MLOAD PUSH1 0x20 DUP2 DUP4 SUB SUB DUP2 MSTORE SWAP1 PUSH1 0x40 MSTORE DUP1 MLOAD SWAP1 PUSH1 0x20 ADD KECCAK256 PUSH2 0x2B49 JUMP JUMPDEST SWAP1 POP PUSH1 0x0 PUSH1 0x1 DUP3 DUP7 DUP7 DUP7 PUSH1 0x40 MLOAD PUSH1 0x0 DUP2 MSTORE PUSH1 0x20 ADD PUSH1 0x40 MSTORE PUSH1 0x40 MLOAD PUSH2 0x1D44 SWAP5 SWAP4 SWAP3 SWAP2 SWAP1 PUSH2 0x3ED4 JUMP JUMPDEST PUSH1 0x20 PUSH1 0x40 MLOAD PUSH1 0x20 DUP2 SUB SWAP1 DUP1 DUP5 SUB SWAP1 DUP6 GAS STATICCALL ISZERO DUP1 ISZERO PUSH2 0x1D66 JUMPI RETURNDATASIZE PUSH1 0x0 DUP1 RETURNDATACOPY RETURNDATASIZE PUSH1 0x0 REVERT JUMPDEST POP POP POP PUSH1 0x20 PUSH1 0x40 MLOAD SUB MLOAD SWAP1 POP PUSH1 0xA PUSH1 0x0 SWAP1 SLOAD SWAP1 PUSH2 0x100 EXP SWAP1 DIV PUSH20 0xFFFFFFFFFFFFFFFFFFFFFFFFFFFFFFFFFFFFFFFF AND PUSH20 0xFFFFFFFFFFFFFFFFFFFFFFFFFFFFFFFFFFFFFFFF AND DUP2 PUSH20 0xFFFFFFFFFFFFFFFFFFFFFFFFFFFFFFFFFFFFFFFF AND EQ PUSH2 0x1E02 JUMPI PUSH1 0x40 MLOAD PUSH32 0x8C379A000000000000000000000000000000000000000000000000000000000 DUP2 MSTORE PUSH1 0x4 ADD PUSH2 0x1DF9 SWAP1 PUSH2 0x40AC JUMP JUMPDEST PUSH1 0x40 MLOAD DUP1 SWAP2 SUB SWAP1 REVERT JUMPDEST PUSH1 0xB PUSH1 0x0 DUP11 PUSH20 0xFFFFFFFFFFFFFFFFFFFFFFFFFFFFFFFFFFFFFFFF AND PUSH20 0xFFFFFFFFFFFFFFFFFFFFFFFFFFFFFFFFFFFFFFFF AND DUP2 MSTORE PUSH1 0x20 ADD SWAP1 DUP2 MSTORE PUSH1 0x20 ADD PUSH1 0x0 KECCAK256 PUSH1 0x0 DUP2 SLOAD DUP1 SWAP3 SWAP2 SWAP1 PUSH2 0x1E52 SWAP1 PUSH2 0x4408 JUMP JUMPDEST SWAP2 SWAP1 POP SSTORE POP PUSH1 0x8 PUSH1 0x0 SWAP1 SLOAD SWAP1 PUSH2 0x100 EXP SWAP1 DIV PUSH20 0xFFFFFFFFFFFFFFFFFFFFFFFFFFFFFFFFFFFFFFFF AND PUSH20 0xFFFFFFFFFFFFFFFFFFFFFFFFFFFFFFFFFFFFFFFF AND PUSH4 0x75CEB341 DUP11 DUP11 PUSH1 0x40 MLOAD DUP4 PUSH4 0xFFFFFFFF AND PUSH1 0xE0 SHL DUP2 MSTORE PUSH1 0x4 ADD PUSH2 0x1EB4 SWAP3 SWAP2 SWAP1 PUSH2 0x3BF8 JUMP JUMPDEST PUSH1 0x0 PUSH1 0x40 MLOAD DUP1 DUP4 SUB DUP2 PUSH1 0x0 DUP8 DUP1 EXTCODESIZE ISZERO DUP1 ISZERO PUSH2 0x1ECE JUMPI PUSH1 0x0 DUP1 REVERT JUMPDEST POP GAS CALL ISZERO DUP1 ISZERO PUSH2 0x1EE2 JUMPI RETURNDATASIZE PUSH1 0x0 DUP1 RETURNDATACOPY RETURNDATASIZE PUSH1 0x0 REVERT JUMPDEST POP POP POP POP DUP9 PUSH20 0xFFFFFFFFFFFFFFFFFFFFFFFFFFFFFFFFFFFFFFFF AND PUSH32 0x12D369B066A1BE6EC6447849B03491E6CD0AAB69530788F354E1397705C3A79A DUP10 DUP10 DUP10 PUSH1 0x40 MLOAD PUSH2 0x1F30 SWAP4 SWAP3 SWAP2 SWAP1 PUSH2 0x3C7B JUMP JUMPDEST PUSH1 0x40 MLOAD DUP1 SWAP2 SUB SWAP1 LOG2 POP POP POP POP POP POP POP POP POP JUMP JUMPDEST PUSH1 0x7 PUSH1 0x0 SWAP1 SLOAD SWAP1 PUSH2 0x100 EXP SWAP1 DIV PUSH20 0xFFFFFFFFFFFFFFFFFFFFFFFFFFFFFFFFFFFFFFFF AND DUP2 JUMP JUMPDEST CALLER PUSH20 0xFFFFFFFFFFFFFFFFFFFFFFFFFFFFFFFFFFFFFFFF AND DUP10 PUSH20 0xFFFFFFFFFFFFFFFFFFFFFFFFFFFFFFFFFFFFFFFF AND EQ PUSH2 0x1FD7 JUMPI PUSH1 0x40 MLOAD PUSH32 0x8C379A000000000000000000000000000000000000000000000000000000000 DUP2 MSTORE PUSH1 0x4 ADD PUSH2 0x1FCE SWAP1 PUSH2 0x404C JUMP JUMPDEST PUSH1 0x40 MLOAD DUP1 SWAP2 SUB SWAP1 REVERT JUMPDEST TIMESTAMP DUP6 GT PUSH2 0x2019 JUMPI PUSH1 0x40 MLOAD PUSH32 0x8C379A000000000000000000000000000000000000000000000000000000000 DUP2 MSTORE PUSH1 0x4 ADD PUSH2 0x2010 SWAP1 PUSH2 0x3FAC JUMP JUMPDEST PUSH1 0x40 MLOAD DUP1 SWAP2 SUB SWAP1 REVERT JUMPDEST PUSH1 0xB PUSH1 0x0 DUP11 PUSH20 0xFFFFFFFFFFFFFFFFFFFFFFFFFFFFFFFFFFFFFFFF AND PUSH20 0xFFFFFFFFFFFFFFFFFFFFFFFFFFFFFFFFFFFFFFFF AND DUP2 MSTORE PUSH1 0x20 ADD SWAP1 DUP2 MSTORE PUSH1 0x20 ADD PUSH1 0x0 KECCAK256 SLOAD DUP5 EQ PUSH2 0x209A JUMPI PUSH1 0x40 MLOAD PUSH32 0x8C379A000000000000000000000000000000000000000000000000000000000 DUP2 MSTORE PUSH1 0x4 ADD PUSH2 0x2091 SWAP1 PUSH2 0x402C JUMP JUMPDEST PUSH1 0x40 MLOAD DUP1 SWAP2 SUB SWAP1 REVERT JUMPDEST PUSH1 0x0 PUSH2 0x2169 PUSH32 0xBE1E1C7F64BB0F829D9C28407669DA5ED36DD43EFF7437E8AB88053E635F03A5 DUP12 DUP12 PUSH1 0x40 MLOAD PUSH1 0x20 ADD PUSH2 0x20D2 SWAP2 SWAP1 PUSH2 0x3B41 JUMP JUMPDEST PUSH1 0x40 MLOAD PUSH1 0x20 DUP2 DUP4 SUB SUB DUP2 MSTORE SWAP1 PUSH1 0x40 MSTORE DUP1 MLOAD SWAP1 PUSH1 0x20 ADD KECCAK256 DUP12 PUSH1 0x40 MLOAD PUSH1 0x20 ADD PUSH2 0x20F9 SWAP2 SWAP1 PUSH2 0x3B41 JUMP JUMPDEST PUSH1 0x40 MLOAD PUSH1 0x20 DUP2 DUP4 SUB SUB DUP2 MSTORE SWAP1 PUSH1 0x40 MSTORE DUP1 MLOAD SWAP1 PUSH1 0x20 ADD KECCAK256 DUP12 PUSH1 0x40 MLOAD PUSH1 0x20 ADD PUSH2 0x2120 SWAP2 SWAP1 PUSH2 0x3B41 JUMP JUMPDEST PUSH1 0x40 MLOAD PUSH1 0x20 DUP2 DUP4 SUB SUB DUP2 MSTORE SWAP1 PUSH1 0x40 MSTORE DUP1 MLOAD SWAP1 PUSH1 0x20 ADD KECCAK256 DUP12 DUP12 PUSH1 0x40 MLOAD PUSH1 0x20 ADD PUSH2 0x214E SWAP8 SWAP7 SWAP6 SWAP5 SWAP4 SWAP3 SWAP2 SWAP1 PUSH2 0x3CEF JUMP JUMPDEST PUSH1 0x40 MLOAD PUSH1 0x20 DUP2 DUP4 SUB SUB DUP2 MSTORE SWAP1 PUSH1 0x40 MSTORE DUP1 MLOAD SWAP1 PUSH1 0x20 ADD KECCAK256 PUSH2 0x2B49 JUMP JUMPDEST SWAP1 POP PUSH1 0x0 PUSH1 0x1 DUP3 DUP7 DUP7 DUP7 PUSH1 0x40 MLOAD PUSH1 0x0 DUP2 MSTORE PUSH1 0x20 ADD PUSH1 0x40 MSTORE PUSH1 0x40 MLOAD PUSH2 0x2190 SWAP5 SWAP4 SWAP3 SWAP2 SWAP1 PUSH2 0x3ED4 JUMP JUMPDEST PUSH1 0x20 PUSH1 0x40 MLOAD PUSH1 0x20 DUP2 SUB SWAP1 DUP1 DUP5 SUB SWAP1 DUP6 GAS STATICCALL ISZERO DUP1 ISZERO PUSH2 0x21B2 JUMPI RETURNDATASIZE PUSH1 0x0 DUP1 RETURNDATACOPY RETURNDATASIZE PUSH1 0x0 REVERT JUMPDEST POP POP POP PUSH1 0x20 PUSH1 0x40 MLOAD SUB MLOAD SWAP1 POP PUSH1 0xA PUSH1 0x0 SWAP1 SLOAD SWAP1 PUSH2 0x100 EXP SWAP1 DIV PUSH20 0xFFFFFFFFFFFFFFFFFFFFFFFFFFFFFFFFFFFFFFFF AND PUSH20 0xFFFFFFFFFFFFFFFFFFFFFFFFFFFFFFFFFFFFFFFF AND DUP2 PUSH20 0xFFFFFFFFFFFFFFFFFFFFFFFFFFFFFFFFFFFFFFFF AND EQ PUSH2 0x224E JUMPI PUSH1 0x40 MLOAD PUSH32 0x8C379A000000000000000000000000000000000000000000000000000000000 DUP2 MSTORE PUSH1 0x4 ADD PUSH2 0x2245 SWAP1 PUSH2 0x40AC JUMP JUMPDEST PUSH1 0x40 MLOAD DUP1 SWAP2 SUB SWAP1 REVERT JUMPDEST PUSH1 0xB PUSH1 0x0 DUP13 PUSH20 0xFFFFFFFFFFFFFFFFFFFFFFFFFFFFFFFFFFFFFFFF AND PUSH20 0xFFFFFFFFFFFFFFFFFFFFFFFFFFFFFFFFFFFFFFFF AND DUP2 MSTORE PUSH1 0x20 ADD SWAP1 DUP2 MSTORE PUSH1 0x20 ADD PUSH1 0x0 KECCAK256 PUSH1 0x0 DUP2 SLOAD DUP1 SWAP3 SWAP2 SWAP1 PUSH2 0x229E SWAP1 PUSH2 0x4408 JUMP JUMPDEST SWAP2 SWAP1 POP SSTORE POP PUSH1 0x0 JUMPDEST DUP11 MLOAD DUP2 LT ISZERO PUSH2 0x238F JUMPI PUSH1 0x8 PUSH1 0x0 SWAP1 SLOAD SWAP1 PUSH2 0x100 EXP SWAP1 DIV PUSH20 0xFFFFFFFFFFFFFFFFFFFFFFFFFFFFFFFFFFFFFFFF AND PUSH20 0xFFFFFFFFFFFFFFFFFFFFFFFFFFFFFFFFFFFFFFFF AND PUSH4 0x42842E0E DUP14 PUSH1 0x3 PUSH1 0x0 SWAP1 SLOAD SWAP1 PUSH2 0x100 EXP SWAP1 DIV PUSH20 0xFFFFFFFFFFFFFFFFFFFFFFFFFFFFFFFFFFFFFFFF AND DUP15 DUP6 DUP2 MLOAD DUP2 LT PUSH2 0x2324 JUMPI PUSH2 0x2323 PUSH2 0x448A JUMP JUMPDEST JUMPDEST PUSH1 0x20 MUL PUSH1 0x20 ADD ADD MLOAD PUSH1 0x40 MLOAD DUP5 PUSH4 0xFFFFFFFF AND PUSH1 0xE0 SHL DUP2 MSTORE PUSH1 0x4 ADD PUSH2 0x234A SWAP4 SWAP3 SWAP2 SWAP1 PUSH2 0x3BC1 JUMP JUMPDEST PUSH1 0x0 PUSH1 0x40 MLOAD DUP1 DUP4 SUB DUP2 PUSH1 0x0 DUP8 DUP1 EXTCODESIZE ISZERO DUP1 ISZERO PUSH2 0x2364 JUMPI PUSH1 0x0 DUP1 REVERT JUMPDEST POP GAS CALL ISZERO DUP1 ISZERO PUSH2 0x2378 JUMPI RETURNDATASIZE PUSH1 0x0 DUP1 RETURNDATACOPY RETURNDATASIZE PUSH1 0x0 REVERT JUMPDEST POP POP POP POP DUP1 DUP1 PUSH2 0x2387 SWAP1 PUSH2 0x4408 JUMP JUMPDEST SWAP2 POP POP PUSH2 0x22A6 JUMP JUMPDEST POP PUSH1 0x0 JUMPDEST DUP9 MLOAD DUP2 LT ISZERO PUSH2 0x247C JUMPI PUSH1 0x9 PUSH1 0x0 SWAP1 SLOAD SWAP1 PUSH2 0x100 EXP SWAP1 DIV PUSH20 0xFFFFFFFFFFFFFFFFFFFFFFFFFFFFFFFFFFFFFFFF AND PUSH20 0xFFFFFFFFFFFFFFFFFFFFFFFFFFFFFFFFFFFFFFFF AND PUSH4 0x42842E0E DUP14 PUSH1 0x3 PUSH1 0x0 SWAP1 SLOAD SWAP1 PUSH2 0x100 EXP SWAP1 DIV PUSH20 0xFFFFFFFFFFFFFFFFFFFFFFFFFFFFFFFFFFFFFFFF AND DUP13 DUP6 DUP2 MLOAD DUP2 LT PUSH2 0x2411 JUMPI PUSH2 0x2410 PUSH2 0x448A JUMP JUMPDEST JUMPDEST PUSH1 0x20 MUL PUSH1 0x20 ADD ADD MLOAD PUSH1 0x40 MLOAD DUP5 PUSH4 0xFFFFFFFF AND PUSH1 0xE0 SHL DUP2 MSTORE PUSH1 0x4 ADD PUSH2 0x2437 SWAP4 SWAP3 SWAP2 SWAP1 PUSH2 0x3BC1 JUMP JUMPDEST PUSH1 0x0 PUSH1 0x40 MLOAD DUP1 DUP4 SUB DUP2 PUSH1 0x0 DUP8 DUP1 EXTCODESIZE ISZERO DUP1 ISZERO PUSH2 0x2451 JUMPI PUSH1 0x0 DUP1 REVERT JUMPDEST POP GAS CALL ISZERO DUP1 ISZERO PUSH2 0x2465 JUMPI RETURNDATASIZE PUSH1 0x0 DUP1 RETURNDATACOPY RETURNDATASIZE PUSH1 0x0 REVERT JUMPDEST POP POP POP POP DUP1 DUP1 PUSH2 0x2474 SWAP1 PUSH2 0x4408 JUMP JUMPDEST SWAP2 POP POP PUSH2 0x2393 JUMP JUMPDEST POP DUP11 PUSH20 0xFFFFFFFFFFFFFFFFFFFFFFFFFFFFFFFFFFFFFFFF AND PUSH32 0xB15836B235DCB968246B85500CC1783F2D3164129C2F7E245B7D186E27979D45 DUP12 DUP12 DUP11 DUP11 PUSH1 0x40 MLOAD PUSH2 0x24C9 SWAP5 SWAP4 SWAP3 SWAP2 SWAP1 PUSH2 0x3C28 JUMP JUMPDEST PUSH1 0x40 MLOAD DUP1 SWAP2 SUB SWAP1 LOG2 POP POP POP POP POP POP POP POP POP POP POP JUMP JUMPDEST PUSH32 0xB25204F76D43EE9F388205DF62A602B1300EBF14848F8A5F1BC8500C49320157 DUP2 JUMP JUMPDEST PUSH1 0x0 CALLER PUSH20 0xFFFFFFFFFFFFFFFFFFFFFFFFFFFFFFFFFFFFFFFF AND DUP11 PUSH20 0xFFFFFFFFFFFFFFFFFFFFFFFFFFFFFFFFFFFFFFFF AND EQ PUSH2 0x2572 JUMPI PUSH1 0x40 MLOAD PUSH32 0x8C379A000000000000000000000000000000000000000000000000000000000 DUP2 MSTORE PUSH1 0x4 ADD PUSH2 0x2569 SWAP1 PUSH2 0x404C JUMP JUMPDEST PUSH1 0x40 MLOAD DUP1 SWAP2 SUB SWAP1 REVERT JUMPDEST TIMESTAMP DUP8 GT PUSH2 0x25B4 JUMPI PUSH1 0x40 MLOAD PUSH32 0x8C379A000000000000000000000000000000000000000000000000000000000 DUP2 MSTORE PUSH1 0x4 ADD PUSH2 0x25AB SWAP1 PUSH2 0x3FAC JUMP JUMPDEST PUSH1 0x40 MLOAD DUP1 SWAP2 SUB SWAP1 REVERT JUMPDEST PUSH1 0xB PUSH1 0x0 DUP12 PUSH20 0xFFFFFFFFFFFFFFFFFFFFFFFFFFFFFFFFFFFFFFFF AND PUSH20 0xFFFFFFFFFFFFFFFFFFFFFFFFFFFFFFFFFFFFFFFF AND DUP2 MSTORE PUSH1 0x20 ADD SWAP1 DUP2 MSTORE PUSH1 0x20 ADD PUSH1 0x0 KECCAK256 SLOAD DUP7 EQ PUSH2 0x2635 JUMPI PUSH1 0x40 MLOAD PUSH32 0x8C379A000000000000000000000000000000000000000000000000000000000 DUP2 MSTORE PUSH1 0x4 ADD PUSH2 0x262C SWAP1 PUSH2 0x402C JUMP JUMPDEST PUSH1 0x40 MLOAD DUP1 SWAP2 SUB SWAP1 REVERT JUMPDEST PUSH1 0x0 PUSH2 0x2692 PUSH32 0xB25204F76D43EE9F388205DF62A602B1300EBF14848F8A5F1BC8500C49320157 DUP13 DUP13 DUP13 DUP13 DUP13 DUP13 PUSH1 0x40 MLOAD PUSH1 0x20 ADD PUSH2 0x2677 SWAP8 SWAP7 SWAP6 SWAP5 SWAP4 SWAP3 SWAP2 SWAP1 PUSH2 0x3E12 JUMP JUMPDEST PUSH1 0x40 MLOAD PUSH1 0x20 DUP2 DUP4 SUB SUB DUP2 MSTORE SWAP1 PUSH1 0x40 MSTORE DUP1 MLOAD SWAP1 PUSH1 0x20 ADD KECCAK256 PUSH2 0x2B49 JUMP JUMPDEST SWAP1 POP PUSH1 0x0 PUSH1 0x1 DUP3 DUP8 DUP8 DUP8 PUSH1 0x40 MLOAD PUSH1 0x0 DUP2 MSTORE PUSH1 0x20 ADD PUSH1 0x40 MSTORE PUSH1 0x40 MLOAD PUSH2 0x26B9 SWAP5 SWAP4 SWAP3 SWAP2 SWAP1 PUSH2 0x3ED4 JUMP JUMPDEST PUSH1 0x20 PUSH1 0x40 MLOAD PUSH1 0x20 DUP2 SUB SWAP1 DUP1 DUP5 SUB SWAP1 DUP6 GAS STATICCALL ISZERO DUP1 ISZERO PUSH2 0x26DB JUMPI RETURNDATASIZE PUSH1 0x0 DUP1 RETURNDATACOPY RETURNDATASIZE PUSH1 0x0 REVERT JUMPDEST POP POP POP PUSH1 0x20 PUSH1 0x40 MLOAD SUB MLOAD SWAP1 POP PUSH1 0xA PUSH1 0x0 SWAP1 SLOAD SWAP1 PUSH2 0x100 EXP SWAP1 DIV PUSH20 0xFFFFFFFFFFFFFFFFFFFFFFFFFFFFFFFFFFFFFFFF AND PUSH20 0xFFFFFFFFFFFFFFFFFFFFFFFFFFFFFFFFFFFFFFFF AND DUP2 PUSH20 0xFFFFFFFFFFFFFFFFFFFFFFFFFFFFFFFFFFFFFFFF AND EQ PUSH2 0x2777 JUMPI PUSH1 0x40 MLOAD PUSH32 0x8C379A000000000000000000000000000000000000000000000000000000000 DUP2 MSTORE PUSH1 0x4 ADD PUSH2 0x276E SWAP1 PUSH2 0x40AC JUMP JUMPDEST PUSH1 0x40 MLOAD DUP1 SWAP2 SUB SWAP1 REVERT JUMPDEST PUSH1 0xB PUSH1 0x0 DUP14 PUSH20 0xFFFFFFFFFFFFFFFFFFFFFFFFFFFFFFFFFFFFFFFF AND PUSH20 0xFFFFFFFFFFFFFFFFFFFFFFFFFFFFFFFFFFFFFFFF AND DUP2 MSTORE PUSH1 0x20 ADD SWAP1 DUP2 MSTORE PUSH1 0x20 ADD PUSH1 0x0 KECCAK256 PUSH1 0x0 DUP2 SLOAD DUP1 SWAP3 SWAP2 SWAP1 PUSH2 0x27C7 SWAP1 PUSH2 0x4408 JUMP JUMPDEST SWAP2 SWAP1 POP SSTORE POP PUSH1 0x3 DUP8 PUSH1 0xFF AND EQ ISZERO PUSH2 0x2891 JUMPI PUSH1 0x0 DUP12 GT PUSH2 0x281B JUMPI PUSH1 0x40 MLOAD PUSH32 0x8C379A000000000000000000000000000000000000000000000000000000000 DUP2 MSTORE PUSH1 0x4 ADD PUSH2 0x2812 SWAP1 PUSH2 0x3FEC JUMP JUMPDEST PUSH1 0x40 MLOAD DUP1 SWAP2 SUB SWAP1 REVERT JUMPDEST PUSH2 0x288C DUP13 PUSH1 0x3 PUSH1 0x0 SWAP1 SLOAD SWAP1 PUSH2 0x100 EXP SWAP1 DIV PUSH20 0xFFFFFFFFFFFFFFFFFFFFFFFFFFFFFFFFFFFFFFFF AND DUP14 PUSH1 0x7 PUSH1 0x0 SWAP1 SLOAD SWAP1 PUSH2 0x100 EXP SWAP1 DIV PUSH20 0xFFFFFFFFFFFFFFFFFFFFFFFFFFFFFFFFFFFFFFFF AND PUSH20 0xFFFFFFFFFFFFFFFFFFFFFFFFFFFFFFFFFFFFFFFF AND PUSH2 0x2B63 SWAP1 SWAP4 SWAP3 SWAP2 SWAP1 PUSH4 0xFFFFFFFF AND JUMP JUMPDEST PUSH2 0x2A12 JUMP JUMPDEST PUSH1 0x6 DUP8 PUSH1 0xFF AND EQ ISZERO PUSH2 0x2A11 JUMPI PUSH1 0x0 DUP12 LT ISZERO PUSH2 0x28E1 JUMPI PUSH1 0x40 MLOAD PUSH32 0x8C379A000000000000000000000000000000000000000000000000000000000 DUP2 MSTORE PUSH1 0x4 ADD PUSH2 0x28D8 SWAP1 PUSH2 0x408C JUMP JUMPDEST PUSH1 0x40 MLOAD DUP1 SWAP2 SUB SWAP1 REVERT JUMPDEST PUSH1 0x0 DUP11 GT PUSH2 0x2924 JUMPI PUSH1 0x40 MLOAD PUSH32 0x8C379A000000000000000000000000000000000000000000000000000000000 DUP2 MSTORE PUSH1 0x4 ADD PUSH2 0x291B SWAP1 PUSH2 0x3F8C JUMP JUMPDEST PUSH1 0x40 MLOAD DUP1 SWAP2 SUB SWAP1 REVERT JUMPDEST PUSH1 0x0 DUP12 GT ISZERO PUSH2 0x299F JUMPI PUSH2 0x299E DUP13 PUSH1 0x3 PUSH1 0x0 SWAP1 SLOAD SWAP1 PUSH2 0x100 EXP SWAP1 DIV PUSH20 0xFFFFFFFFFFFFFFFFFFFFFFFFFFFFFFFFFFFFFFFF AND DUP14 PUSH1 0x4 PUSH1 0x0 SWAP1 SLOAD SWAP1 PUSH2 0x100 EXP SWAP1 DIV PUSH20 0xFFFFFFFFFFFFFFFFFFFFFFFFFFFFFFFFFFFFFFFF AND PUSH20 0xFFFFFFFFFFFFFFFFFFFFFFFFFFFFFFFFFFFFFFFF AND PUSH2 0x2B63 SWAP1 SWAP4 SWAP3 SWAP2 SWAP1 PUSH4 0xFFFFFFFF AND JUMP JUMPDEST JUMPDEST PUSH2 0x2A10 DUP13 PUSH1 0x3 PUSH1 0x0 SWAP1 SLOAD SWAP1 PUSH2 0x100 EXP SWAP1 DIV PUSH20 0xFFFFFFFFFFFFFFFFFFFFFFFFFFFFFFFFFFFFFFFF AND DUP13 PUSH1 0x6 PUSH1 0x0 SWAP1 SLOAD SWAP1 PUSH2 0x100 EXP SWAP1 DIV PUSH20 0xFFFFFFFFFFFFFFFFFFFFFFFFFFFFFFFFFFFFFFFF AND PUSH20 0xFFFFFFFFFFFFFFFFFFFFFFFFFFFFFFFFFFFFFFFF AND PUSH2 0x2B63 SWAP1 SWAP4 SWAP3 SWAP2 SWAP1 PUSH4 0xFFFFFFFF AND JUMP JUMPDEST JUMPDEST JUMPDEST DUP12 PUSH20 0xFFFFFFFFFFFFFFFFFFFFFFFFFFFFFFFFFFFFFFFF AND PUSH32 0xBC2263F98DE26546E651B33764C2F8166048039E90AAD0A35BAFDE8D6B81BEA5 DUP13 DUP13 DUP13 DUP13 DUP13 PUSH1 0x40 MLOAD PUSH2 0x2A60 SWAP6 SWAP5 SWAP4 SWAP3 SWAP2 SWAP1 PUSH2 0x416C JUMP JUMPDEST PUSH1 0x40 MLOAD DUP1 SWAP2 SUB SWAP1 LOG2 PUSH1 0x1 SWAP3 POP POP POP SWAP10 SWAP9 POP POP POP POP POP POP POP POP POP JUMP JUMPDEST PUSH32 0xBE1E1C7F64BB0F829D9C28407669DA5ED36DD43EFF7437E8AB88053E635F03A5 DUP2 JUMP JUMPDEST PUSH2 0x2AA7 PUSH2 0x2BEC JUMP JUMPDEST PUSH1 0x0 PUSH20 0xFFFFFFFFFFFFFFFFFFFFFFFFFFFFFFFFFFFFFFFF AND DUP2 PUSH20 0xFFFFFFFFFFFFFFFFFFFFFFFFFFFFFFFFFFFFFFFF AND EQ ISZERO PUSH2 0x2B17 JUMPI PUSH1 0x40 MLOAD PUSH32 0x8C379A000000000000000000000000000000000000000000000000000000000 DUP2 MSTORE PUSH1 0x4 ADD PUSH2 0x2B0E SWAP1 PUSH2 0x3FCC JUMP JUMPDEST PUSH1 0x40 MLOAD DUP1 SWAP2 SUB SWAP1 REVERT JUMPDEST PUSH2 0x2B20 DUP2 PUSH2 0x2C6A JUMP JUMPDEST POP JUMP JUMPDEST PUSH1 0x2 PUSH1 0x0 SWAP1 SLOAD SWAP1 PUSH2 0x100 EXP SWAP1 DIV PUSH20 0xFFFFFFFFFFFFFFFFFFFFFFFFFFFFFFFFFFFFFFFF AND DUP2 JUMP JUMPDEST PUSH1 0x0 PUSH2 0x2B5C PUSH2 0x2B56 PUSH2 0x2D2E JUMP JUMPDEST DUP4 PUSH2 0x2E48 JUMP JUMPDEST SWAP1 POP SWAP2 SWAP1 POP JUMP JUMPDEST PUSH2 0x2BE6 DUP5 PUSH4 0x23B872DD PUSH1 0xE0 SHL DUP6 DUP6 DUP6 PUSH1 0x40 MLOAD PUSH1 0x24 ADD PUSH2 0x2B84 SWAP4 SWAP3 SWAP2 SWAP1 PUSH2 0x3BC1 JUMP JUMPDEST PUSH1 0x40 MLOAD PUSH1 0x20 DUP2 DUP4 SUB SUB DUP2 MSTORE SWAP1 PUSH1 0x40 MSTORE SWAP1 PUSH28 0xFFFFFFFFFFFFFFFFFFFFFFFFFFFFFFFFFFFFFFFFFFFFFFFFFFFFFFFF NOT AND PUSH1 0x20 DUP3 ADD DUP1 MLOAD PUSH28 0xFFFFFFFFFFFFFFFFFFFFFFFFFFFFFFFFFFFFFFFFFFFFFFFFFFFFFFFF DUP4 DUP2 DUP4 AND OR DUP4 MSTORE POP POP POP POP PUSH2 0x2E7B JUMP JUMPDEST POP POP POP POP JUMP JUMPDEST PUSH2 0x2BF4 PUSH2 0x2F42 JUMP JUMPDEST PUSH20 0xFFFFFFFFFFFFFFFFFFFFFFFFFFFFFFFFFFFFFFFF AND PUSH2 0x2C12 PUSH2 0x16B0 JUMP JUMPDEST PUSH20 0xFFFFFFFFFFFFFFFFFFFFFFFFFFFFFFFFFFFFFFFF AND EQ PUSH2 0x2C68 JUMPI PUSH1 0x40 MLOAD PUSH32 0x8C379A000000000000000000000000000000000000000000000000000000000 DUP2 MSTORE PUSH1 0x4 ADD PUSH2 0x2C5F SWAP1 PUSH2 0x406C JUMP JUMPDEST PUSH1 0x40 MLOAD DUP1 SWAP2 SUB SWAP1 REVERT JUMPDEST JUMP JUMPDEST PUSH1 0x0 DUP1 PUSH1 0x0 SWAP1 SLOAD SWAP1 PUSH2 0x100 EXP SWAP1 DIV PUSH20 0xFFFFFFFFFFFFFFFFFFFFFFFFFFFFFFFFFFFFFFFF AND SWAP1 POP DUP2 PUSH1 0x0 DUP1 PUSH2 0x100 EXP DUP2 SLOAD DUP2 PUSH20 0xFFFFFFFFFFFFFFFFFFFFFFFFFFFFFFFFFFFFFFFF MUL NOT AND SWAP1 DUP4 PUSH20 0xFFFFFFFFFFFFFFFFFFFFFFFFFFFFFFFFFFFFFFFF AND MUL OR SWAP1 SSTORE POP DUP2 PUSH20 0xFFFFFFFFFFFFFFFFFFFFFFFFFFFFFFFFFFFFFFFF AND DUP2 PUSH20 0xFFFFFFFFFFFFFFFFFFFFFFFFFFFFFFFFFFFFFFFF AND PUSH32 0x8BE0079C531659141344CD1FD0A4F28419497F9722A3DAAFE3B4186F6B6457E0 PUSH1 0x40 MLOAD PUSH1 0x40 MLOAD DUP1 SWAP2 SUB SWAP1 LOG3 POP POP JUMP JUMPDEST PUSH1 0x0 PUSH32 0x0 PUSH20 0xFFFFFFFFFFFFFFFFFFFFFFFFFFFFFFFFFFFFFFFF AND ADDRESS PUSH20 0xFFFFFFFFFFFFFFFFFFFFFFFFFFFFFFFFFFFFFFFF AND EQ DUP1 ISZERO PUSH2 0x2DAA JUMPI POP PUSH32 0x0 CHAINID EQ JUMPDEST ISZERO PUSH2 0x2DD7 JUMPI PUSH32 0x0 SWAP1 POP PUSH2 0x2E45 JUMP JUMPDEST PUSH2 0x2E42 PUSH32 0x0 PUSH32 0x0 PUSH32 0x0 PUSH2 0x2F4A JUMP JUMPDEST SWAP1 POP JUMPDEST SWAP1 JUMP JUMPDEST PUSH1 0x0 DUP3 DUP3 PUSH1 0x40 MLOAD PUSH1 0x20 ADD PUSH2 0x2E5D SWAP3 SWAP2 SWAP1 PUSH2 0x3B6F JUMP JUMPDEST PUSH1 0x40 MLOAD PUSH1 0x20 DUP2 DUP4 SUB SUB DUP2 MSTORE SWAP1 PUSH1 0x40 MSTORE DUP1 MLOAD SWAP1 PUSH1 0x20 ADD KECCAK256 SWAP1 POP SWAP3 SWAP2 POP POP JUMP JUMPDEST PUSH1 0x0 PUSH2 0x2EDD DUP3 PUSH1 0x40 MLOAD DUP1 PUSH1 0x40 ADD PUSH1 0x40 MSTORE DUP1 PUSH1 0x20 DUP2 MSTORE PUSH1 0x20 ADD PUSH32 0x5361666545524332303A206C6F772D6C6576656C2063616C6C206661696C6564 DUP2 MSTORE POP DUP6 PUSH20 0xFFFFFFFFFFFFFFFFFFFFFFFFFFFFFFFFFFFFFFFF AND PUSH2 0x2F84 SWAP1 SWAP3 SWAP2 SWAP1 PUSH4 0xFFFFFFFF AND JUMP JUMPDEST SWAP1 POP PUSH1 0x0 DUP2 MLOAD GT ISZERO PUSH2 0x2F3D JUMPI DUP1 DUP1 PUSH1 0x20 ADD SWAP1 MLOAD DUP2 ADD SWAP1 PUSH2 0x2EFD SWAP2 SWAP1 PUSH2 0x374A JUMP JUMPDEST PUSH2 0x2F3C JUMPI PUSH1 0x40 MLOAD PUSH32 0x8C379A000000000000000000000000000000000000000000000000000000000 DUP2 MSTORE PUSH1 0x4 ADD PUSH2 0x2F33 SWAP1 PUSH2 0x40EC JUMP JUMPDEST PUSH1 0x40 MLOAD DUP1 SWAP2 SUB SWAP1 REVERT JUMPDEST JUMPDEST POP POP POP JUMP JUMPDEST PUSH1 0x0 CALLER SWAP1 POP SWAP1 JUMP JUMPDEST PUSH1 0x0 DUP4 DUP4 DUP4 CHAINID ADDRESS PUSH1 0x40 MLOAD PUSH1 0x20 ADD PUSH2 0x2F65 SWAP6 SWAP5 SWAP4 SWAP3 SWAP2 SWAP1 PUSH2 0x3E81 JUMP JUMPDEST PUSH1 0x40 MLOAD PUSH1 0x20 DUP2 DUP4 SUB SUB DUP2 MSTORE SWAP1 PUSH1 0x40 MSTORE DUP1 MLOAD SWAP1 PUSH1 0x20 ADD KECCAK256 SWAP1 POP SWAP4 SWAP3 POP POP POP JUMP JUMPDEST PUSH1 0x60 PUSH2 0x2F93 DUP5 DUP5 PUSH1 0x0 DUP6 PUSH2 0x2F9C JUMP JUMPDEST SWAP1 POP SWAP4 SWAP3 POP POP POP JUMP JUMPDEST PUSH1 0x60 DUP3 SELFBALANCE LT ISZERO PUSH2 0x2FE1 JUMPI PUSH1 0x40 MLOAD PUSH32 0x8C379A000000000000000000000000000000000000000000000000000000000 DUP2 MSTORE PUSH1 0x4 ADD PUSH2 0x2FD8 SWAP1 PUSH2 0x400C JUMP JUMPDEST PUSH1 0x40 MLOAD DUP1 SWAP2 SUB SWAP1 REVERT JUMPDEST PUSH2 0x2FEA DUP6 PUSH2 0x30B0 JUMP JUMPDEST PUSH2 0x3029 JUMPI PUSH1 0x40 MLOAD PUSH32 0x8C379A000000000000000000000000000000000000000000000000000000000 DUP2 MSTORE PUSH1 0x4 ADD PUSH2 0x3020 SWAP1 PUSH2 0x40CC JUMP JUMPDEST PUSH1 0x40 MLOAD DUP1 SWAP2 SUB SWAP1 REVERT JUMPDEST PUSH1 0x0 DUP1 DUP7 PUSH20 0xFFFFFFFFFFFFFFFFFFFFFFFFFFFFFFFFFFFFFFFF AND DUP6 DUP8 PUSH1 0x40 MLOAD PUSH2 0x3052 SWAP2 SWAP1 PUSH2 0x3B58 JUMP JUMPDEST PUSH1 0x0 PUSH1 0x40 MLOAD DUP1 DUP4 SUB DUP2 DUP6 DUP8 GAS CALL SWAP3 POP POP POP RETURNDATASIZE DUP1 PUSH1 0x0 DUP2 EQ PUSH2 0x308F JUMPI PUSH1 0x40 MLOAD SWAP2 POP PUSH1 0x1F NOT PUSH1 0x3F RETURNDATASIZE ADD AND DUP3 ADD PUSH1 0x40 MSTORE RETURNDATASIZE DUP3 MSTORE RETURNDATASIZE PUSH1 0x0 PUSH1 0x20 DUP5 ADD RETURNDATACOPY PUSH2 0x3094 JUMP JUMPDEST PUSH1 0x60 SWAP2 POP JUMPDEST POP SWAP2 POP SWAP2 POP PUSH2 0x30A4 DUP3 DUP3 DUP7 PUSH2 0x30D3 JUMP JUMPDEST SWAP3 POP POP POP SWAP5 SWAP4 POP POP POP POP JUMP JUMPDEST PUSH1 0x0 DUP1 DUP3 PUSH20 0xFFFFFFFFFFFFFFFFFFFFFFFFFFFFFFFFFFFFFFFF AND EXTCODESIZE GT SWAP1 POP SWAP2 SWAP1 POP JUMP JUMPDEST PUSH1 0x60 DUP4 ISZERO PUSH2 0x30E3 JUMPI DUP3 SWAP1 POP PUSH2 0x3133 JUMP JUMPDEST PUSH1 0x0 DUP4 MLOAD GT ISZERO PUSH2 0x30F6 JUMPI DUP3 MLOAD DUP1 DUP5 PUSH1 0x20 ADD REVERT JUMPDEST DUP2 PUSH1 0x40 MLOAD PUSH32 0x8C379A000000000000000000000000000000000000000000000000000000000 DUP2 MSTORE PUSH1 0x4 ADD PUSH2 0x312A SWAP2 SWAP1 PUSH2 0x3F6A JUMP JUMPDEST PUSH1 0x40 MLOAD DUP1 SWAP2 SUB SWAP1 REVERT JUMPDEST SWAP4 SWAP3 POP POP POP JUMP JUMPDEST PUSH1 0x0 PUSH2 0x314D PUSH2 0x3148 DUP5 PUSH2 0x41E4 JUMP JUMPDEST PUSH2 0x41BF JUMP JUMPDEST SWAP1 POP DUP1 DUP4 DUP3 MSTORE PUSH1 0x20 DUP3 ADD SWAP1 POP DUP3 DUP6 PUSH1 0x20 DUP7 MUL DUP3 ADD GT ISZERO PUSH2 0x3170 JUMPI PUSH2 0x316F PUSH2 0x44ED JUMP JUMPDEST JUMPDEST PUSH1 0x0 JUMPDEST DUP6 DUP2 LT ISZERO PUSH2 0x31A0 JUMPI DUP2 PUSH2 0x3186 DUP9 DUP3 PUSH2 0x3287 JUMP JUMPDEST DUP5 MSTORE PUSH1 0x20 DUP5 ADD SWAP4 POP PUSH1 0x20 DUP4 ADD SWAP3 POP POP PUSH1 0x1 DUP2 ADD SWAP1 POP PUSH2 0x3173 JUMP JUMPDEST POP POP POP SWAP4 SWAP3 POP POP POP JUMP JUMPDEST PUSH1 0x0 PUSH2 0x31BD PUSH2 0x31B8 DUP5 PUSH2 0x4210 JUMP JUMPDEST PUSH2 0x41BF JUMP JUMPDEST SWAP1 POP DUP3 DUP2 MSTORE PUSH1 0x20 DUP2 ADD DUP5 DUP5 DUP5 ADD GT ISZERO PUSH2 0x31D9 JUMPI PUSH2 0x31D8 PUSH2 0x44F2 JUMP JUMPDEST JUMPDEST PUSH2 0x31E4 DUP5 DUP3 DUP6 PUSH2 0x4395 JUMP JUMPDEST POP SWAP4 SWAP3 POP POP POP JUMP JUMPDEST PUSH1 0x0 DUP2 CALLDATALOAD SWAP1 POP PUSH2 0x31FB DUP2 PUSH2 0x4799 JUMP JUMPDEST SWAP3 SWAP2 POP POP JUMP JUMPDEST PUSH1 0x0 DUP3 PUSH1 0x1F DUP4 ADD SLT PUSH2 0x3216 JUMPI PUSH2 0x3215 PUSH2 0x44E8 JUMP JUMPDEST JUMPDEST DUP2 CALLDATALOAD PUSH2 0x3226 DUP5 DUP3 PUSH1 0x20 DUP7 ADD PUSH2 0x313A JUMP JUMPDEST SWAP2 POP POP SWAP3 SWAP2 POP POP JUMP JUMPDEST PUSH1 0x0 DUP2 MLOAD SWAP1 POP PUSH2 0x323E DUP2 PUSH2 0x47B0 JUMP JUMPDEST SWAP3 SWAP2 POP POP JUMP JUMPDEST PUSH1 0x0 DUP2 CALLDATALOAD SWAP1 POP PUSH2 0x3253 DUP2 PUSH2 0x47C7 JUMP JUMPDEST SWAP3 SWAP2 POP POP JUMP JUMPDEST PUSH1 0x0 DUP3 PUSH1 0x1F DUP4 ADD SLT PUSH2 0x326E JUMPI PUSH2 0x326D PUSH2 0x44E8 JUMP JUMPDEST JUMPDEST DUP2 CALLDATALOAD PUSH2 0x327E DUP5 DUP3 PUSH1 0x20 DUP7 ADD PUSH2 0x31AA JUMP JUMPDEST SWAP2 POP POP SWAP3 SWAP2 POP POP JUMP JUMPDEST PUSH1 0x0 DUP2 CALLDATALOAD SWAP1 POP PUSH2 0x3296 DUP2 PUSH2 0x47DE JUMP JUMPDEST SWAP3 SWAP2 POP POP JUMP JUMPDEST PUSH1 0x0 DUP2 CALLDATALOAD SWAP1 POP PUSH2 0x32AB DUP2 PUSH2 0x47F5 JUMP JUMPDEST SWAP3 SWAP2 POP POP JUMP JUMPDEST PUSH1 0x0 PUSH1 0x20 DUP3 DUP5 SUB SLT ISZERO PUSH2 0x32C7 JUMPI PUSH2 0x32C6 PUSH2 0x44FC JUMP JUMPDEST JUMPDEST PUSH1 0x0 PUSH2 0x32D5 DUP5 DUP3 DUP6 ADD PUSH2 0x31EC JUMP JUMPDEST SWAP2 POP POP SWAP3 SWAP2 POP POP JUMP JUMPDEST PUSH1 0x0 DUP1 PUSH1 0x0 DUP1 PUSH1 0x0 DUP1 PUSH1 0xC0 DUP8 DUP10 SUB SLT ISZERO PUSH2 0x32FB JUMPI PUSH2 0x32FA PUSH2 0x44FC JUMP JUMPDEST JUMPDEST PUSH1 0x0 PUSH2 0x3309 DUP10 DUP3 DUP11 ADD PUSH2 0x31EC JUMP JUMPDEST SWAP7 POP POP PUSH1 0x20 PUSH2 0x331A DUP10 DUP3 DUP11 ADD PUSH2 0x31EC JUMP JUMPDEST SWAP6 POP POP PUSH1 0x40 PUSH2 0x332B DUP10 DUP3 DUP11 ADD PUSH2 0x31EC JUMP JUMPDEST SWAP5 POP POP PUSH1 0x60 PUSH2 0x333C DUP10 DUP3 DUP11 ADD PUSH2 0x31EC JUMP JUMPDEST SWAP4 POP POP PUSH1 0x80 PUSH2 0x334D DUP10 DUP3 DUP11 ADD PUSH2 0x31EC JUMP JUMPDEST SWAP3 POP POP PUSH1 0xA0 PUSH2 0x335E DUP10 DUP3 DUP11 ADD PUSH2 0x31EC JUMP JUMPDEST SWAP2 POP POP SWAP3 SWAP6 POP SWAP3 SWAP6 POP SWAP3 SWAP6 JUMP JUMPDEST PUSH1 0x0 DUP1 PUSH1 0x0 DUP1 PUSH1 0x80 DUP6 DUP8 SUB SLT ISZERO PUSH2 0x3385 JUMPI PUSH2 0x3384 PUSH2 0x44FC JUMP JUMPDEST JUMPDEST PUSH1 0x0 PUSH2 0x3393 DUP8 DUP3 DUP9 ADD PUSH2 0x31EC JUMP JUMPDEST SWAP5 POP POP PUSH1 0x20 PUSH2 0x33A4 DUP8 DUP3 DUP9 ADD PUSH2 0x31EC JUMP JUMPDEST SWAP4 POP POP PUSH1 0x40 PUSH2 0x33B5 DUP8 DUP3 DUP9 ADD PUSH2 0x3287 JUMP JUMPDEST SWAP3 POP POP PUSH1 0x60 DUP6 ADD CALLDATALOAD PUSH8 0xFFFFFFFFFFFFFFFF DUP2 GT ISZERO PUSH2 0x33D6 JUMPI PUSH2 0x33D5 PUSH2 0x44F7 JUMP JUMPDEST JUMPDEST PUSH2 0x33E2 DUP8 DUP3 DUP9 ADD PUSH2 0x3259 JUMP JUMPDEST SWAP2 POP POP SWAP3 SWAP6 SWAP2 SWAP5 POP SWAP3 POP JUMP JUMPDEST PUSH1 0x0 DUP1 PUSH1 0x0 DUP1 PUSH1 0x0 DUP1 PUSH1 0x0 DUP1 PUSH1 0x0 PUSH2 0x120 DUP11 DUP13 SUB SLT ISZERO PUSH2 0x3411 JUMPI PUSH2 0x3410 PUSH2 0x44FC JUMP JUMPDEST JUMPDEST PUSH1 0x0 PUSH2 0x341F DUP13 DUP3 DUP14 ADD PUSH2 0x31EC JUMP JUMPDEST SWAP10 POP POP PUSH1 0x20 DUP11 ADD CALLDATALOAD PUSH8 0xFFFFFFFFFFFFFFFF DUP2 GT ISZERO PUSH2 0x3440 JUMPI PUSH2 0x343F PUSH2 0x44F7 JUMP JUMPDEST JUMPDEST PUSH2 0x344C DUP13 DUP3 DUP14 ADD PUSH2 0x3201 JUMP JUMPDEST SWAP9 POP POP PUSH1 0x40 DUP11 ADD CALLDATALOAD PUSH8 0xFFFFFFFFFFFFFFFF DUP2 GT ISZERO PUSH2 0x346D JUMPI PUSH2 0x346C PUSH2 0x44F7 JUMP JUMPDEST JUMPDEST PUSH2 0x3479 DUP13 DUP3 DUP14 ADD PUSH2 0x3201 JUMP JUMPDEST SWAP8 POP POP PUSH1 0x60 DUP11 ADD CALLDATALOAD PUSH8 0xFFFFFFFFFFFFFFFF DUP2 GT ISZERO PUSH2 0x349A JUMPI PUSH2 0x3499 PUSH2 0x44F7 JUMP JUMPDEST JUMPDEST PUSH2 0x34A6 DUP13 DUP3 DUP14 ADD PUSH2 0x3201 JUMP JUMPDEST SWAP7 POP POP PUSH1 0x80 PUSH2 0x34B7 DUP13 DUP3 DUP14 ADD PUSH2 0x3287 JUMP JUMPDEST SWAP6 POP POP PUSH1 0xA0 PUSH2 0x34C8 DUP13 DUP3 DUP14 ADD PUSH2 0x3287 JUMP JUMPDEST SWAP5 POP POP PUSH1 0xC0 PUSH2 0x34D9 DUP13 DUP3 DUP14 ADD PUSH2 0x329C JUMP JUMPDEST SWAP4 POP POP PUSH1 0xE0 PUSH2 0x34EA DUP13 DUP3 DUP14 ADD PUSH2 0x3244 JUMP JUMPDEST SWAP3 POP POP PUSH2 0x100 PUSH2 0x34FC DUP13 DUP3 DUP14 ADD PUSH2 0x3244 JUMP JUMPDEST SWAP2 POP POP SWAP3 SWAP6 SWAP9 POP SWAP3 SWAP6 SWAP9 POP SWAP3 SWAP6 SWAP9 JUMP JUMPDEST PUSH1 0x0 DUP1 PUSH1 0x0 DUP1 PUSH1 0x0 DUP1 PUSH1 0x0 PUSH1 0xE0 DUP9 DUP11 SUB SLT ISZERO PUSH2 0x352B JUMPI PUSH2 0x352A PUSH2 0x44FC JUMP JUMPDEST JUMPDEST PUSH1 0x0 PUSH2 0x3539 DUP11 DUP3 DUP12 ADD PUSH2 0x31EC JUMP JUMPDEST SWAP8 POP POP PUSH1 0x20 DUP9 ADD CALLDATALOAD PUSH8 0xFFFFFFFFFFFFFFFF DUP2 GT ISZERO PUSH2 0x355A JUMPI PUSH2 0x3559 PUSH2 0x44F7 JUMP JUMPDEST JUMPDEST PUSH2 0x3566 DUP11 DUP3 DUP12 ADD PUSH2 0x3201 JUMP JUMPDEST SWAP7 POP POP PUSH1 0x40 PUSH2 0x3577 DUP11 DUP3 DUP12 ADD PUSH2 0x3287 JUMP JUMPDEST SWAP6 POP POP PUSH1 0x60 PUSH2 0x3588 DUP11 DUP3 DUP12 ADD PUSH2 0x3287 JUMP JUMPDEST SWAP5 POP POP PUSH1 0x80 PUSH2 0x3599 DUP11 DUP3 DUP12 ADD PUSH2 0x329C JUMP JUMPDEST SWAP4 POP POP PUSH1 0xA0 PUSH2 0x35AA DUP11 DUP3 DUP12 ADD PUSH2 0x3244 JUMP JUMPDEST SWAP3 POP POP PUSH1 0xC0 PUSH2 0x35BB DUP11 DUP3 DUP12 ADD PUSH2 0x3244 JUMP JUMPDEST SWAP2 POP POP SWAP3 SWAP6 SWAP9 SWAP2 SWAP5 SWAP8 POP SWAP3 SWAP6 POP JUMP JUMPDEST PUSH1 0x0 DUP1 PUSH1 0x0 DUP1 PUSH1 0x0 DUP1 PUSH1 0x0 DUP1 PUSH2 0x100 DUP10 DUP12 SUB SLT ISZERO PUSH2 0x35EB JUMPI PUSH2 0x35EA PUSH2 0x44FC JUMP JUMPDEST JUMPDEST PUSH1 0x0 PUSH2 0x35F9 DUP12 DUP3 DUP13 ADD PUSH2 0x31EC JUMP JUMPDEST SWAP9 POP POP PUSH1 0x20 PUSH2 0x360A DUP12 DUP3 DUP13 ADD PUSH2 0x3287 JUMP JUMPDEST SWAP8 POP POP PUSH1 0x40 PUSH2 0x361B DUP12 DUP3 DUP13 ADD PUSH2 0x3287 JUMP JUMPDEST SWAP7 POP POP PUSH1 0x60 PUSH2 0x362C DUP12 DUP3 DUP13 ADD PUSH2 0x3287 JUMP JUMPDEST SWAP6 POP POP PUSH1 0x80 PUSH2 0x363D DUP12 DUP3 DUP13 ADD PUSH2 0x3287 JUMP JUMPDEST SWAP5 POP POP PUSH1 0xA0 PUSH2 0x364E DUP12 DUP3 DUP13 ADD PUSH2 0x329C JUMP JUMPDEST SWAP4 POP POP PUSH1 0xC0 PUSH2 0x365F DUP12 DUP3 DUP13 ADD PUSH2 0x3244 JUMP JUMPDEST SWAP3 POP POP PUSH1 0xE0 PUSH2 0x3670 DUP12 DUP3 DUP13 ADD PUSH2 0x3244 JUMP JUMPDEST SWAP2 POP POP SWAP3 SWAP6 SWAP9 POP SWAP3 SWAP6 SWAP9 SWAP1 SWAP4 SWAP7 POP JUMP JUMPDEST PUSH1 0x0 DUP1 PUSH1 0x0 DUP1 PUSH1 0x0 DUP1 PUSH1 0x0 DUP1 PUSH1 0x0 PUSH2 0x120 DUP11 DUP13 SUB SLT ISZERO PUSH2 0x36A3 JUMPI PUSH2 0x36A2 PUSH2 0x44FC JUMP JUMPDEST JUMPDEST PUSH1 0x0 PUSH2 0x36B1 DUP13 DUP3 DUP14 ADD PUSH2 0x31EC JUMP JUMPDEST SWAP10 POP POP PUSH1 0x20 PUSH2 0x36C2 DUP13 DUP3 DUP14 ADD PUSH2 0x3287 JUMP JUMPDEST SWAP9 POP POP PUSH1 0x40 PUSH2 0x36D3 DUP13 DUP3 DUP14 ADD PUSH2 0x3287 JUMP JUMPDEST SWAP8 POP POP PUSH1 0x60 PUSH2 0x36E4 DUP13 DUP3 DUP14 ADD PUSH2 0x3287 JUMP JUMPDEST SWAP7 POP POP PUSH1 0x80 PUSH2 0x36F5 DUP13 DUP3 DUP14 ADD PUSH2 0x3287 JUMP JUMPDEST SWAP6 POP POP PUSH1 0xA0 PUSH2 0x3706 DUP13 DUP3 DUP14 ADD PUSH2 0x329C JUMP JUMPDEST SWAP5 POP POP PUSH1 0xC0 PUSH2 0x3717 DUP13 DUP3 DUP14 ADD PUSH2 0x329C JUMP JUMPDEST SWAP4 POP POP PUSH1 0xE0 PUSH2 0x3728 DUP13 DUP3 DUP14 ADD PUSH2 0x3244 JUMP JUMPDEST SWAP3 POP POP PUSH2 0x100 PUSH2 0x373A DUP13 DUP3 DUP14 ADD PUSH2 0x3244 JUMP JUMPDEST SWAP2 POP POP SWAP3 SWAP6 SWAP9 POP SWAP3 SWAP6 SWAP9 POP SWAP3 SWAP6 SWAP9 JUMP JUMPDEST PUSH1 0x0 PUSH1 0x20 DUP3 DUP5 SUB SLT ISZERO PUSH2 0x3760 JUMPI PUSH2 0x375F PUSH2 0x44FC JUMP JUMPDEST JUMPDEST PUSH1 0x0 PUSH2 0x376E DUP5 DUP3 DUP6 ADD PUSH2 0x322F JUMP JUMPDEST SWAP2 POP POP SWAP3 SWAP2 POP POP JUMP JUMPDEST PUSH1 0x0 PUSH2 0x3783 DUP4 DUP4 PUSH2 0x3B05 JUMP JUMPDEST PUSH1 0x20 DUP4 ADD SWAP1 POP SWAP3 SWAP2 POP POP JUMP JUMPDEST PUSH1 0x0 PUSH2 0x379B DUP4 DUP4 PUSH2 0x3B23 JUMP JUMPDEST PUSH1 0x20 DUP4 ADD SWAP1 POP SWAP3 SWAP2 POP POP JUMP JUMPDEST PUSH2 0x37B0 DUP2 PUSH2 0x42C2 JUMP JUMPDEST DUP3 MSTORE POP POP JUMP JUMPDEST PUSH1 0x0 PUSH2 0x37C1 DUP3 PUSH2 0x4251 JUMP JUMPDEST PUSH2 0x37CB DUP2 DUP6 PUSH2 0x427F JUMP JUMPDEST SWAP4 POP PUSH2 0x37D6 DUP4 PUSH2 0x4241 JUMP JUMPDEST DUP1 PUSH1 0x0 JUMPDEST DUP4 DUP2 LT ISZERO PUSH2 0x3807 JUMPI DUP2 MLOAD PUSH2 0x37EE DUP9 DUP3 PUSH2 0x3777 JUMP JUMPDEST SWAP8 POP PUSH2 0x37F9 DUP4 PUSH2 0x4272 JUMP JUMPDEST SWAP3 POP POP PUSH1 0x1 DUP2 ADD SWAP1 POP PUSH2 0x37DA JUMP JUMPDEST POP DUP6 SWAP4 POP POP POP POP SWAP3 SWAP2 POP POP JUMP JUMPDEST PUSH1 0x0 PUSH2 0x381F DUP3 PUSH2 0x4251 JUMP JUMPDEST PUSH2 0x3829 DUP2 DUP6 PUSH2 0x4290 JUMP JUMPDEST SWAP4 POP PUSH2 0x3834 DUP4 PUSH2 0x4241 JUMP JUMPDEST DUP1 PUSH1 0x0 JUMPDEST DUP4 DUP2 LT ISZERO PUSH2 0x3865 JUMPI DUP2 MLOAD PUSH2 0x384C DUP9 DUP3 PUSH2 0x378F JUMP JUMPDEST SWAP8 POP PUSH2 0x3857 DUP4 PUSH2 0x4272 JUMP JUMPDEST SWAP3 POP POP PUSH1 0x1 DUP2 ADD SWAP1 POP PUSH2 0x3838 JUMP JUMPDEST POP DUP6 SWAP4 POP POP POP POP SWAP3 SWAP2 POP POP JUMP JUMPDEST PUSH2 0x387B DUP2 PUSH2 0x42D4 JUMP JUMPDEST DUP3 MSTORE POP POP JUMP JUMPDEST PUSH2 0x388A DUP2 PUSH2 0x42E0 JUMP JUMPDEST DUP3 MSTORE POP POP JUMP JUMPDEST PUSH2 0x38A1 PUSH2 0x389C DUP3 PUSH2 0x42E0 JUMP JUMPDEST PUSH2 0x4451 JUMP JUMPDEST DUP3 MSTORE POP POP JUMP JUMPDEST PUSH2 0x38B0 DUP2 PUSH2 0x42EA JUMP JUMPDEST DUP3 MSTORE POP POP JUMP JUMPDEST PUSH1 0x0 PUSH2 0x38C1 DUP3 PUSH2 0x425C JUMP JUMPDEST PUSH2 0x38CB DUP2 DUP6 PUSH2 0x429B JUMP JUMPDEST SWAP4 POP PUSH2 0x38DB DUP2 DUP6 PUSH1 0x20 DUP7 ADD PUSH2 0x43A4 JUMP JUMPDEST DUP1 DUP5 ADD SWAP2 POP POP SWAP3 SWAP2 POP POP JUMP JUMPDEST PUSH2 0x38F0 DUP2 PUSH2 0x434D JUMP JUMPDEST DUP3 MSTORE POP POP JUMP JUMPDEST PUSH2 0x38FF DUP2 PUSH2 0x435F JUMP JUMPDEST DUP3 MSTORE POP POP JUMP JUMPDEST PUSH1 0x0 PUSH2 0x3910 DUP3 PUSH2 0x4267 JUMP JUMPDEST PUSH2 0x391A DUP2 DUP6 PUSH2 0x42A6 JUMP JUMPDEST SWAP4 POP PUSH2 0x392A DUP2 DUP6 PUSH1 0x20 DUP7 ADD PUSH2 0x43A4 JUMP JUMPDEST PUSH2 0x3933 DUP2 PUSH2 0x4501 JUMP JUMPDEST DUP5 ADD SWAP2 POP POP SWAP3 SWAP2 POP POP JUMP JUMPDEST PUSH1 0x0 PUSH2 0x394B PUSH1 0x10 DUP4 PUSH2 0x42A6 JUMP JUMPDEST SWAP2 POP PUSH2 0x3956 DUP3 PUSH2 0x4512 JUMP JUMPDEST PUSH1 0x20 DUP3 ADD SWAP1 POP SWAP2 SWAP1 POP JUMP JUMPDEST PUSH1 0x0 PUSH2 0x396E PUSH1 0xD DUP4 PUSH2 0x42A6 JUMP JUMPDEST SWAP2 POP PUSH2 0x3979 DUP3 PUSH2 0x453B JUMP JUMPDEST PUSH1 0x20 DUP3 ADD SWAP1 POP SWAP2 SWAP1 POP JUMP JUMPDEST PUSH1 0x0 PUSH2 0x3991 PUSH1 0x26 DUP4 PUSH2 0x42A6 JUMP JUMPDEST SWAP2 POP PUSH2 0x399C DUP3 PUSH2 0x4564 JUMP JUMPDEST PUSH1 0x40 DUP3 ADD SWAP1 POP SWAP2 SWAP1 POP JUMP JUMPDEST PUSH1 0x0 PUSH2 0x39B4 PUSH1 0x10 DUP4 PUSH2 0x42A6 JUMP JUMPDEST SWAP2 POP PUSH2 0x39BF DUP3 PUSH2 0x45B3 JUMP JUMPDEST PUSH1 0x20 DUP3 ADD SWAP1 POP SWAP2 SWAP1 POP JUMP JUMPDEST PUSH1 0x0 PUSH2 0x39D7 PUSH1 0x2 DUP4 PUSH2 0x42B7 JUMP JUMPDEST SWAP2 POP PUSH2 0x39E2 DUP3 PUSH2 0x45DC JUMP JUMPDEST PUSH1 0x2 DUP3 ADD SWAP1 POP SWAP2 SWAP1 POP JUMP JUMPDEST PUSH1 0x0 PUSH2 0x39FA PUSH1 0x26 DUP4 PUSH2 0x42A6 JUMP JUMPDEST SWAP2 POP PUSH2 0x3A05 DUP3 PUSH2 0x4605 JUMP JUMPDEST PUSH1 0x40 DUP3 ADD SWAP1 POP SWAP2 SWAP1 POP JUMP JUMPDEST PUSH1 0x0 PUSH2 0x3A1D PUSH1 0x10 DUP4 PUSH2 0x42A6 JUMP JUMPDEST SWAP2 POP PUSH2 0x3A28 DUP3 PUSH2 0x4654 JUMP JUMPDEST PUSH1 0x20 DUP3 ADD SWAP1 POP SWAP2 SWAP1 POP JUMP JUMPDEST PUSH1 0x0 PUSH2 0x3A40 PUSH1 0xA DUP4 PUSH2 0x42A6 JUMP JUMPDEST SWAP2 POP PUSH2 0x3A4B DUP3 PUSH2 0x467D JUMP JUMPDEST PUSH1 0x20 DUP3 ADD SWAP1 POP SWAP2 SWAP1 POP JUMP JUMPDEST PUSH1 0x0 PUSH2 0x3A63 PUSH1 0x20 DUP4 PUSH2 0x42A6 JUMP JUMPDEST SWAP2 POP PUSH2 0x3A6E DUP3 PUSH2 0x46A6 JUMP JUMPDEST PUSH1 0x20 DUP3 ADD SWAP1 POP SWAP2 SWAP1 POP JUMP JUMPDEST PUSH1 0x0 PUSH2 0x3A86 PUSH1 0x10 DUP4 PUSH2 0x42A6 JUMP JUMPDEST SWAP2 POP PUSH2 0x3A91 DUP3 PUSH2 0x46CF JUMP JUMPDEST PUSH1 0x20 DUP3 ADD SWAP1 POP SWAP2 SWAP1 POP JUMP JUMPDEST PUSH1 0x0 PUSH2 0x3AA9 PUSH1 0xB DUP4 PUSH2 0x42A6 JUMP JUMPDEST SWAP2 POP PUSH2 0x3AB4 DUP3 PUSH2 0x46F8 JUMP JUMPDEST PUSH1 0x20 DUP3 ADD SWAP1 POP SWAP2 SWAP1 POP JUMP JUMPDEST PUSH1 0x0 PUSH2 0x3ACC PUSH1 0x1D DUP4 PUSH2 0x42A6 JUMP JUMPDEST SWAP2 POP PUSH2 0x3AD7 DUP3 PUSH2 0x4721 JUMP JUMPDEST PUSH1 0x20 DUP3 ADD SWAP1 POP SWAP2 SWAP1 POP JUMP JUMPDEST PUSH1 0x0 PUSH2 0x3AEF PUSH1 0x2A DUP4 PUSH2 0x42A6 JUMP JUMPDEST SWAP2 POP PUSH2 0x3AFA DUP3 PUSH2 0x474A JUMP JUMPDEST PUSH1 0x40 DUP3 ADD SWAP1 POP SWAP2 SWAP1 POP JUMP JUMPDEST PUSH2 0x3B0E DUP2 PUSH2 0x4336 JUMP JUMPDEST DUP3 MSTORE POP POP JUMP JUMPDEST PUSH2 0x3B1D DUP2 PUSH2 0x4336 JUMP JUMPDEST DUP3 MSTORE POP POP JUMP JUMPDEST PUSH2 0x3B2C DUP2 PUSH2 0x4336 JUMP JUMPDEST DUP3 MSTORE POP POP JUMP JUMPDEST PUSH2 0x3B3B DUP2 PUSH2 0x4340 JUMP JUMPDEST DUP3 MSTORE POP POP JUMP JUMPDEST PUSH1 0x0 PUSH2 0x3B4D DUP3 DUP5 PUSH2 0x3814 JUMP JUMPDEST SWAP2 POP DUP2 SWAP1 POP SWAP3 SWAP2 POP POP JUMP JUMPDEST PUSH1 0x0 PUSH2 0x3B64 DUP3 DUP5 PUSH2 0x38B6 JUMP JUMPDEST SWAP2 POP DUP2 SWAP1 POP SWAP3 SWAP2 POP POP JUMP JUMPDEST PUSH1 0x0 PUSH2 0x3B7A DUP3 PUSH2 0x39CA JUMP JUMPDEST SWAP2 POP PUSH2 0x3B86 DUP3 DUP6 PUSH2 0x3890 JUMP JUMPDEST PUSH1 0x20 DUP3 ADD SWAP2 POP PUSH2 0x3B96 DUP3 DUP5 PUSH2 0x3890 JUMP JUMPDEST PUSH1 0x20 DUP3 ADD SWAP2 POP DUP2 SWAP1 POP SWAP4 SWAP3 POP POP POP JUMP JUMPDEST PUSH1 0x0 PUSH1 0x20 DUP3 ADD SWAP1 POP PUSH2 0x3BBB PUSH1 0x0 DUP4 ADD DUP5 PUSH2 0x37A7 JUMP JUMPDEST SWAP3 SWAP2 POP POP JUMP JUMPDEST PUSH1 0x0 PUSH1 0x60 DUP3 ADD SWAP1 POP PUSH2 0x3BD6 PUSH1 0x0 DUP4 ADD DUP7 PUSH2 0x37A7 JUMP JUMPDEST PUSH2 0x3BE3 PUSH1 0x20 DUP4 ADD DUP6 PUSH2 0x37A7 JUMP JUMPDEST PUSH2 0x3BF0 PUSH1 0x40 DUP4 ADD DUP5 PUSH2 0x3B14 JUMP JUMPDEST SWAP5 SWAP4 POP POP POP POP JUMP JUMPDEST PUSH1 0x0 PUSH1 0x40 DUP3 ADD SWAP1 POP PUSH2 0x3C0D PUSH1 0x0 DUP4 ADD DUP6 PUSH2 0x37A7 JUMP JUMPDEST DUP2 DUP2 SUB PUSH1 0x20 DUP4 ADD MSTORE PUSH2 0x3C1F DUP2 DUP5 PUSH2 0x37B6 JUMP JUMPDEST SWAP1 POP SWAP4 SWAP3 POP POP POP JUMP JUMPDEST PUSH1 0x0 PUSH1 0x80 DUP3 ADD SWAP1 POP DUP2 DUP2 SUB PUSH1 0x0 DUP4 ADD MSTORE PUSH2 0x3C42 DUP2 DUP8 PUSH2 0x37B6 JUMP JUMPDEST SWAP1 POP DUP2 DUP2 SUB PUSH1 0x20 DUP4 ADD MSTORE PUSH2 0x3C56 DUP2 DUP7 PUSH2 0x37B6 JUMP JUMPDEST SWAP1 POP PUSH2 0x3C65 PUSH1 0x40 DUP4 ADD DUP6 PUSH2 0x3B14 JUMP JUMPDEST PUSH2 0x3C72 PUSH1 0x60 DUP4 ADD DUP5 PUSH2 0x3B14 JUMP JUMPDEST SWAP6 SWAP5 POP POP POP POP POP JUMP JUMPDEST PUSH1 0x0 PUSH1 0x60 DUP3 ADD SWAP1 POP DUP2 DUP2 SUB PUSH1 0x0 DUP4 ADD MSTORE PUSH2 0x3C95 DUP2 DUP7 PUSH2 0x37B6 JUMP JUMPDEST SWAP1 POP PUSH2 0x3CA4 PUSH1 0x20 DUP4 ADD DUP6 PUSH2 0x3B14 JUMP JUMPDEST PUSH2 0x3CB1 PUSH1 0x40 DUP4 ADD DUP5 PUSH2 0x3B14 JUMP JUMPDEST SWAP5 SWAP4 POP POP POP POP JUMP JUMPDEST PUSH1 0x0 PUSH1 0x20 DUP3 ADD SWAP1 POP PUSH2 0x3CCE PUSH1 0x0 DUP4 ADD DUP5 PUSH2 0x3872 JUMP JUMPDEST SWAP3 SWAP2 POP POP JUMP JUMPDEST PUSH1 0x0 PUSH1 0x20 DUP3 ADD SWAP1 POP PUSH2 0x3CE9 PUSH1 0x0 DUP4 ADD DUP5 PUSH2 0x3881 JUMP JUMPDEST SWAP3 SWAP2 POP POP JUMP JUMPDEST PUSH1 0x0 PUSH1 0xE0 DUP3 ADD SWAP1 POP PUSH2 0x3D04 PUSH1 0x0 DUP4 ADD DUP11 PUSH2 0x3881 JUMP JUMPDEST PUSH2 0x3D11 PUSH1 0x20 DUP4 ADD DUP10 PUSH2 0x37A7 JUMP JUMPDEST PUSH2 0x3D1E PUSH1 0x40 DUP4 ADD DUP9 PUSH2 0x3881 JUMP JUMPDEST PUSH2 0x3D2B PUSH1 0x60 DUP4 ADD DUP8 PUSH2 0x3881 JUMP JUMPDEST PUSH2 0x3D38 PUSH1 0x80 DUP4 ADD DUP7 PUSH2 0x3881 JUMP JUMPDEST PUSH2 0x3D45 PUSH1 0xA0 DUP4 ADD DUP6 PUSH2 0x3B14 JUMP JUMPDEST PUSH2 0x3D52 PUSH1 0xC0 DUP4 ADD DUP5 PUSH2 0x3B14 JUMP JUMPDEST SWAP9 SWAP8 POP POP POP POP POP POP POP POP JUMP JUMPDEST PUSH1 0x0 PUSH1 0xA0 DUP3 ADD SWAP1 POP PUSH2 0x3D73 PUSH1 0x0 DUP4 ADD DUP9 PUSH2 0x3881 JUMP JUMPDEST PUSH2 0x3D80 PUSH1 0x20 DUP4 ADD DUP8 PUSH2 0x37A7 JUMP JUMPDEST PUSH2 0x3D8D PUSH1 0x40 DUP4 ADD DUP7 PUSH2 0x3881 JUMP JUMPDEST PUSH2 0x3D9A PUSH1 0x60 DUP4 ADD DUP6 PUSH2 0x3B14 JUMP JUMPDEST PUSH2 0x3DA7 PUSH1 0x80 DUP4 ADD DUP5 PUSH2 0x3B14 JUMP JUMPDEST SWAP7 SWAP6 POP POP POP POP POP POP JUMP JUMPDEST PUSH1 0x0 PUSH1 0xC0 DUP3 ADD SWAP1 POP PUSH2 0x3DC6 PUSH1 0x0 DUP4 ADD DUP10 PUSH2 0x3881 JUMP JUMPDEST PUSH2 0x3DD3 PUSH1 0x20 DUP4 ADD DUP9 PUSH2 0x37A7 JUMP JUMPDEST PUSH2 0x3DE0 PUSH1 0x40 DUP4 ADD DUP8 PUSH2 0x3B14 JUMP JUMPDEST PUSH2 0x3DED PUSH1 0x60 DUP4 ADD DUP7 PUSH2 0x3B14 JUMP JUMPDEST PUSH2 0x3DFA PUSH1 0x80 DUP4 ADD DUP6 PUSH2 0x3B14 JUMP JUMPDEST PUSH2 0x3E07 PUSH1 0xA0 DUP4 ADD DUP5 PUSH2 0x3B14 JUMP JUMPDEST SWAP8 SWAP7 POP POP POP POP POP POP POP JUMP JUMPDEST PUSH1 0x0 PUSH1 0xE0 DUP3 ADD SWAP1 POP PUSH2 0x3E27 PUSH1 0x0 DUP4 ADD DUP11 PUSH2 0x3881 JUMP JUMPDEST PUSH2 0x3E34 PUSH1 0x20 DUP4 ADD DUP10 PUSH2 0x37A7 JUMP JUMPDEST PUSH2 0x3E41 PUSH1 0x40 DUP4 ADD DUP9 PUSH2 0x3B14 JUMP JUMPDEST PUSH2 0x3E4E PUSH1 0x60 DUP4 ADD DUP8 PUSH2 0x3B14 JUMP JUMPDEST PUSH2 0x3E5B PUSH1 0x80 DUP4 ADD DUP7 PUSH2 0x3B14 JUMP JUMPDEST PUSH2 0x3E68 PUSH1 0xA0 DUP4 ADD DUP6 PUSH2 0x3B14 JUMP JUMPDEST PUSH2 0x3E75 PUSH1 0xC0 DUP4 ADD DUP5 PUSH2 0x3B32 JUMP JUMPDEST SWAP9 SWAP8 POP POP POP POP POP POP POP POP JUMP JUMPDEST PUSH1 0x0 PUSH1 0xA0 DUP3 ADD SWAP1 POP PUSH2 0x3E96 PUSH1 0x0 DUP4 ADD DUP9 PUSH2 0x3881 JUMP JUMPDEST PUSH2 0x3EA3 PUSH1 0x20 DUP4 ADD DUP8 PUSH2 0x3881 JUMP JUMPDEST PUSH2 0x3EB0 PUSH1 0x40 DUP4 ADD DUP7 PUSH2 0x3881 JUMP JUMPDEST PUSH2 0x3EBD PUSH1 0x60 DUP4 ADD DUP6 PUSH2 0x3B14 JUMP JUMPDEST PUSH2 0x3ECA PUSH1 0x80 DUP4 ADD DUP5 PUSH2 0x37A7 JUMP JUMPDEST SWAP7 SWAP6 POP POP POP POP POP POP JUMP JUMPDEST PUSH1 0x0 PUSH1 0x80 DUP3 ADD SWAP1 POP PUSH2 0x3EE9 PUSH1 0x0 DUP4 ADD DUP8 PUSH2 0x3881 JUMP JUMPDEST PUSH2 0x3EF6 PUSH1 0x20 DUP4 ADD DUP7 PUSH2 0x3B32 JUMP JUMPDEST PUSH2 0x3F03 PUSH1 0x40 DUP4 ADD DUP6 PUSH2 0x3881 JUMP JUMPDEST PUSH2 0x3F10 PUSH1 0x60 DUP4 ADD DUP5 PUSH2 0x3881 JUMP JUMPDEST SWAP6 SWAP5 POP POP POP POP POP JUMP JUMPDEST PUSH1 0x0 PUSH1 0x20 DUP3 ADD SWAP1 POP PUSH2 0x3F2E PUSH1 0x0 DUP4 ADD DUP5 PUSH2 0x38A7 JUMP JUMPDEST SWAP3 SWAP2 POP POP JUMP JUMPDEST PUSH1 0x0 PUSH1 0x20 DUP3 ADD SWAP1 POP PUSH2 0x3F49 PUSH1 0x0 DUP4 ADD DUP5 PUSH2 0x38E7 JUMP JUMPDEST SWAP3 SWAP2 POP POP JUMP JUMPDEST PUSH1 0x0 PUSH1 0x20 DUP3 ADD SWAP1 POP PUSH2 0x3F64 PUSH1 0x0 DUP4 ADD DUP5 PUSH2 0x38F6 JUMP JUMPDEST SWAP3 SWAP2 POP POP JUMP JUMPDEST PUSH1 0x0 PUSH1 0x20 DUP3 ADD SWAP1 POP DUP2 DUP2 SUB PUSH1 0x0 DUP4 ADD MSTORE PUSH2 0x3F84 DUP2 DUP5 PUSH2 0x3905 JUMP JUMPDEST SWAP1 POP SWAP3 SWAP2 POP POP JUMP JUMPDEST PUSH1 0x0 PUSH1 0x20 DUP3 ADD SWAP1 POP DUP2 DUP2 SUB PUSH1 0x0 DUP4 ADD MSTORE PUSH2 0x3FA5 DUP2 PUSH2 0x393E JUMP JUMPDEST SWAP1 POP SWAP2 SWAP1 POP JUMP JUMPDEST PUSH1 0x0 PUSH1 0x20 DUP3 ADD SWAP1 POP DUP2 DUP2 SUB PUSH1 0x0 DUP4 ADD MSTORE PUSH2 0x3FC5 DUP2 PUSH2 0x3961 JUMP JUMPDEST SWAP1 POP SWAP2 SWAP1 POP JUMP JUMPDEST PUSH1 0x0 PUSH1 0x20 DUP3 ADD SWAP1 POP DUP2 DUP2 SUB PUSH1 0x0 DUP4 ADD MSTORE PUSH2 0x3FE5 DUP2 PUSH2 0x3984 JUMP JUMPDEST SWAP1 POP SWAP2 SWAP1 POP JUMP JUMPDEST PUSH1 0x0 PUSH1 0x20 DUP3 ADD SWAP1 POP DUP2 DUP2 SUB PUSH1 0x0 DUP4 ADD MSTORE PUSH2 0x4005 DUP2 PUSH2 0x39A7 JUMP JUMPDEST SWAP1 POP SWAP2 SWAP1 POP JUMP JUMPDEST PUSH1 0x0 PUSH1 0x20 DUP3 ADD SWAP1 POP DUP2 DUP2 SUB PUSH1 0x0 DUP4 ADD MSTORE PUSH2 0x4025 DUP2 PUSH2 0x39ED JUMP JUMPDEST SWAP1 POP SWAP2 SWAP1 POP JUMP JUMPDEST PUSH1 0x0 PUSH1 0x20 DUP3 ADD SWAP1 POP DUP2 DUP2 SUB PUSH1 0x0 DUP4 ADD MSTORE PUSH2 0x4045 DUP2 PUSH2 0x3A10 JUMP JUMPDEST SWAP1 POP SWAP2 SWAP1 POP JUMP JUMPDEST PUSH1 0x0 PUSH1 0x20 DUP3 ADD SWAP1 POP DUP2 DUP2 SUB PUSH1 0x0 DUP4 ADD MSTORE PUSH2 0x4065 DUP2 PUSH2 0x3A33 JUMP JUMPDEST SWAP1 POP SWAP2 SWAP1 POP JUMP JUMPDEST PUSH1 0x0 PUSH1 0x20 DUP3 ADD SWAP1 POP DUP2 DUP2 SUB PUSH1 0x0 DUP4 ADD MSTORE PUSH2 0x4085 DUP2 PUSH2 0x3A56 JUMP JUMPDEST SWAP1 POP SWAP2 SWAP1 POP JUMP JUMPDEST PUSH1 0x0 PUSH1 0x20 DUP3 ADD SWAP1 POP DUP2 DUP2 SUB PUSH1 0x0 DUP4 ADD MSTORE PUSH2 0x40A5 DUP2 PUSH2 0x3A79 JUMP JUMPDEST SWAP1 POP SWAP2 SWAP1 POP JUMP JUMPDEST PUSH1 0x0 PUSH1 0x20 DUP3 ADD SWAP1 POP DUP2 DUP2 SUB PUSH1 0x0 DUP4 ADD MSTORE PUSH2 0x40C5 DUP2 PUSH2 0x3A9C JUMP JUMPDEST SWAP1 POP SWAP2 SWAP1 POP JUMP JUMPDEST PUSH1 0x0 PUSH1 0x20 DUP3 ADD SWAP1 POP DUP2 DUP2 SUB PUSH1 0x0 DUP4 ADD MSTORE PUSH2 0x40E5 DUP2 PUSH2 0x3ABF JUMP JUMPDEST SWAP1 POP SWAP2 SWAP1 POP JUMP JUMPDEST PUSH1 0x0 PUSH1 0x20 DUP3 ADD SWAP1 POP DUP2 DUP2 SUB PUSH1 0x0 DUP4 ADD MSTORE PUSH2 0x4105 DUP2 PUSH2 0x3AE2 JUMP JUMPDEST SWAP1 POP SWAP2 SWAP1 POP JUMP JUMPDEST PUSH1 0x0 PUSH1 0x20 DUP3 ADD SWAP1 POP PUSH2 0x4121 PUSH1 0x0 DUP4 ADD DUP5 PUSH2 0x3B14 JUMP JUMPDEST SWAP3 SWAP2 POP POP JUMP JUMPDEST PUSH1 0x0 PUSH1 0x80 DUP3 ADD SWAP1 POP PUSH2 0x413C PUSH1 0x0 DUP4 ADD DUP8 PUSH2 0x3B14 JUMP JUMPDEST PUSH2 0x4149 PUSH1 0x20 DUP4 ADD DUP7 PUSH2 0x3B14 JUMP JUMPDEST PUSH2 0x4156 PUSH1 0x40 DUP4 ADD DUP6 PUSH2 0x3B14 JUMP JUMPDEST PUSH2 0x4163 PUSH1 0x60 DUP4 ADD DUP5 PUSH2 0x3B14 JUMP JUMPDEST SWAP6 SWAP5 POP POP POP POP POP JUMP JUMPDEST PUSH1 0x0 PUSH1 0xA0 DUP3 ADD SWAP1 POP PUSH2 0x4181 PUSH1 0x0 DUP4 ADD DUP9 PUSH2 0x3B14 JUMP JUMPDEST PUSH2 0x418E PUSH1 0x20 DUP4 ADD DUP8 PUSH2 0x3B14 JUMP JUMPDEST PUSH2 0x419B PUSH1 0x40 DUP4 ADD DUP7 PUSH2 0x3B14 JUMP JUMPDEST PUSH2 0x41A8 PUSH1 0x60 DUP4 ADD DUP6 PUSH2 0x3B14 JUMP JUMPDEST PUSH2 0x41B5 PUSH1 0x80 DUP4 ADD DUP5 PUSH2 0x3B32 JUMP JUMPDEST SWAP7 SWAP6 POP POP POP POP POP POP JUMP JUMPDEST PUSH1 0x0 PUSH2 0x41C9 PUSH2 0x41DA JUMP JUMPDEST SWAP1 POP PUSH2 0x41D5 DUP3 DUP3 PUSH2 0x43D7 JUMP JUMPDEST SWAP2 SWAP1 POP JUMP JUMPDEST PUSH1 0x0 PUSH1 0x40 MLOAD SWAP1 POP SWAP1 JUMP JUMPDEST PUSH1 0x0 PUSH8 0xFFFFFFFFFFFFFFFF DUP3 GT ISZERO PUSH2 0x41FF JUMPI PUSH2 0x41FE PUSH2 0x44B9 JUMP JUMPDEST JUMPDEST PUSH1 0x20 DUP3 MUL SWAP1 POP PUSH1 0x20 DUP2 ADD SWAP1 POP SWAP2 SWAP1 POP JUMP JUMPDEST PUSH1 0x0 PUSH8 0xFFFFFFFFFFFFFFFF DUP3 GT ISZERO PUSH2 0x422B JUMPI PUSH2 0x422A PUSH2 0x44B9 JUMP JUMPDEST JUMPDEST PUSH2 0x4234 DUP3 PUSH2 0x4501 JUMP JUMPDEST SWAP1 POP PUSH1 0x20 DUP2 ADD SWAP1 POP SWAP2 SWAP1 POP JUMP JUMPDEST PUSH1 0x0 DUP2 SWAP1 POP PUSH1 0x20 DUP3 ADD SWAP1 POP SWAP2 SWAP1 POP JUMP JUMPDEST PUSH1 0x0 DUP2 MLOAD SWAP1 POP SWAP2 SWAP1 POP JUMP JUMPDEST PUSH1 0x0 DUP2 MLOAD SWAP1 POP SWAP2 SWAP1 POP JUMP JUMPDEST PUSH1 0x0 DUP2 MLOAD SWAP1 POP SWAP2 SWAP1 POP JUMP JUMPDEST PUSH1 0x0 PUSH1 0x20 DUP3 ADD SWAP1 POP SWAP2 SWAP1 POP JUMP JUMPDEST PUSH1 0x0 DUP3 DUP3 MSTORE PUSH1 0x20 DUP3 ADD SWAP1 POP SWAP3 SWAP2 POP POP JUMP JUMPDEST PUSH1 0x0 DUP2 SWAP1 POP SWAP3 SWAP2 POP POP JUMP JUMPDEST PUSH1 0x0 DUP2 SWAP1 POP SWAP3 SWAP2 POP POP JUMP JUMPDEST PUSH1 0x0 DUP3 DUP3 MSTORE PUSH1 0x20 DUP3 ADD SWAP1 POP SWAP3 SWAP2 POP POP JUMP JUMPDEST PUSH1 0x0 DUP2 SWAP1 POP SWAP3 SWAP2 POP POP JUMP JUMPDEST PUSH1 0x0 PUSH2 0x42CD DUP3 PUSH2 0x4316 JUMP JUMPDEST SWAP1 POP SWAP2 SWAP1 POP JUMP JUMPDEST PUSH1 0x0 DUP2 ISZERO ISZERO SWAP1 POP SWAP2 SWAP1 POP JUMP JUMPDEST PUSH1 0x0 DUP2 SWAP1 POP SWAP2 SWAP1 POP JUMP JUMPDEST PUSH1 0x0 PUSH32 0xFFFFFFFF00000000000000000000000000000000000000000000000000000000 DUP3 AND SWAP1 POP SWAP2 SWAP1 POP JUMP JUMPDEST PUSH1 0x0 PUSH20 0xFFFFFFFFFFFFFFFFFFFFFFFFFFFFFFFFFFFFFFFF DUP3 AND SWAP1 POP SWAP2 SWAP1 POP JUMP JUMPDEST PUSH1 0x0 DUP2 SWAP1 POP SWAP2 SWAP1 POP JUMP JUMPDEST PUSH1 0x0 PUSH1 0xFF DUP3 AND SWAP1 POP SWAP2 SWAP1 POP JUMP JUMPDEST PUSH1 0x0 PUSH2 0x4358 DUP3 PUSH2 0x4371 JUMP JUMPDEST SWAP1 POP SWAP2 SWAP1 POP JUMP JUMPDEST PUSH1 0x0 PUSH2 0x436A DUP3 PUSH2 0x4371 JUMP JUMPDEST SWAP1 POP SWAP2 SWAP1 POP JUMP JUMPDEST PUSH1 0x0 PUSH2 0x437C DUP3 PUSH2 0x4383 JUMP JUMPDEST SWAP1 POP SWAP2 SWAP1 POP JUMP JUMPDEST PUSH1 0x0 PUSH2 0x438E DUP3 PUSH2 0x4316 JUMP JUMPDEST SWAP1 POP SWAP2 SWAP1 POP JUMP JUMPDEST DUP3 DUP2 DUP4 CALLDATACOPY PUSH1 0x0 DUP4 DUP4 ADD MSTORE POP POP POP JUMP JUMPDEST PUSH1 0x0 JUMPDEST DUP4 DUP2 LT ISZERO PUSH2 0x43C2 JUMPI DUP1 DUP3 ADD MLOAD DUP2 DUP5 ADD MSTORE PUSH1 0x20 DUP2 ADD SWAP1 POP PUSH2 0x43A7 JUMP JUMPDEST DUP4 DUP2 GT ISZERO PUSH2 0x43D1 JUMPI PUSH1 0x0 DUP5 DUP5 ADD MSTORE JUMPDEST POP POP POP POP JUMP JUMPDEST PUSH2 0x43E0 DUP3 PUSH2 0x4501 JUMP JUMPDEST DUP2 ADD DUP2 DUP2 LT PUSH8 0xFFFFFFFFFFFFFFFF DUP3 GT OR ISZERO PUSH2 0x43FF JUMPI PUSH2 0x43FE PUSH2 0x44B9 JUMP JUMPDEST JUMPDEST DUP1 PUSH1 0x40 MSTORE POP POP POP JUMP JUMPDEST PUSH1 0x0 PUSH2 0x4413 DUP3 PUSH2 0x4336 JUMP JUMPDEST SWAP2 POP PUSH32 0xFFFFFFFFFFFFFFFFFFFFFFFFFFFFFFFFFFFFFFFFFFFFFFFFFFFFFFFFFFFFFFFF DUP3 EQ ISZERO PUSH2 0x4446 JUMPI PUSH2 0x4445 PUSH2 0x445B JUMP JUMPDEST JUMPDEST PUSH1 0x1 DUP3 ADD SWAP1 POP SWAP2 SWAP1 POP JUMP JUMPDEST PUSH1 0x0 DUP2 SWAP1 POP SWAP2 SWAP1 POP JUMP JUMPDEST PUSH32 0x4E487B7100000000000000000000000000000000000000000000000000000000 PUSH1 0x0 MSTORE PUSH1 0x11 PUSH1 0x4 MSTORE PUSH1 0x24 PUSH1 0x0 REVERT JUMPDEST PUSH32 0x4E487B7100000000000000000000000000000000000000000000000000000000 PUSH1 0x0 MSTORE PUSH1 0x32 PUSH1 0x4 MSTORE PUSH1 0x24 PUSH1 0x0 REVERT JUMPDEST PUSH32 0x4E487B7100000000000000000000000000000000000000000000000000000000 PUSH1 0x0 MSTORE PUSH1 0x41 PUSH1 0x4 MSTORE PUSH1 0x24 PUSH1 0x0 REVERT JUMPDEST PUSH1 0x0 DUP1 REVERT JUMPDEST PUSH1 0x0 DUP1 REVERT JUMPDEST PUSH1 0x0 DUP1 REVERT JUMPDEST PUSH1 0x0 DUP1 REVERT JUMPDEST PUSH1 0x0 DUP1 REVERT JUMPDEST PUSH1 0x0 PUSH1 0x1F NOT PUSH1 0x1F DUP4 ADD AND SWAP1 POP SWAP2 SWAP1 POP JUMP JUMPDEST PUSH32 0x53435020616D6F756E74206572726F7200000000000000000000000000000000 PUSH1 0x0 DUP3 ADD MSTORE POP JUMP JUMPDEST PUSH32 0x74696D6520657870697265642100000000000000000000000000000000000000 PUSH1 0x0 DUP3 ADD MSTORE POP JUMP JUMPDEST PUSH32 0x4F776E61626C653A206E6577206F776E657220697320746865207A65726F2061 PUSH1 0x0 DUP3 ADD MSTORE PUSH32 0x6464726573730000000000000000000000000000000000000000000000000000 PUSH1 0x20 DUP3 ADD MSTORE POP JUMP JUMPDEST PUSH32 0x4D4B5920616D6F756E74206572726F7200000000000000000000000000000000 PUSH1 0x0 DUP3 ADD MSTORE POP JUMP JUMPDEST PUSH32 0x1901000000000000000000000000000000000000000000000000000000000000 PUSH1 0x0 DUP3 ADD MSTORE POP JUMP JUMPDEST PUSH32 0x416464726573733A20696E73756666696369656E742062616C616E636520666F PUSH1 0x0 DUP3 ADD MSTORE PUSH32 0x722063616C6C0000000000000000000000000000000000000000000000000000 PUSH1 0x20 DUP3 ADD MSTORE POP JUMP JUMPDEST PUSH32 0x75736572206E6F6E6365206572726F7200000000000000000000000000000000 PUSH1 0x0 DUP3 ADD MSTORE POP JUMP JUMPDEST PUSH32 0x75736572206572726F7200000000000000000000000000000000000000000000 PUSH1 0x0 DUP3 ADD MSTORE POP JUMP JUMPDEST PUSH32 0x4F776E61626C653A2063616C6C6572206973206E6F7420746865206F776E6572 PUSH1 0x0 DUP3 ADD MSTORE POP JUMP JUMPDEST PUSH32 0x48424B20616D6F756E74206572726F7200000000000000000000000000000000 PUSH1 0x0 DUP3 ADD MSTORE POP JUMP JUMPDEST PUSH32 0x7369676E206572726F7221000000000000000000000000000000000000000000 PUSH1 0x0 DUP3 ADD MSTORE POP JUMP JUMPDEST PUSH32 0x416464726573733A2063616C6C20746F206E6F6E2D636F6E7472616374000000 PUSH1 0x0 DUP3 ADD MSTORE POP JUMP JUMPDEST PUSH32 0x5361666545524332303A204552433230206F7065726174696F6E20646964206E PUSH1 0x0 DUP3 ADD MSTORE PUSH32 0x6F74207375636365656400000000000000000000000000000000000000000000 PUSH1 0x20 DUP3 ADD MSTORE POP JUMP JUMPDEST PUSH2 0x47A2 DUP2 PUSH2 0x42C2 JUMP JUMPDEST DUP2 EQ PUSH2 0x47AD JUMPI PUSH1 0x0 DUP1 REVERT JUMPDEST POP JUMP JUMPDEST PUSH2 0x47B9 DUP2 PUSH2 0x42D4 JUMP JUMPDEST DUP2 EQ PUSH2 0x47C4 JUMPI PUSH1 0x0 DUP1 REVERT JUMPDEST POP JUMP JUMPDEST PUSH2 0x47D0 DUP2 PUSH2 0x42E0 JUMP JUMPDEST DUP2 EQ PUSH2 0x47DB JUMPI PUSH1 0x0 DUP1 REVERT JUMPDEST POP JUMP JUMPDEST PUSH2 0x47E7 DUP2 PUSH2 0x4336 JUMP JUMPDEST DUP2 EQ PUSH2 0x47F2 JUMPI PUSH1 0x0 DUP1 REVERT JUMPDEST POP JUMP JUMPDEST PUSH2 0x47FE DUP2 PUSH2 0x4340 JUMP JUMPDEST DUP2 EQ PUSH2 0x4809 JUMPI PUSH1 0x0 DUP1 REVERT JUMPDEST POP JUMP INVALID LOG2 PUSH5 0x6970667358 0x22 SLT KECCAK256 ADDMOD MSIZE 0xC9 0xD5 SLT PC PUSH4 0x8B9AB294 0xC6 DUP8 INVALID BASEFEE 0x29 PUSH18 0xD32250249F468ADD391DA43CFAD25A64736F PUSH13 0x63430008070033000000000000 "
    },
    "gasEstimates": {
      "creation": {
        "codeDepositCost": "3699600",
        "executionCost": "infinite",
        "totalCost": "infinite"
      },
      "external": {
        "BUYBLINDBOX_TYPEHASH()": "373",
        "BUYPROPS_TYPEHASH()": "441",
        "BUYSKILLS_TYPEHASH()": "375",
        "BuySkills(address,uint256,uint256,uint256,uint256,uint8,bytes32,bytes32)": "infinite",
        "CARDMINTBATCH_TYPEHASH()": "376",
        "PROPSMINTBATCH_TYPEHASH()": "418",
        "SWAPCARDSTOPROPS_TYPEHASH()": "417",
        "SWAPCARDSTOSKILL_TYPEHASH()": "397",
        "buyBlindBox(address,uint256,uint256,uint256,uint256,uint8,uint8,bytes32,bytes32)": "infinite",
        "buyProps(address,uint256,uint256,uint256,uint256,uint8,bytes32,bytes32)": "infinite",
        "cardMintBatch(address,uint256[],uint256,uint256,uint8,bytes32,bytes32)": "infinite",
        "getChainId()": "404",
        "hbkToken()": "2711",
        "hbkyToken()": "2645",
        "mkyCard()": "2689",
        "mkyHolder()": "2646",
        "mkyProps()": "2645",
        "mkyToken()": "2689",
        "nonces(address)": "2860",
        "onERC721Received(address,address,uint256,bytes)": "infinite",
        "owner()": "2612",
        "propsMintBatch(address,uint256[],uint256,uint256,uint8,bytes32,bytes32)": "infinite",
        "recipient()": "2559",
        "renounceOwnership()": "30509",
        "scpToken()": "2646",
        "setRecipient(address)": "27076",
        "setSignAddress(address)": "27076",
        "setTokenAddress(address,address,address,address,address,address)": "infinite",
        "signAddress()": "2583",
        "swapCardsToProps(address,uint256[],uint256[],uint256[],uint256,uint256,uint8,bytes32,bytes32)": "infinite",
        "swapCardsToSkill(address,uint256[],uint256[],uint256[],uint256,uint256,uint8,bytes32,bytes32)": "infinite",
        "transferOwnership(address)": "30857",
        "zeroAddress()": "2605"
      }
    },
    "methodIdentifiers": {
      "BUYBLINDBOX_TYPEHASH()": "d4919489",
      "BUYPROPS_TYPEHASH()": "928c9caf",
      "BUYSKILLS_TYPEHASH()": "22b54340",
      "BuySkills(address,uint256,uint256,uint256,uint256,uint8,bytes32,bytes32)": "0b08d74c",
      "CARDMINTBATCH_TYPEHASH()": "00de1218",
      "PROPSMINTBATCH_TYPEHASH()": "a01612c4",
      "SWAPCARDSTOPROPS_TYPEHASH()": "dd4b9992",
      "SWAPCARDSTOSKILL_TYPEHASH()": "89c56862",
      "buyBlindBox(address,uint256,uint256,uint256,uint256,uint8,uint8,bytes32,bytes32)": "d6f4b140",
      "buyProps(address,uint256,uint256,uint256,uint256,uint8,bytes32,bytes32)": "9e8344f6",
      "cardMintBatch(address,uint256[],uint256,uint256,uint8,bytes32,bytes32)": "bf6165ff",
      "getChainId()": "3408e470",
      "hbkToken()": "a868708a",
      "hbkyToken()": "bde0db7e",
      "mkyCard()": "6fc0f5d7",
      "mkyHolder()": "f95436ea",
      "mkyProps()": "95cd376f",
      "mkyToken()": "c8a4d023",
      "nonces(address)": "7ecebe00",
      "onERC721Received(address,address,uint256,bytes)": "150b7a02",
      "owner()": "8da5cb5b",
      "propsMintBatch(address,uint256[],uint256,uint256,uint8,bytes32,bytes32)": "1bfa0340",
      "recipient()": "66d003ac",
      "renounceOwnership()": "715018a6",
      "scpToken()": "0e089ee4",
      "setRecipient(address)": "3bbed4a0",
      "setSignAddress(address)": "15137045",
      "setTokenAddress(address,address,address,address,address,address)": "4c10e8be",
      "signAddress()": "0682bdbc",
      "swapCardsToProps(address,uint256[],uint256[],uint256[],uint256,uint256,uint8,bytes32,bytes32)": "c9f63d39",
      "swapCardsToSkill(address,uint256[],uint256[],uint256[],uint256,uint256,uint8,bytes32,bytes32)": "6d0b06b4",
      "transferOwnership(address)": "f2fde38b",
      "zeroAddress()": "0930907b"
    }
  },
  "abi": [
    {
      "inputs": [
        {
          "internalType": "address",
          "name": "_hbkToken",
          "type": "address"
        },
        {
          "internalType": "address",
          "name": "_hbkyToken",
          "type": "address"
        },
        {
          "internalType": "address",
          "name": "_scpToken",
          "type": "address"
        },
        {
          "internalType": "address",
          "name": "_mkyToken",
          "type": "address"
        },
        {
          "internalType": "address",
          "name": "_mkyCard",
          "type": "address"
        },
        {
          "internalType": "address",
          "name": "_mkyProps",
          "type": "address"
        },
        {
          "internalType": "address",
          "name": "_recipient",
          "type": "address"
        },
        {
          "internalType": "address",
          "name": "_signAddress",
          "type": "address"
        }
      ],
      "stateMutability": "nonpayable",
      "type": "constructor"
    },
    {
      "anonymous": false,
      "inputs": [
        {
          "indexed": true,
          "internalType": "address",
          "name": "user",
          "type": "address"
        },
        {
          "indexed": false,
          "internalType": "uint256",
          "name": "amount1",
          "type": "uint256"
        },
        {
          "indexed": false,
          "internalType": "uint256",
          "name": "amount2",
          "type": "uint256"
        },
        {
          "indexed": false,
          "internalType": "uint256",
          "name": "deadline",
          "type": "uint256"
        },
        {
          "indexed": false,
          "internalType": "uint256",
          "name": "nonce",
          "type": "uint256"
        },
        {
          "indexed": false,
          "internalType": "uint8",
          "name": "payType",
          "type": "uint8"
        }
      ],
      "name": "BuyBlindBoxEvent",
      "type": "event"
    },
    {
      "anonymous": false,
      "inputs": [
        {
          "indexed": true,
          "internalType": "address",
          "name": "user",
          "type": "address"
        },
        {
          "indexed": false,
          "internalType": "uint256",
          "name": "propsId",
          "type": "uint256"
        },
        {
          "indexed": false,
          "internalType": "uint256",
          "name": "amount",
          "type": "uint256"
        },
        {
          "indexed": false,
          "internalType": "uint256",
          "name": "deadline",
          "type": "uint256"
        },
        {
          "indexed": false,
          "internalType": "uint256",
          "name": "nonce",
          "type": "uint256"
        }
      ],
      "name": "BuyPropsEvent",
      "type": "event"
    },
    {
      "anonymous": false,
      "inputs": [
        {
          "indexed": true,
          "internalType": "address",
          "name": "user",
          "type": "address"
        },
        {
          "indexed": false,
          "internalType": "uint256",
          "name": "itemId",
          "type": "uint256"
        },
        {
          "indexed": false,
          "internalType": "uint256",
          "name": "amount",
          "type": "uint256"
        },
        {
          "indexed": false,
          "internalType": "uint256",
          "name": "deadline",
          "type": "uint256"
        },
        {
          "indexed": false,
          "internalType": "uint256",
          "name": "nonce",
          "type": "uint256"
        }
      ],
      "name": "BuySkillsEvent",
      "type": "event"
    },
    {
      "anonymous": false,
      "inputs": [
        {
          "indexed": true,
          "internalType": "address",
          "name": "user",
          "type": "address"
        },
        {
          "indexed": false,
          "internalType": "uint256[]",
          "name": "tokenIds",
          "type": "uint256[]"
        },
        {
          "indexed": false,
          "internalType": "uint256",
          "name": "deadline",
          "type": "uint256"
        },
        {
          "indexed": false,
          "internalType": "uint256",
          "name": "nonce",
          "type": "uint256"
        }
      ],
      "name": "CardMintBatchEvent",
      "type": "event"
    },
    {
      "anonymous": false,
      "inputs": [
        {
          "indexed": true,
          "internalType": "address",
          "name": "previousOwner",
          "type": "address"
        },
        {
          "indexed": true,
          "internalType": "address",
          "name": "newOwner",
          "type": "address"
        }
      ],
      "name": "OwnershipTransferred",
      "type": "event"
    },
    {
      "anonymous": false,
      "inputs": [
        {
          "indexed": true,
          "internalType": "address",
          "name": "user",
          "type": "address"
        },
        {
          "indexed": false,
          "internalType": "uint256[]",
          "name": "tokenIds",
          "type": "uint256[]"
        },
        {
          "indexed": false,
          "internalType": "uint256",
          "name": "deadline",
          "type": "uint256"
        },
        {
          "indexed": false,
          "internalType": "uint256",
          "name": "nonce",
          "type": "uint256"
        }
      ],
      "name": "PropsMintBatchEvent",
      "type": "event"
    },
    {
      "anonymous": false,
      "inputs": [
        {
          "indexed": true,
          "internalType": "address",
          "name": "user",
          "type": "address"
        },
        {
          "indexed": false,
          "internalType": "uint256[]",
          "name": "tokenIds",
          "type": "uint256[]"
        },
        {
          "indexed": false,
          "internalType": "uint256[]",
          "name": "propsIds",
          "type": "uint256[]"
        },
        {
          "indexed": false,
          "internalType": "uint256",
          "name": "deadline",
          "type": "uint256"
        },
        {
          "indexed": false,
          "internalType": "uint256",
          "name": "nonce",
          "type": "uint256"
        }
      ],
      "name": "SwapCardToPropsEvent",
      "type": "event"
    },
    {
      "anonymous": false,
      "inputs": [
        {
          "indexed": true,
          "internalType": "address",
          "name": "user",
          "type": "address"
        },
        {
          "indexed": false,
          "internalType": "uint256[]",
          "name": "tokenIds",
          "type": "uint256[]"
        },
        {
          "indexed": false,
          "internalType": "uint256[]",
          "name": "itemIds",
          "type": "uint256[]"
        },
        {
          "indexed": false,
          "internalType": "uint256",
          "name": "deadline",
          "type": "uint256"
        },
        {
          "indexed": false,
          "internalType": "uint256",
          "name": "nonce",
          "type": "uint256"
        }
      ],
      "name": "SwapCardToSkillEvent",
      "type": "event"
    },
    {
      "inputs": [],
      "name": "BUYBLINDBOX_TYPEHASH",
      "outputs": [
        {
          "internalType": "bytes32",
          "name": "",
          "type": "bytes32"
        }
      ],
      "stateMutability": "view",
      "type": "function"
    },
    {
      "inputs": [],
      "name": "BUYPROPS_TYPEHASH",
      "outputs": [
        {
          "internalType": "bytes32",
          "name": "",
          "type": "bytes32"
        }
      ],
      "stateMutability": "view",
      "type": "function"
    },
    {
      "inputs": [],
      "name": "BUYSKILLS_TYPEHASH",
      "outputs": [
        {
          "internalType": "bytes32",
          "name": "",
          "type": "bytes32"
        }
      ],
      "stateMutability": "view",
      "type": "function"
    },
    {
      "inputs": [
        {
          "internalType": "address",
          "name": "user",
          "type": "address"
        },
        {
          "internalType": "uint256",
          "name": "itemId",
          "type": "uint256"
        },
        {
          "internalType": "uint256",
          "name": "amount",
          "type": "uint256"
        },
        {
          "internalType": "uint256",
          "name": "deadline",
          "type": "uint256"
        },
        {
          "internalType": "uint256",
          "name": "nonce",
          "type": "uint256"
        },
        {
          "internalType": "uint8",
          "name": "v",
          "type": "uint8"
        },
        {
          "internalType": "bytes32",
          "name": "r",
          "type": "bytes32"
        },
        {
          "internalType": "bytes32",
          "name": "s",
          "type": "bytes32"
        }
      ],
      "name": "BuySkills",
      "outputs": [],
      "stateMutability": "nonpayable",
      "type": "function"
    },
    {
      "inputs": [],
      "name": "CARDMINTBATCH_TYPEHASH",
      "outputs": [
        {
          "internalType": "bytes32",
          "name": "",
          "type": "bytes32"
        }
      ],
      "stateMutability": "view",
      "type": "function"
    },
    {
      "inputs": [],
      "name": "PROPSMINTBATCH_TYPEHASH",
      "outputs": [
        {
          "internalType": "bytes32",
          "name": "",
          "type": "bytes32"
        }
      ],
      "stateMutability": "view",
      "type": "function"
    },
    {
      "inputs": [],
      "name": "SWAPCARDSTOPROPS_TYPEHASH",
      "outputs": [
        {
          "internalType": "bytes32",
          "name": "",
          "type": "bytes32"
        }
      ],
      "stateMutability": "view",
      "type": "function"
    },
    {
      "inputs": [],
      "name": "SWAPCARDSTOSKILL_TYPEHASH",
      "outputs": [
        {
          "internalType": "bytes32",
          "name": "",
          "type": "bytes32"
        }
      ],
      "stateMutability": "view",
      "type": "function"
    },
    {
      "inputs": [
        {
          "internalType": "address",
          "name": "user",
          "type": "address"
        },
        {
          "internalType": "uint256",
          "name": "amount1",
          "type": "uint256"
        },
        {
          "internalType": "uint256",
          "name": "amount2",
          "type": "uint256"
        },
        {
          "internalType": "uint256",
          "name": "deadline",
          "type": "uint256"
        },
        {
          "internalType": "uint256",
          "name": "nonce",
          "type": "uint256"
        },
        {
          "internalType": "uint8",
          "name": "payType",
          "type": "uint8"
        },
        {
          "internalType": "uint8",
          "name": "v",
          "type": "uint8"
        },
        {
          "internalType": "bytes32",
          "name": "r",
          "type": "bytes32"
        },
        {
          "internalType": "bytes32",
          "name": "s",
          "type": "bytes32"
        }
      ],
      "name": "buyBlindBox",
      "outputs": [
        {
          "internalType": "bool",
          "name": "",
          "type": "bool"
        }
      ],
      "stateMutability": "nonpayable",
      "type": "function"
    },
    {
      "inputs": [
        {
          "internalType": "address",
          "name": "user",
          "type": "address"
        },
        {
          "internalType": "uint256",
          "name": "propsId",
          "type": "uint256"
        },
        {
          "internalType": "uint256",
          "name": "amount",
          "type": "uint256"
        },
        {
          "internalType": "uint256",
          "name": "deadline",
          "type": "uint256"
        },
        {
          "internalType": "uint256",
          "name": "nonce",
          "type": "uint256"
        },
        {
          "internalType": "uint8",
          "name": "v",
          "type": "uint8"
        },
        {
          "internalType": "bytes32",
          "name": "r",
          "type": "bytes32"
        },
        {
          "internalType": "bytes32",
          "name": "s",
          "type": "bytes32"
        }
      ],
      "name": "buyProps",
      "outputs": [],
      "stateMutability": "nonpayable",
      "type": "function"
    },
    {
      "inputs": [
        {
          "internalType": "address",
          "name": "user",
          "type": "address"
        },
        {
          "internalType": "uint256[]",
          "name": "tokenIds",
          "type": "uint256[]"
        },
        {
          "internalType": "uint256",
          "name": "deadline",
          "type": "uint256"
        },
        {
          "internalType": "uint256",
          "name": "nonce",
          "type": "uint256"
        },
        {
          "internalType": "uint8",
          "name": "v",
          "type": "uint8"
        },
        {
          "internalType": "bytes32",
          "name": "r",
          "type": "bytes32"
        },
        {
          "internalType": "bytes32",
          "name": "s",
          "type": "bytes32"
        }
      ],
      "name": "cardMintBatch",
      "outputs": [],
      "stateMutability": "nonpayable",
      "type": "function"
    },
    {
      "inputs": [],
      "name": "getChainId",
      "outputs": [
        {
          "internalType": "uint256",
          "name": "",
          "type": "uint256"
        }
      ],
      "stateMutability": "view",
      "type": "function"
    },
    {
      "inputs": [],
      "name": "hbkToken",
      "outputs": [
        {
          "internalType": "contract IERC20",
          "name": "",
          "type": "address"
        }
      ],
      "stateMutability": "view",
      "type": "function"
    },
    {
      "inputs": [],
      "name": "hbkyToken",
      "outputs": [
        {
          "internalType": "contract IERC20",
          "name": "",
          "type": "address"
        }
      ],
      "stateMutability": "view",
      "type": "function"
    },
    {
      "inputs": [],
      "name": "mkyCard",
      "outputs": [
        {
          "internalType": "contract IMkyCard",
          "name": "",
          "type": "address"
        }
      ],
      "stateMutability": "view",
      "type": "function"
    },
    {
      "inputs": [],
      "name": "mkyHolder",
      "outputs": [
        {
          "internalType": "address",
          "name": "",
          "type": "address"
        }
      ],
      "stateMutability": "view",
      "type": "function"
    },
    {
      "inputs": [],
      "name": "mkyProps",
      "outputs": [
        {
          "internalType": "contract IMkyCard",
          "name": "",
          "type": "address"
        }
      ],
      "stateMutability": "view",
      "type": "function"
    },
    {
      "inputs": [],
      "name": "mkyToken",
      "outputs": [
        {
          "internalType": "contract IERC20",
          "name": "",
          "type": "address"
        }
      ],
      "stateMutability": "view",
      "type": "function"
    },
    {
      "inputs": [
        {
          "internalType": "address",
          "name": "",
          "type": "address"
        }
      ],
      "name": "nonces",
      "outputs": [
        {
          "internalType": "uint256",
          "name": "",
          "type": "uint256"
        }
      ],
      "stateMutability": "view",
      "type": "function"
    },
    {
      "inputs": [
        {
          "internalType": "address",
          "name": "",
          "type": "address"
        },
        {
          "internalType": "address",
          "name": "",
          "type": "address"
        },
        {
          "internalType": "uint256",
          "name": "",
          "type": "uint256"
        },
        {
          "internalType": "bytes",
          "name": "",
          "type": "bytes"
        }
      ],
      "name": "onERC721Received",
      "outputs": [
        {
          "internalType": "bytes4",
          "name": "",
          "type": "bytes4"
        }
      ],
      "stateMutability": "nonpayable",
      "type": "function"
    },
    {
      "inputs": [],
      "name": "owner",
      "outputs": [
        {
          "internalType": "address",
          "name": "",
          "type": "address"
        }
      ],
      "stateMutability": "view",
      "type": "function"
    },
    {
      "inputs": [
        {
          "internalType": "address",
          "name": "user",
          "type": "address"
        },
        {
          "internalType": "uint256[]",
          "name": "tokenIds",
          "type": "uint256[]"
        },
        {
          "internalType": "uint256",
          "name": "deadline",
          "type": "uint256"
        },
        {
          "internalType": "uint256",
          "name": "nonce",
          "type": "uint256"
        },
        {
          "internalType": "uint8",
          "name": "v",
          "type": "uint8"
        },
        {
          "internalType": "bytes32",
          "name": "r",
          "type": "bytes32"
        },
        {
          "internalType": "bytes32",
          "name": "s",
          "type": "bytes32"
        }
      ],
      "name": "propsMintBatch",
      "outputs": [],
      "stateMutability": "nonpayable",
      "type": "function"
    },
    {
      "inputs": [],
      "name": "recipient",
      "outputs": [
        {
          "internalType": "address",
          "name": "",
          "type": "address"
        }
      ],
      "stateMutability": "view",
      "type": "function"
    },
    {
      "inputs": [],
      "name": "renounceOwnership",
      "outputs": [],
      "stateMutability": "nonpayable",
      "type": "function"
    },
    {
      "inputs": [],
      "name": "scpToken",
      "outputs": [
        {
          "internalType": "contract IERC20",
          "name": "",
          "type": "address"
        }
      ],
      "stateMutability": "view",
      "type": "function"
    },
    {
      "inputs": [
        {
          "internalType": "address",
          "name": "_recipient",
          "type": "address"
        }
      ],
      "name": "setRecipient",
      "outputs": [],
      "stateMutability": "nonpayable",
      "type": "function"
    },
    {
      "inputs": [
        {
          "internalType": "address",
          "name": "_signAddress",
          "type": "address"
        }
      ],
      "name": "setSignAddress",
      "outputs": [],
      "stateMutability": "nonpayable",
      "type": "function"
    },
    {
      "inputs": [
        {
          "internalType": "address",
          "name": "_hbkToken",
          "type": "address"
        },
        {
          "internalType": "address",
          "name": "_hbkyToken",
          "type": "address"
        },
        {
          "internalType": "address",
          "name": "_scpToken",
          "type": "address"
        },
        {
          "internalType": "address",
          "name": "_mkyToken",
          "type": "address"
        },
        {
          "internalType": "address",
          "name": "_mkyCard",
          "type": "address"
        },
        {
          "internalType": "address",
          "name": "_mkyProps",
          "type": "address"
        }
      ],
      "name": "setTokenAddress",
      "outputs": [],
      "stateMutability": "nonpayable",
      "type": "function"
    },
    {
      "inputs": [],
      "name": "signAddress",
      "outputs": [
        {
          "internalType": "address",
          "name": "",
          "type": "address"
        }
      ],
      "stateMutability": "view",
      "type": "function"
    },
    {
      "inputs": [
        {
          "internalType": "address",
          "name": "user",
          "type": "address"
        },
        {
          "internalType": "uint256[]",
          "name": "tokenIds",
          "type": "uint256[]"
        },
        {
          "internalType": "uint256[]",
          "name": "propsIds",
          "type": "uint256[]"
        },
        {
          "internalType": "uint256[]",
          "name": "proTokenIds",
          "type": "uint256[]"
        },
        {
          "internalType": "uint256",
          "name": "deadline",
          "type": "uint256"
        },
        {
          "internalType": "uint256",
          "name": "nonce",
          "type": "uint256"
        },
        {
          "internalType": "uint8",
          "name": "v",
          "type": "uint8"
        },
        {
          "internalType": "bytes32",
          "name": "r",
          "type": "bytes32"
        },
        {
          "internalType": "bytes32",
          "name": "s",
          "type": "bytes32"
        }
      ],
      "name": "swapCardsToProps",
      "outputs": [],
      "stateMutability": "nonpayable",
      "type": "function"
    },
    {
      "inputs": [
        {
          "internalType": "address",
          "name": "user",
          "type": "address"
        },
        {
          "internalType": "uint256[]",
          "name": "tokenIds",
          "type": "uint256[]"
        },
        {
          "internalType": "uint256[]",
          "name": "itemIds",
          "type": "uint256[]"
        },
        {
          "internalType": "uint256[]",
          "name": "proTokenIds",
          "type": "uint256[]"
        },
        {
          "internalType": "uint256",
          "name": "deadline",
          "type": "uint256"
        },
        {
          "internalType": "uint256",
          "name": "nonce",
          "type": "uint256"
        },
        {
          "internalType": "uint8",
          "name": "v",
          "type": "uint8"
        },
        {
          "internalType": "bytes32",
          "name": "r",
          "type": "bytes32"
        },
        {
          "internalType": "bytes32",
          "name": "s",
          "type": "bytes32"
        }
      ],
      "name": "swapCardsToSkill",
      "outputs": [],
      "stateMutability": "nonpayable",
      "type": "function"
    },
    {
      "inputs": [
        {
          "internalType": "address",
          "name": "newOwner",
          "type": "address"
        }
      ],
      "name": "transferOwnership",
      "outputs": [],
      "stateMutability": "nonpayable",
      "type": "function"
    },
    {
      "inputs": [],
      "name": "zeroAddress",
      "outputs": [
        {
          "internalType": "address",
          "name": "",
          "type": "address"
        }
      ],
      "stateMutability": "view",
      "type": "function"
    }
  ]
}